:020000040800F2
:10000000180400200D020008970B0008350B0008AB
:10001000950B000819030008390C000800000000C7
:100020000000000000000000000000009B0B000822
:100030001B03000800000000990B00089D0B00083E
:1000400027020008270200082702000827020008EC
:1000500027020008270200082702000827020008DC
:1000600027020008270200082702000827020008CC
:1000700027020008270200082702000827020008BC
:1000800027020008270200082702000827020008AC
:10009000270200082702000827020008270200089C
:1000A000270200082702000827020008270200088C
:1000B000270200082702000827020008270200087C
:1000C000270200082702000827020008270200086C
:1000D000270200082702000827020008270200085C
:1000E000270200082702000827020008270200084C
:1000F000270200082702000827020008270200083C
:10010000270200082702000827020008270200082B
:10011000270200082702000827020008270200081B
:10012000270200082702000827020008270200080B
:1001300027020008270200082702000827020008FB
:1001400027020008270200082702000827020008EB
:1001500027020008270200082702000827020008DB
:1001600027020008270200082702000827020008CB
:1001700027020008270200082702000800000000EC
:1001800027020008270200082702000827020008AB
:10019000270200082702000827020008270200089B
:1001A000270200082702000827020008270200088B
:1001B000270200082702000827020008270200087B
:1001C000270200082702000800000000270200089C
:1001D000270200082702000827020008270200085B
:1001E000270200082702000827020008270200084B
:1001F0002702000827020008DFF80CD000F07AF888
:1002000000480047610C0008180400200648804799
:1002100006480047FEE7FEE7FEE7FEE7FEE7FEE7EB
:10022000FEE7FEE7FEE7FEE7290C0008F9010008FB
:100230002DE9F05F0546002092469B46884606461B
:10024000814640241BE0284641464746224600F0AE
:1002500041F853465A46C01A914110D311461846E8
:10026000224600F028F82D1A67EB01084F46224677
:100270000120002100F01FF817EB00094E41201E5D
:10028000A4F10104DFDC484631462A464346BDE876
:10029000F09FD2B201E000F8012B491EFBD270475B
:1002A0000022F6E710B513460A4604461946FFF742
:1002B000F0FF204610BD202A04DB203A00FA02F1AC
:1002C000002070479140C2F1200320FA03F3194344
:1002D00090407047202A04DB203A21FA02F00021E6
:1002E000704721FA02F3D040C2F120029140084346
:1002F00019467047064C074D06E0E06840F00103E0
:1003000094E8070098471034AC42F6D3FFF778FF23
:100310009C0C0008BC0C0008FEE770472DE9FC4F60
:100320005E4A0A2490425E4A024408BF09244FEA0A
:10033000B2234FF0000B092B38BF4FEAB2244FF025
:10034000010A4FF0000C00220094BCF1200F00F0D5
:10035000A3800AFA02F60B68334200F097804F68D8
:10036000122F1BD80AFA07F313F0061F16D0032327
:10037000846803FA0CF3D1F80CE09C430EFA0CF5F8
:100380002C436FEA030E8460C7F300144568944061
:10039000B5434FEA42092C43446005E00323E1469C
:1003A00003FA0CF36FEA030EC5688C6805EA0E05C4
:1003B00004FA09F42C43C46047F01004122C12D143
:1003C0000BF01C040F2303FA04F56FF0030303EA98
:1003D00052070744D7F820800B6928EA0505A34097
:1003E0002B433B624F68036807F0030403EA0E03E4
:1003F00004FA09F423430360FB0047D52B4B22F09A
:1004000003051C461B6843F48043264F2360BE4609
:1004100023683D4403F480430F2401930BF00C0345
:10042000019F9C40224FB846EF5927EA0404009FE1
:1004300007FA03F3234345F80830DEF800304D682F
:1004400043EA0604EF0358BF23EA0604CEF800404F
:10045000DEF80430AF0343EA060458BF23EA06047B
:10046000CEF80440DEF80830EF0243EA060458BF35
:1004700023EA0604CEF808400B4BAD021F461B686A
:1004800043EA060458BF23EA06043C600BF1040B60
:100490000CF1020C013258E7BDE8FC8F0024024049
:1004A0000000FEBF003C01400C3C014044380240CB
:1004B00008FCFFFF002A08BF0904816170470000A3
:1004C00005480068704700BF1848034900780A686B
:1004D00010440860704700BF1000002080B5032062
:1004E00000F058F8002000F005F800F021F8002096
:1004F00080BD000070B50D4E044630784FF47A711F
:10050000B1FBF0F093490968B1FBF0F000F0FEFA9E
:1005100001250F2C08D838B94FF0FF3021460022B2
:10052000002500F01BF87460284670BD0000002014
:1005300082B03948016841F080510160016801F0E2
:10054000805101910199416841F4804141604068C6
:1005500000F480400090009802B07047B0B5134B93
:100560004FF0FF351B68C3F30223DC1E83F0070343
:1005700038BF0024042B28BF042305FA03F3994352
:1005800005FA04F3A1409A431143BDE8B04000F0DE
:1005900055BB00BF05494FF6FF030A681A4060F3D8
:1005A0000A22034810430860704700BF0CED00E0CA
:1005B0000000FA05BCB51848184D016841F080519B
:1005C0000160006800F0805001900198286840F4B4
:1005D00080302860FFF774FF04466868C00306D4C3
:1005E000FFF76EFF001BB0F57A7FF6D90FE02868A1
:1005F00040F400302860FFF763FF0446686880031A
:1006000007D4FFF75DFF001BB0F57A7FF6D9032012
:10061000BCBD0020BCBD00BF40380240007000409F
:100620002DE9F041002800F08D80484F0446D7F8AE
:100630000004884600F00F0088420DD2D7F800046D
:1006400020F00F0040EA0800C7F80004D7F80004C3
:1006500000F00F00404575D12068810711D5410792
:1006600003D5B96841F4E051B960010703D5B96811
:1006700041F46041B960A168BA6822F0F002114308
:10068000B960C00727D06068012803D139688903A1
:1006900008D457E03968022802D1890102D451E018
:1006A00089074FD5B96821F003010843B860FFF707
:1006B00007FF064641F288356068B96801F00C0111
:1006C000B1EB800F07D0FFF7FBFE801BA842F3D9E8
:1006D0000320BDE8F081D7F8000400F00F0040458A
:1006E0000DD9D7F8000420F00F0040EA0800C7F841
:1006F0000004D7F8000400F00F00404522D1206824
:10070000410705D5E168BA6822F4E0521143B960A7
:10071000000706D52069B96821F4604141EAC000AC
:10072000B86000F01BF8B968094AC1F30311515CC5
:10073000C8400849086008480068FFF7DBFE002051
:10074000BDE8F0810120BDE8F08100BF0038024023
:100750008C0C0008080000200400002010B5144C88
:10076000606800F00C00082804D0042814BF114869
:10077000114810BD22682068400202F03F020E4876
:100780004FF000035CBF42F20040C0F2F400216869
:10079000C1F38811A0FB0101FFF74AFD2168022285
:1007A000C1F3014102EB4101B0FBF1F010BD00BF0C
:1007B000043802400024F40040787D012DE9FC411A
:1007C000002800F0DE8004460078CF4EC0074BD0F2
:1007D000B06800F00C00042806D13068800343D5CF
:1007E0006068002840D1CCE0B06800F00C00082818
:1007F00002D170684002F0D4606868B1B0F5803F03
:1008000006D03168B0F5A02F1BD141F480203060B4
:10081000306840F480301AE0306820F48030306076
:10082000306820F480203060FFF74AFE05463068CB
:10083000800319D5FFF744FE411B03206429F6D934
:100840005FE121F480303060306820F48020306037
:10085000FFF736FE05463068800305D4FFF730FE0B
:10086000401B6428F7D91BE1207880072DD5B0689C
:1008700010F00C0F07D0B06800F00C00082809D168
:100880007068400206D43068800717D5E0680128F8
:1008900014D076E03068E168002900F0C58040F0AF
:1008A00001003060FFF70CFE05463068800705D474
:1008B000FFF706FE401B0228F7D9F1E020693168F6
:1008C00021F0F80141EAC00030602078000720D50F
:1008D000706F616971B140F001007067FFF7F0FD62
:1008E0000546706F800714D4FFF7EAFD401B02280D
:1008F000F7D9D5E020F001007067FFF7E1FD05466C
:10090000706F800705D5FFF7DBFD401B0228F7D984
:10091000C6E02078400737D4A769002F00F0F080A8
:10092000B06800F00C00082861D17068012F28D051
:10093000E16900F480028A4223D1216A00F03F027B
:100940008A421ED147F6C071626A0140B1EB821F34
:1009500017D1A16A4FF6FF72C903914300F44032E8
:10096000A1F580318A420CD1E16A00F07062B2EBED
:10097000016F06D1216B00F0E040B0EB017F00F089
:10098000BF800120BDE8FC81306CC0000BD4306C0E
:100990004FF0010840F080503064306C00F080501F
:1009A0000190019801E04FF000089E4F3868C005A3
:1009B0000FD4386840F480703860FFF781FD054639
:1009C0003868C00505D4FFF77BFD401B6428F7D9C4
:1009D00066E0A068C8B3012805D0316F05284BD167
:1009E00041F004003067306F40F001004AE03068A9
:1009F00020F080703060FFF763FD0546022F09D1BB
:100A00003068800158D5FFF75BFD411B03200229A8
:100A1000F6D976E03068800172D5FFF751FD411BB1
:100A200003200229F6D96CE020F001003060FFF7C6
:100A300047FD0546306880077FF547AFFFF740FD6B
:100A4000411B03200229F5D95BE0306F20F0010043
:100A50003067306F20F004003067FFF731FD054646
:100A600041F28837306F80071DD5FFF729FD411B04
:100A70000320B942F6D944E021F001003067306F1D
:100A800020F004003067FFF71BFD054641F2883770
:100A9000306F800707D4FFF713FD401BB842F7D92A
:100AA0000320BDE8FC81B8F1000F3FF435AF306C96
:100AB00020F0805030642FE704F11C05246B2FCD0B
:100AC0000843D90340EA82104FF6FF72914340EA8F
:100AD0000560A1F58031084340EA04707060306819
:100AE00040F080703060FFF7EBFC04463068800116
:100AF00006D4FFF7E5FC011B03200229F6D900E02C
:100B00000020BDE8FC8100BF00380240411E0020EB
:100B1000B0EB116F01D001207047044AF0235160FF
:100B200003490B70072190601160704710E000E0EE
:100B300023ED00E0FEE7000070B586B00025134805
:100B40000595134C0168002241F0800103260160E5
:100B5000016801F0800100910099016841F00201F3
:100B600001600321006800F0020000900098204618
:100B7000FFF7A0FC012001A9CDE90355CDE90160F3
:100B80002046FFF7CBFB06B070BD00BF30380240F7
:100B900000040240FEE7704770477047FFF794BCBF
:100BA00070B592B005AC3021201DFFF779FB1C48D1
:100BB00002250168002641F080510160006800F0C4
:100BC0008050009000981748016841F4404101604E
:100BD000006800F440400090C820CDE90F550E9009
:100BE00008200D901020CDE90B56099001200890A7
:100BF000059500982046FFF7E1FDFFF7DBFC4FF479
:100C00008050062104904FF4A05003900F20CDE9AE
:100C1000015600906846FFF703FD12B070BD00BF9B
:100C200040380240007000400248016841F4700101
:100C30000160704788ED00E0FEE7000010B500F0AD
:100C40000F03064C2344044AB0F1FF3FC8BF83188A
:100C50000801187010BD00BF00E400E014ED00E0D2
:100C6000FFF73CFCFFF79CFFFFF766FFFEE702E0A3
:100C700008C8121F08C1002AFAD170477047002027
:100C800001E001C1121F002AFBD1704700000000E3
:100C9000000000000102030406070809C00C000858
:100CA00000000020100000006E0C0008D00C0008AE
:100CB00010000020080400007E0C00080000000066
:100CC00001000000100000000024F40000000000FB
:04000005080001F9F5
:00000001FF
