:020000040800F2
:10000000980400200D020008BF1200081912000811
:10001000BD12000819030008AB160008000000001C
:10002000000000000000000000000000C3120008F3
:100030001B03000800000000C1120008C5120008E0
:1000400027020008270200082702000827020008EC
:1000500027020008270200082702000827020008DC
:1000600027020008270200082702000827020008CC
:1000700027020008270200082702000827020008BC
:1000800027020008270200082702000827020008AC
:10009000270200082702000827020008270200089C
:1000A000270200082702000827020008270200088C
:1000B000270200082702000827020008270200087C
:1000C000270200082702000827020008270200086C
:1000D000270200082702000827020008270200085C
:1000E000270200082702000827020008270200084C
:1000F000270200082702000827020008270200083C
:10010000270200082702000827020008270200082B
:10011000270200082702000827020008270200081B
:10012000270200082702000827020008270200080B
:1001300027020008270200082702000827020008FB
:1001400027020008270200082702000827020008EB
:1001500027020008270200082702000827020008DB
:1001600027020008270200082702000827020008CB
:1001700027020008270200082702000800000000EC
:1001800027020008270200082702000827020008AB
:10019000270200082702000827020008270200089B
:1001A000270200082702000827020008270200088B
:1001B000270200082702000827020008270200087B
:1001C000270200082702000800000000270200089C
:1001D000270200082702000827020008270200085B
:1001E000270200082702000827020008270200084B
:1001F0002702000827020008DFF80CD000F07AF888
:1002000000480047D116000898040020064880479F
:1002100006480047FEE7FEE7FEE7FEE7FEE7FEE7EB
:10022000FEE7FEE7FEE7FEE765130008F9010008B8
:100230002DE9F05F0546002092469B46884606461B
:10024000814640241BE0284641464746224600F0AE
:1002500041F853465A46C01A914110D311461846E8
:10026000224600F028F82D1A67EB01084F46224677
:100270000120002100F01FF817EB00094E41201E5D
:10028000A4F10104DFDC484631462A464346BDE876
:10029000F09FD2B201E000F8012B491EFBD270475B
:1002A0000022F6E710B513460A4604461946FFF742
:1002B000F0FF204610BD202A04DB203A00FA02F1AC
:1002C000002070479140C2F1200320FA03F3194344
:1002D00090407047202A04DB203A21FA02F00021E6
:1002E000704721FA02F3D040C2F120029140084346
:1002F00019467047064C074D06E0E06840F00103E0
:1003000094E8070098471034AC42F6D3FFF778FF23
:100310007417000894170008FEE77047B0B504464C
:1003200000F0DEF8054689480078611C18BF0444D7
:1003300000F0D6F8401BA042FAD3B0BD2DE9FC4F27
:100340005E4A0A2490425E4A024408BF09244FEAEA
:10035000B2234FF0000B092B38BF4FEAB2244FF005
:10036000010A4FF0000C00220094BCF1200F00F0B5
:10037000A3800AFA02F60B68334200F097804F68B8
:10038000122F1BD80AFA07F313F0061F16D0032307
:10039000846803FA0CF3D1F80CE09C430EFA0CF5D8
:1003A0002C436FEA030E8460C7F300144568944041
:1003B000B5434FEA42092C43446005E00323E1467C
:1003C00003FA0CF36FEA030EC5688C6805EA0E05A4
:1003D00004FA09F42C43C46047F01004122C12D123
:1003E0000BF01C040F2303FA04F56FF0030303EA78
:1003F00052070744D7F820800B6928EA0505A34077
:100400002B433B624F68036807F0030403EA0E03C3
:1004100004FA09F423430360FB0047D52B4B22F079
:1004200003051C461B6843F48043264F2360BE46E9
:1004300023683D4403F480430F2401930BF00C0325
:10044000019F9C40224FB846EF5927EA0404009FC1
:1004500007FA03F3234345F80830DEF800304D680F
:1004600043EA0604EF0358BF23EA0604CEF800402F
:10047000DEF80430AF0343EA060458BF23EA06045B
:10048000CEF80440DEF80830EF0243EA060458BF15
:1004900023EA0604CEF808400B4BAD021F461B684A
:1004A00043EA060458BF23EA06043C600BF1040B40
:1004B0000CF1020C013258E7BDE8FC8F0024024029
:1004C0000000FEBF003C01400C3C014044380240AB
:1004D00008FCFFFF002A08BF090481617047000083
:1004E00005480068704700BF1848034900780A684B
:1004F00010440860704700BF9400002080B50320BE
:1005000000F05AF8002000F005F800F023F8002071
:1005100080BD000070B50D4E044630784FF47A71FE
:10052000B1FBF0F00A490968B1FBF0F000F09CFD66
:1005300001250F2C08D838B94FF0FF302146002292
:10054000002500F01DF87460284670BD00000020F2
:100550000800002082B03948016841F080510160F4
:10056000016801F0805101910199416841F4804195
:100570004160406800F480400090009802B07047ED
:10058000B0B5134B4FF0FF351B68C3F30223DC1EDD
:1005900083F0070338BF0024042B28BF042305FA87
:1005A00003F3994305FA04F3A1409A431143BDE8CC
:1005B000B04001F07BB800BF05494FF6FF030A6861
:1005C0001A4060F30A22034810430860704700BFD6
:1005D0000CED00E00000FA05BCB51848E04D0168DC
:1005E00041F080510160006800F080500190019856
:1005F000286840F480302860FFF772FF044668687E
:10060000C00306D4FFF76CFF001BB0F57A7FF6D964
:100610000FE0286840F400302860FFF761FF0446CF
:100620006868800307D4FFF75BFF001BB0F57A7F93
:10063000F6D90320BCBD0020BCBD00BF403802403D
:100640002DE9FC47D0F800A004465FEACA70C34E0B
:1006500002D14FF000090BE0B06820F40000B06058
:10066000606BB1680143B0FA80F04FEA5019B16095
:100670005FEA0A3002D44FF0000811E0E06BD6F8D0
:100680008C1021F44011B0F5801F41EA0001B0FA4E
:1006900080F04FEA5018C6F88C1008BF4FF00109DF
:1006A0005FEACA2011D5206CD6F88C1021F44001E5
:1006B000002841EA0001C6F88C1008BF4FF001087D
:1006C000B0F5800F08BF4FF001095FEA8A60574616
:1006D00053D5306CA24F40F080503064306C00F045
:1006E000805001900198386840F480703860FFF7BE
:1006F000F7FE05463868C00505D4FFF7F1FE401B3C
:100700006428F7D919E2306F10F4407022D0216BC1
:1007100001F4407188421DD0306F316F41F4803157
:1007200020F440703167316F21F4803131673067D8
:10073000306FC0070ED0FFF7D3FE054641F2883771
:10074000306F800706D4FFF7CBFE411B0320B94270
:10075000F6D9F3E12768206BB268824922F4F812D7
:1007600000F440730140B3F5407F08BF0A43B26014
:100770006FF31F30316F08433067F8060BD5D6F89A
:100780008C0020F08070C6F88C00A06BD6F88C101E
:100790000843C6F88C00780407D5606ED6F8901030
:1007A00021F440310843C6F89000380407D5A06E04
:1007B000D6F8901021F440210843C6F89000F803C1
:1007C00007D5E06ED6F8901021F440110843C6F822
:1007D0009000B80307D5206FD6F8901021F440019F
:1007E0000843C6F89000780607D5606CD6F89010DC
:1007F00021F003010843C6F89000380607D5A06C25
:10080000D6F8901021F00C010843C6F89000F805C6
:1008100007D5E06CD6F8901021F030010843C6F8F7
:100820009000B80507D5206DD6F8901021F0C001D2
:100830000843C6F89000780507D5606DD6F890108B
:1008400021F440710843C6F89000380507D5A06D23
:10085000D6F8901021F440610843C6F89000F804DF
:1008600007D5E06DD6F8901021F440510843C6F842
:100870009000B80407D5206ED6F8901021F44041BE
:100880000843C6F89000780207D5A06FD6F89010FC
:1008900021F080610843C6F89000B8020DD5E06FE2
:1008A000D6F8901021F00061B0F1006F41EA00012C
:1008B000C6F8901008BF4FF00108780307D5606FA5
:1008C000D6F8901021F040710843C6F89000380225
:1008D00008D5D4F88000D6F8901021F08051084354
:1008E000C6F89000780108D5D4F88400D6F89010A6
:1008F00021F000510843C6F89000380108D5D4F81B
:100900008800D6F88C1021F000710843C6F88C00DE
:10091000F80008D5D4F88C00D6F88C1021F080614E
:100920000843C6F88C00B9F1000F02BF0AF08070CE
:1009300007F0007110EB010000F08280306820F0B9
:1009400080603060FFF7CCFD0546306800010BD5B4
:10095000FFF7C6FD401B6428F7D9EEE000380240DF
:1009600000700040FFFCFF0F2068C10712D0616BD0
:1009700081B9D6F88410D6F8842001F4403102F011
:1009800070621144D4E9012341EA821141EA037102
:10099000C6F88410010303D5E16BB1F5801F05D0C3
:1009A000C1021DD5216CB1F5800F19D1D6F8841084
:1009B000D6F8842001F4403102F0E042114462682C
:1009C000E36841EA821141EA0361656AC6F884106E
:1009D000691ED6F88C2022F01F021143C6F88C1035
:1009E000C10110D5D6F88410D6F8842001F07061CA
:1009F00002F0E04211446268236941EA821141EA4F
:100A00000341C6F8841080010AD5231D0FCB1B04B7
:100A100043EA801040EA026040EA0170C6F88400B0
:100A2000306840F080603060FFF75AFD054630685E
:100A3000000105D4FFF754FD401B6428F7D97CE082
:100A400017F0080008BFB8F1000F79D0306820F027
:100A500080503060FFF744FD05463068800005D5C2
:100A6000FFF73EFD401B6428F7D966E020680103CC
:100A700001D5E16B19B1C1021ED5216CE1B9D6F8DF
:100A80008810D6F8882001F4403102F0E042114489
:100A9000A56AD4E9052341EA821141EA0361C6F857
:100AA00088106FF0FF01D6F88C2001EB052122F4AD
:100AB000F8521143C6F88C10810214D5E16FB1F1E0
:100AC000006F10D1D6F88810D6F8882001F0706138
:100AD00002F0E04211446269236A41EA821141EA6C
:100AE0000341C6F88810000718D5D6F88800D6F854
:100AF000881000F0706001F4403108446169E269D7
:100B000040EA811040EA0270E36AC6F88800D6F82D
:100B10008C0020F440301843C6F88C00306840F058
:100B200080503060FFF7DCFC04463068800007D45A
:100B3000FFF7D6FC001B6528F7D30320BDE8FC8730
:100B40000020BDE8FC8700002DE9F041002800F0FE
:100B50008D80484F0446D7F80004884600F00F0007
:100B600088420DD2D7F8000420F00F0040EA0800B8
:100B7000C7F80004D7F8000400F00F00404575D115
:100B80002068810711D5410703D5B96841F4E051C8
:100B9000B960010703D5B96841F46041B960A16843
:100BA000BA6822F0F0021143B960C00727D060682C
:100BB000012803D13968890308D457E0396802282D
:100BC00002D1890102D451E089074FD5B96821F0DB
:100BD00003010843B860FFF783FC064641F28835FD
:100BE0006068B96801F00C01B1EB800F07D0FFF726
:100BF00077FC801BA842F3D90320BDE8F081D7F829
:100C0000000400F00F0040450DD9D7F8000420F093
:100C10000F0040EA0800C7F80004D7F8000400F00D
:100C20000F00404522D12068410705D5E168BA6828
:100C300022F4E0521143B960000706D52069B96873
:100C400021F4604141EAC000B86000F033F8B968AF
:100C5000094AC1F30311515CC840134908600748B1
:100C60000068FFF757FC0020BDE8F0810120BDE8D7
:100C7000F08100BF003802403A170008040000204D
:100C800009480A4900680968C1F38221084A515C91
:100C9000C84070470448054900680968C1F34231FB
:100CA000034A515CC84070470800002008380240E1
:100CB0004A17000810B5144C606800F00C000828B2
:100CC00004D0042814BF1148114810BD22682068C0
:100CD000400202F03F020E484FF000035CBF42F2B8
:100CE0000040C0F2F4002168C1F38811A0FB0101AB
:100CF000FFF79EFA21680222C1F3014102EB410194
:100D0000B0FBF1F010BD00BF043802400024F40035
:100D100040787D012DE9FC41002800F0DE8004468A
:100D20000078CF4EC0074BD0B06800F00C0004280C
:100D300006D13068800343D56068002840D1CCE0FC
:100D4000B06800F00C00082802D170684002F0D4AE
:100D5000606868B1B0F5803F06D03168B0F5A02F6B
:100D60001BD141F480203060306840F480301AE0BC
:100D7000306820F480303060306820F480203060AB
:100D8000FFF7AEFB05463068800319D5FFF7A8FBD7
:100D9000411B03206429F6D95FE121F480303060E3
:100DA000306820F480203060FFF79AFB05463068F9
:100DB000800305D4FFF794FB401B6428F7D91BE19F
:100DC000207880072DD5B06810F00C0F07D0B068E0
:100DD00000F00C00082809D17068400206D4306881
:100DE000800717D5E068012814D076E03068E16804
:100DF000002900F0C58040F001003060FFF770FB73
:100E000005463068800705D4FFF76AFB401B0228BF
:100E1000F7D9F1E02069316821F0F80141EAC0001A
:100E200030602078000720D5706F616971B140F0A3
:100E300001007067FFF754FB0546706F800714D4FC
:100E4000FFF74EFB401B0228F7D9D5E020F0010048
:100E50007067FFF745FB0546706F800705D5FFF704
:100E60003FFB401B0228F7D9C6E02078400737D463
:100E7000A769002F00F0F080B06800F00C0008288F
:100E800061D17068012F28D0E16900F480028A42A4
:100E900023D1216A00F03F028A421ED147F6C07179
:100EA000626A0140B1EB821F17D1A16A4FF6FF724F
:100EB000C903914300F44032A1F580318A420CD13C
:100EC000E16A00F07062B2EB016F06D1216B00F0B5
:100ED000E040B0EB017F00F0BF800120BDE8FC8165
:100EE000306CC0000BD4306C4FF0010840F08050E3
:100EF0003064306C00F080500190019801E04FF0B8
:100F00000008584F3868C0050FD4386840F4807026
:100F10003860FFF7E5FA05463868C00505D4FFF7E5
:100F2000DFFA401B6428F7D966E0A068C8B301283F
:100F300005D0316F05284BD141F004003067306F88
:100F400040F001004AE0306820F080703060FFF728
:100F5000C7FA0546022F09D13068800158D5FFF73E
:100F6000BFFA411B03200229F6D976E030688001E0
:100F700072D5FFF7B5FA411B03200229F6D96CE0C0
:100F800020F001003060FFF7ABFA054630688007BB
:100F90007FF547AFFFF7A4FA411B03200229F5D9DB
:100FA0005BE0306F20F001003067306F20F004000C
:100FB0003067FFF795FA054641F28837306F8007B2
:100FC0001DD5FFF78DFA411B0320B942F6D944E045
:100FD00021F001003067306F20F004003067FFF728
:100FE0007FFA054641F28837306F800707D4FFF754
:100FF00077FA401BB842F7D90320BDE8FC81B8F16D
:10100000000F3FF435AF306C20F0805030642FE794
:1010100004F11C05246B2FCD0843D90340EA82104C
:101020004FF6FF72914340EA0560A1F58031084315
:1010300040EA04707060306840F080703060FFF704
:101040004FFA04463068800106D4FFF749FA011BC5
:1010500003200229F6D900E00020BDE8FC8100BF92
:101060000038024000700040411E0020B0EB116FBC
:1010700001D001207047044AF023516003490B70EE
:10108000072190601160704710E000E023ED00E060
:1010900010B5A0B10446806F28B9002084F8740010
:1010A000204600F025F82420A0672068016821F080
:1010B00001010160204600F0E3F9012801D101207F
:1010C00010BD606A10B1204600F054F920684168F4
:1010D00021F490414160816821F02A01816001681A
:1010E00041F0010101602046BDE8104000F097B9D1
:1010F000FEB56648416941F010014161416901F066
:10110000100101910199016841F00101016001A9FB
:10111000006800F001000090072005900320049073
:1011200000200390022002904FF4C06001900098CC
:101130000248FFF703F906B080BD00BF000002407F
:101140002DE9FC470446806F20280AD10D46012076
:1011500000295FD01646002A5CD094F8740001285C
:1011600002D10220BDE8FC874FF0000A0120C4F83C
:1011700080A0994684F874002120A067FFF7B0F999
:10118000A4F852608046A4F85060A068B0F5805F73
:1011900006D127690026002F0CBF2E462F4601E0FE
:1011A0002F46002684F874A0B4F85200D8B1204627
:1011B000802100224346CDF8009000F029FAD8B9EA
:1011C00027B117F8010B2168886206E036F8021B88
:1011D000206800276FF35F218162B4F85200013864
:1011E000A4F85200E0E72046402100224346CDF813
:1011F000009000F00DFA10B10320BDE8FC8720201C
:101200000121A06722480122FFF764F91920FFF7A6
:1012100085F80020BDE8FC87FEE7000010B586B029
:1012200000211A4805911A4C026842F080020260BF
:10123000026802F080020092009A026842F0010205
:101240000260026802F001020092009A026842F015
:1012500002020260006800F0020000900098049111
:10126000012001A9CDE90200032001902046FFF7EB
:1012700065F8204601210022FFF72CF920460221C3
:101280000022FFF727F906B010BD00BF303802403A
:101290000004024010B508480C2100224FF4E1334D
:1012A000D64CC0E90043C0E90222C0E904218261B2
:1012B000BDE81040FFF7ECBE10000020FEE77047CD
:1012C00070477047FFF710B9F0B5B7B02AAD3021BD
:1012D000281DFEF7E5FF01AC8C21201DFEF7E0FF85
:1012E0001E4802270168002641F080510160006815
:1012F00000F08050259025981948016841F440413C
:101300000160006800F440402590C820CDE93477A2
:101310003390082032901020CDE930762E900120B5
:101320002D902A9725982846FFF7F4FCFFF754F9EB
:101330004FF48050062129904FF4A05028900F20A0
:10134000CDE92676259025A8FFF7FEFB40201296D2
:1013500001902046FFF774F937B0F0BD40380240E5
:10136000007000400248016841F47001016070475C
:1013700088ED00E010B5416ACA0706D00268836AAA
:10138000546824F40034234353608A0706D5026866
:10139000C36A546824F48034234353604A0706D553
:1013A0000268036B546824F48024234353600A07C3
:1013B00006D50268436B546824F400442343536009
:1013C000CA0606D50268836B946824F480542343CC
:1013D00093608A0606D50268C36B946824F40054AF
:1013E000234393604A0610D50268036C5468B3F532
:1013F000801F24F4801444EA0304546005D1436C34
:10140000546824F4C00423435360090606D50168D8
:10141000806C4A6822F400221043486010BDBCB5BD
:1014200004460020C4F88000FFF75AF805462068FB
:10143000016809070BD56FF07E404FF40011009052
:10144000204600222B4600F0E3F870B920680068BF
:1014500040070CD56FF07E404FF48001009020468D
:1014600000222B4600F0D4F808B10320BCBD202098
:10147000A067E067002084F874002066BCBD00000F
:1014800070B50446006804F10803544E0ECB05689D
:1014900035406669194341EA0603E1690B432B4372
:1014A0000360436823F440531A434260A269236AED
:1014B0001A43836823F430631A438260484A904297
:1014C00018D0484A904219D0474A90421AD0474A09
:1014D00090421BD0464A90421CD0464A90421DD0B2
:1014E000454A904240D0454A904242D14448464AFB
:1014F000006817E042480068800812E04048006831
:1015000000090EE03E48006880090AE03C48006897
:10151000000A06E03A480068000B02E0384800681C
:10152000800B384A00F0030052F820203748B1F50C
:10153000004F0CD10121082A4AD8DFE802F0051C2F
:1015400025491F4949492300FFF79AFB18E001216B
:10155000082A3DD8DFE802F005262F3C293C3C3C18
:101560002D00FFF78DFB22E02548274A0068800AFE
:10157000D8E71022DAE7FFF78DFB01E0FFF79AFBCF
:1015800010B922E04FF4004061684A0802EB4000C5
:10159000B0FBF1F04FF6F071014018D0C0F34200FB
:1015A000084310E0FFF776FB01E0FFF783FB10B97B
:1015B0000BE04FF40040616800EB5100B0FBF1F02C
:1015C00080B2102803D32168C860002100E0012107
:1015D0000020C4E91900084670BD00BFF369FFEFA1
:1015E0000044004000480040004C004000500040D3
:1015F00000780040007C00400014014000100140D1
:101600009038024064170008541700080024F400C2
:101610002DE9F843DDF82090984616460F4604461B
:10162000016809F10105C8693840C01BB0FA80F0B3
:101630004009B04223D1002DF5D0FEF751FF2168BB
:10164000B9F1000F0A681DD0A0EB0800484519D871
:10165000500744BFC8695FEA0050E4D54FF400600A
:101660000862086820F4D0700860886820F00100E3
:1016700088602020A067E06704F180000DE0002072
:10168000BDE8F88322F4D0700860886820F001007B
:1016900088602020A06704F17C00002184F8741089
:1016A000202101600320BDE8F883FEE710B500F0BB
:1016B0000F03064C2344044AB0F1FF3FC8BF831810
:1016C0000801187010BD00BF00E400E014ED00E058
:1016D00084B0FEF713FFFFF7F7FDFFF79FFDFFF75D
:1016E000D9FD09480C4C009007A0D0E90112C06850
:1016F0006D46CDE90112039020462946102264234D
:10170000FFF71EFDF8E700BF756172745F315F720D
:1017100065616479200D0A001000002002E008C80D
:10172000121F08C1002AFAD170477047002001E05B
:1017300001C1121F002AFBD1704700000000000009
:10174000000001020304060708090000000001026E
:10175000030400000100000004000000020000007B
:10176000080000000000000004000000020000006B
:10177000080000009817000800000020100000007A
:101780001C170008A817000810000020880400009B
:101790002C170008000000000100000010000000ED
:0817A0000024F4000000000029
:04000005080001F9F5
:00000001FF
