:020000040800F2
:10000000380500200D020008871C0008C51A0008EA
:10001000851C000845030008872200080000000036
:100020000000000000000000000000008B1C000821
:100030004703000800000000891C0008B51C0008E8
:1000400027020008270200082702000827020008EC
:1000500027020008270200082702000827020008DC
:1000600027020008270200082702000827020008CC
:1000700027020008270200082702000827020008BC
:1000800027020008270200082702000827020008AC
:10009000270200082702000827020008270200089C
:1000A000270200082702000827020008270200088C
:1000B000270200082702000827020008270200087C
:1000C000270200082702000827020008270200086C
:1000D000270200082702000827020008270200085C
:1000E000270200082702000827020008270200084C
:1000F000270200082702000827020008270200083C
:1001000027020008270200086D1D000827020008CA
:100110002702000827020008791D000827020008AE
:10012000270200082702000827020008270200080B
:1001300027020008270200082702000827020008FB
:1001400027020008270200082702000827020008EB
:1001500027020008270200082702000827020008DB
:1001600027020008270200082702000827020008CB
:1001700027020008270200082702000800000000EC
:1001800027020008270200082702000827020008AB
:10019000270200082702000827020008270200089B
:1001A000270200082702000827020008270200088B
:1001B000270200082702000827020008270200087B
:1001C000270200082702000800000000270200089C
:1001D000270200082702000827020008270200085B
:1001E000270200082702000827020008270200084B
:1001F0002702000827020008DFF80CD000F090F872
:1002000000480047D92200083805002006488047EA
:1002100006480047FEE7FEE7FEE7FEE7FEE7FEE7EB
:10022000FEE7FEE7FEE7FEE75D1D0008F9010008B6
:100230002DE9F05F0546002092469B46884606461B
:10024000814640241BE0284641464746224600F0AE
:1002500057F853465A46C01A914110D311461846D2
:10026000224600F03EF82D1A67EB01084F46224661
:100270000120002100F035F817EB00094E41201E47
:10028000A4F10104DFDC484631462A464346BDE876
:10029000F09FD2B201E000F8012B491EFBD270475B
:1002A0000022F6E710B513460A4604461946FFF742
:1002B000F0FF204610BD30B50B460146002020223D
:1002C000012409E021FA02F59D4205D303FA02F563
:1002D000491B04FA02F52844151EA2F10102F1DCC3
:1002E00030BD202A04DB203A00FA02F100207047DA
:1002F0009140C2F1200320FA03F319439040704764
:10030000202A04DB203A21FA02F00021704721FA6A
:1003100002F3D040C2F120029140084319467047D1
:10032000064C074D06E0E06840F0010394E8070042
:1003300098471034AC42F6D3FFF762FF342500082B
:1003400054250008FEE77047B0B5084D044628461E
:1003500000F0A4FF286800214162416AA142FCD359
:100360000248BDE8B04000F0D9BF00BF60000020E7
:1003700070470000B0B5044600F0E6F805468D4829
:100380000078611C18BF044400F0DEF8401BA04256
:10039000FAD3B0BD2DE9FC4F5E4A0A2490425E4A72
:1003A000024408BF09244FEAB2234FF0000B092B87
:1003B00038BF4FEAB2244FF0010A4FF0000C002280
:1003C0000094BCF1200F00F0A3800AFA02F60B683B
:1003D000334200F097804F68122F1BD80AFA07F3B8
:1003E00013F0061F16D00323846803FA0CF3D1F828
:1003F0000CE09C430EFA0CF52C436FEA030E84606C
:10040000C7F3001445689440B5434FEA42092C43B2
:10041000446005E00323E14603FA0CF36FEA030EA0
:10042000C5688C6805EA0E0504FA09F42C43C4601B
:1004300047F01004122C12D10BF01C040F2303FA06
:1004400004F56FF0030303EA52070744D7F820804E
:100450000B6928EA0505A3402B433B624F680368FC
:1004600007F0030403EA0E0304FA09F423430360CC
:10047000FB0047D52B4B22F003051C461B6843F4B9
:100480008043264F2360BE4623683D4403F48043E7
:100490000F2401930BF00C03019F9C40224FB846A0
:1004A000EF5927EA0404009F07FA03F3234345F8B2
:1004B0000830DEF800304D6843EA0604EF0358BF09
:1004C00023EA0604CEF80040DEF80430AF0343EA26
:1004D000060458BF23EA0604CEF80440DEF80830CC
:1004E000EF0243EA060458BF23EA0604CEF80840A8
:1004F0000B4BAD021F461B6843EA060458BF23EAB4
:1005000006043C600BF1040B0CF1020C013258E7BD
:10051000BDE8FC8F002402400000FEBF003C01400B
:100520000C3C01404438024008FCFFFF426902EAEB
:100530000103914341EA034181617047002A08BFEA
:10054000090481617047000005480068704700BFDA
:100550001848034900780A6810440860704700BFD3
:100560003001002080B5032000F068F8002000F082
:1005700005F800F023F8002080BD000070B50D4E96
:10058000044630784FF47A71B1FBF0F00A490968FB
:10059000B1FBF0F000F0AAFD01250F2C08D838B906
:1005A0004FF0FF3021460022002500F02BF8746048
:1005B000284670BD040000200C00002082B0404896
:1005C000016841F080510160016801F080510191A2
:1005D0000199416841F480414160406800F48040E5
:1005E0000090009802B07047002808D400F01F0166
:1005F000012202FA01F14009014A42F82010704735
:1006000000E100E0B0B5134B4FF0FF351B68C3F3BA
:100610000223DC1E83F0070338BF0024042B28BF0D
:10062000042305FA03F3994305FA04F3A1409A431E
:100630001143BDE8B04001F027BE00BF05494FF6A9
:10064000FF030A681A4060F30A2203481043086057
:10065000704700BF0CED00E00000FA05BCB518487B
:10066000E04D016841F080510160006800F0805069
:1006700001900198286840F480302860FFF764FFFB
:1006800004466868C00306D4FFF75EFF001BB0F5A0
:100690007A7FF6D90FE0286840F400302860FFF731
:1006A00053FF04466868800307D4FFF74DFF001B23
:1006B000B0F57A7FF6D90320BCBD0020BCBD00BFD9
:1006C000403802402DE9FC47D0F800A004465FEA1C
:1006D000CA70C34E02D14FF000090BE0B06820F49D
:1006E0000000B060606BB1680143B0FA80F04FEA7F
:1006F0005019B1605FEA0A3002D44FF0000811E0EF
:10070000E06BD6F88C1021F44011B0F5801F41EA5F
:100710000001B0FA80F04FEA5018C6F88C1008BFFC
:100720004FF001095FEACA2011D5206CD6F88C1071
:1007300021F44001002841EA0001C6F88C1008BFEE
:100740004FF00108B0F5800F08BF4FF001095FEAD4
:100750008A60574653D5306CA24F40F080503064C9
:10076000306C00F0805001900198386840F480703F
:100770003860FFF7E9FE05463868C00505D4FFF785
:10078000E3FE401B6428F7D919E2306F10F4407083
:1007900022D0216B01F4407188421DD0306F316F3F
:1007A00041F4803120F440703167316F21F48031A1
:1007B00031673067306FC0070ED0FFF7C5FE0546C2
:1007C00041F28837306F800706D4FFF7BDFE411B2A
:1007D0000320B942F6D9F3E12768206BB268824959
:1007E00022F4F81200F440730140B3F5407F08BFD3
:1007F0000A43B2606FF31F30316F08433067F80669
:100800000BD5D6F88C0020F08070C6F88C00A06B59
:10081000D6F88C100843C6F88C00780407D5606EB3
:10082000D6F8901021F440310843C6F890003804FF
:1008300007D5A06ED6F8901021F440210843C6F8E1
:100840009000F80307D5E06ED6F8901021F440111F
:100850000843C6F89000B80307D5206FD6F890106B
:1008600021F440010843C6F89000780607D5606C73
:10087000D6F8901021F003010843C6F8900038061E
:1008800007D5A06CD6F8901021F00C010843C6F8EB
:100890009000F80507D5E06CD6F8901021F03001F3
:1008A0000843C6F89000B80507D5206DD6F890101B
:1008B00021F0C0010843C6F89000780507D5606DA7
:1008C000D6F8901021F440710843C6F8900038051E
:1008D00007D5A06DD6F8901021F440610843C6F802
:1008E0009000F80407D5E06DD6F8901021F440513F
:1008F0000843C6F89000B80407D5206ED6F89010CB
:1009000021F440410843C6F89000780207D5A06F53
:10091000D6F8901021F080610843C6F89000B80224
:100920000DD5E06FD6F8901021F00061B0F1006FA6
:1009300041EA0001C6F8901008BF4FF001087803A3
:1009400007D5606FD6F8901021F040710843C6F8C3
:100950009000380208D5D4F88000D6F8901021F025
:1009600080510843C6F89000780108D5D4F8840077
:10097000D6F8901021F000510843C6F890003801D5
:1009800008D5D4F88800D6F88C1021F000710843FF
:10099000C6F88C00F80008D5D4F88C00D6F88C1076
:1009A00021F080610843C6F88C00B9F1000F02BF46
:1009B0000AF0807007F0007110EB010000F08280F7
:1009C000306820F080603060FFF7BEFD054630687B
:1009D00000010BD5FFF7B8FD401B6428F7D9EEE006
:1009E0000038024000700040FFFCFF0F2068C10784
:1009F00012D0616B81B9D6F88410D6F8842001F446
:100A0000403102F070621144D4E9012341EA8211BD
:100A100041EA0371C6F88410010303D5E16BB1F517
:100A2000801F05D0C1021DD5216CB1F5800F19D1F1
:100A3000D6F88410D6F8842001F4403102F0E04268
:100A400011446268E36841EA821141EA0361656A20
:100A5000C6F88410691ED6F88C2022F01F021143BC
:100A6000C6F88C10C10110D5D6F88410D6F88420B1
:100A700001F0706102F0E04211446268236941EACA
:100A8000821141EA0341C6F8841080010AD5231D72
:100A90000FCB1B0443EA801040EA026040EA017079
:100AA000C6F88400306840F080603060FFF74CFD8D
:100AB00005463068000105D4FFF746FD401B642859
:100AC000F7D97CE017F0080008BFB8F1000F79D023
:100AD000306820F080503060FFF736FD0546306802
:100AE000800005D5FFF730FD401B6428F7D966E08C
:100AF0002068010301D5E16B19B1C1021ED5216C3B
:100B0000E1B9D6F88810D6F8882001F4403102F017
:100B1000E0421144A56AD4E9052341EA821141EA81
:100B20000361C6F888106FF0FF01D6F88C2001EB46
:100B3000052122F4F8521143C6F88C10810214D515
:100B4000E16FB1F1006F10D1D6F88810D6F8882087
:100B500001F0706102F0E04211446269236A41EAE7
:100B6000821141EA0341C6F88810000718D5D6F86B
:100B70008800D6F8881000F0706001F44031084415
:100B80006169E26940EA811040EA0270E36AC6F8EE
:100B90008800D6F88C0020F440301843C6F88C004A
:100BA000306840F080503060FFF7CEFC044630687B
:100BB000800007D4FFF7C8FC001B6528F7D303208B
:100BC000BDE8FC870020BDE8FC8700002DE9F0416E
:100BD000002800F08D80484F0446D7F8000488466E
:100BE00000F00F0088420DD2D7F8000420F00F006B
:100BF00040EA0800C7F80004D7F8000400F00F002E
:100C0000404575D12068810711D5410703D5B968E2
:100C100041F4E051B960010703D5B96841F460417E
:100C2000B960A168BA6822F0F0021143B960C00748
:100C300027D06068012803D13968890308D457E0B8
:100C40003968022802D1890102D451E089074FD5C1
:100C5000B96821F003010843B860FFF775FC064648
:100C600041F288356068B96801F00C01B1EB800F82
:100C700007D0FFF769FC801BA842F3D90320BDE829
:100C8000F081D7F8000400F00F0040450DD9D7F8E7
:100C9000000420F00F0040EA0800C7F80004D7F86D
:100CA000000400F00F00404522D12068410705D51F
:100CB000E168BA6822F4E0521143B960000706D532
:100CC0002069B96821F4604141EAC000B86000F0D1
:100CD00033F8B968094AC1F30311515CC84013499C
:100CE000086007480068FFF749FC0020BDE8F08174
:100CF0000120BDE8F08100BF00380240FC2400085C
:100D00000800002009480A4900680968C1F38221E7
:100D1000084A515CC84070470448054900680968A2
:100D2000C1F34231034A515CC84070470C000020B7
:100D3000083802400C25000810B5144C606800F01B
:100D40000C00082804D0042814BF1148114810BD15
:100D500022682068400202F03F020E484FF0000374
:100D60005CBF42F20040C0F2F4002168C1F3881178
:100D7000A0FB0101FFF75CFA21680222C1F30141E7
:100D800002EB4101B0FBF1F010BD00BF043802409E
:100D90000024F40040787D012DE9FC41002800F09A
:100DA000DE8004460078CF4EC0074BD0B06800F01C
:100DB0000C00042806D13068800343D56068002801
:100DC00040D1CCE0B06800F00C00082802D1706877
:100DD0004002F0D4606868B1B0F5803F06D0316859
:100DE000B0F5A02F1BD141F480203060306840F472
:100DF00080301AE0306820F480303060306820F4B1
:100E000080203060FFF7A0FB05463068800319D5CD
:100E1000FFF79AFB411B03206429F6D95FE121F417
:100E200080303060306820F480203060FFF78CFB29
:100E300005463068800305D4FFF786FB401B642815
:100E4000F7D91BE1207880072DD5B06810F00C0F82
:100E500007D0B06800F00C00082809D17068400283
:100E600006D43068800717D5E068012814D076E0F2
:100E70003068E168002900F0C58040F00100306072
:100E8000FFF762FB05463068800705D4FFF75CFB7F
:100E9000401B0228F7D9F1E02069316821F0F80100
:100EA00041EAC00030602078000720D5706F61698A
:100EB00071B140F001007067FFF746FB0546706FA7
:100EC000800714D4FFF740FB401B0228F7D9D5E078
:100ED00020F001007067FFF737FB0546706F800751
:100EE00005D5FFF731FB401B0228F7D9C6E0207873
:100EF000400737D4A769002F00F0F080B06800F0F9
:100F00000C00082861D17068012F28D0E16900F435
:100F100080028A4223D1216A00F03F028A421ED118
:100F200047F6C071626A0140B1EB821F17D1A16A16
:100F30004FF6FF72C903914300F44032A1F58031AE
:100F40008A420CD1E16A00F07062B2EB016F06D107
:100F5000216B00F0E040B0EB017F00F0BF8001208A
:100F6000BDE8FC81306CC0000BD4306C4FF0010840
:100F700040F080503064306C00F080500190019857
:100F800001E04FF00008584F3868C0050FD43868AA
:100F900040F480703860FFF7D7FA05463868C0051E
:100FA00005D4FFF7D1FA401B6428F7D966E0A068A2
:100FB000C8B3012805D0316F05284BD141F004009A
:100FC0003067306F40F001004AE0306820F08070F8
:100FD0003060FFF7B9FA0546022F09D13068800169
:100FE00058D5FFF7B1FA411B03200229F6D976E064
:100FF0003068800172D5FFF7A7FA411B0320022950
:10100000F6D96CE020F001003060FFF79DFA05464C
:10101000306880077FF547AFFFF796FA411B032042
:101020000229F5D95BE0306F20F001003067306FA6
:1010300020F004003067FFF787FA054641F2883751
:10104000306F80071DD5FFF77FFA411B0320B9429F
:10105000F6D944E021F001003067306F20F0040041
:101060003067FFF771FA054641F28837306F800725
:1010700007D4FFF769FA401BB842F7D90320BDE84F
:10108000FC81B8F1000F3FF435AF306C20F0805098
:1010900030642FE704F11C05246B2FCD0843D903DE
:1010A00040EA82104FF6FF72914340EA0560A1F5D5
:1010B0008031084340EA04707060306840F080700E
:1010C0003060FFF741FA04463068800106D4FFF72C
:1010D0003BFA011B03200229F6D900E00020BDE8FD
:1010E000FC8100BF0038024000700040411E00201B
:1010F000B0EB116F01D001207047044AF02351601A
:1011000003490B70072190601160704710E000E008
:1011100023ED00E0704770477047000070B590F80D
:101120003C300222012B30D080F83D20012280F893
:101130003C20784C0268556842F480669368A64269
:1011400002BF25F470054E683543B2F1804F0E683A
:1011500025F0700545EA060555600BD0684DAA429A
:101160001CBF684DAA4205D0D74DAA421CBF664D90
:10117000AA420CD123F080038968194391600022B0
:10118000012180F83C2080F83D10104670BD5F4D75
:10119000AA42EFD05E4DAA4218BFA242EAD0EEE7C3
:1011A00060B310B5044690F83D0028B9002084F8DB
:1011B0003C00204600F024F80220211D84F83D0068
:1011C000206800F0DFFD012084F8480084F83E002C
:1011D00084F83F0084F8400084F8410084F842001D
:1011E00084F8430084F8440084F8450084F84600FD
:1011F00084F8470084F83D00002010BD01207047AE
:1012000010B586B0044601A81421FFF749F82068FC
:101210001F49884228D0AC49884237D11D4801690E
:1012200041F008010161016901F008010091009994
:10123000016841F0010101600021006800F0010037
:101240000090022005900491CDE90201012001A93E
:10125000019000981048FFF79DF8322000210022ED
:10126000FFF7D0F932200FE00A480022016941F06F
:10127000100101610021006900F010000090009849
:101280003620FFF7BFF93620FFF7AEF906B010BDE4
:1012900000100040303802400000024090F83D103D
:1012A00001291CD1022180F83D100168B1F1804F65
:1012B0000BD0134881421CBF1248814205D082489E
:1012C00081421CBF104881420BD18868124A0240FB
:1012D0000020062A18BFB2F5803F0BD170470120CD
:1012E00070470A488142F0D009488142EDD0094850
:1012F0008142EAD0086840F0010008600020704791
:1013000000040040000800400018004000000140B8
:10131000004001400004014007000100016841F263
:1013200011130A6A1A4208D10A6A40F244431A4267
:1013300003D10A6822F001020A60012180F83D1001
:1013400000207047B0B590F83C2004460220012AE6
:1013500020D084F83D00012084F83C00364D206800
:10136000024652F8083F2B4013600B682BB1102B3C
:1013700003D0202B18BF302B0DD1106820F0700047
:10138000184340F0070010600020012184F83C0061
:1013900084F83D10B0BD402B17D0502B22D0602BCD
:1013A0002DD0B3F5005F37D0702BEDD1D1E901031B
:1013B000C968184340EA0120116821F47F410843BD
:1013C0001060106840F07700DDE74B68CA68194686
:1013D00000F045FD226852F8080F40F0470020F069
:1013E0003000D0E74B68CA68194600F038FD226823
:1013F00052F8080F40F0570020F02000C3E74B6878
:10140000CA68194600F07AFD226852F8080F40F0C9
:10141000670020F01000B6E7D1E90103C96818435E
:1014200040EA0120116821F47F41084310601068F0
:1014300040F48040A7E700BF8800FEFFB0B5044637
:101440001CA000F091FF2068C649884200D0B0BDC2
:101450001E4C207868B1201D0021002500F056FAAE
:1014600061680A6A22F00A020A626080086A0862F9
:101470001DE0606841F21112016A114208D1016A4F
:1014800040F24442114203D1016821F001010160A0
:10149000002101254162016A21F00A010162016A0D
:1014A00041F002010162016841F001010160257013
:1014B000B0BD00BF4341505455524520537563633E
:1014C0006573732100000000000C00401000002034
:1014D000F8B5044690F83C00012801D10220F8BD7F
:1014E0000D460120042A84F83C000AD09AB9D5E9B7
:1014F0000012EB68206800F0C3FC216851F8180F57
:1015000025E0D5E90012EB68206800F008FD2168AD
:1015100051F8180F39E0D5E900362068E968076A04
:10152000082A19D127F4807261F307160262014676
:1015300051F81C2F22F0F3023243066A0A6003F0CE
:101540000A0226F4206343EA02220262086820F0BD
:101550000C000860AA681DE027F480520262320283
:101560004FF2FF06B24361F30F32014651F81C6F90
:1015700026F473463243066A0A6003F00A0226F430
:10158000204343EA02320262086820F440600860A7
:10159000A8680202002084F83C000B681A430A6025
:1015A000F8BD60B310B5044690F83D0028B900209E
:1015B00084F83C00204600F024F80220211D84F825
:1015C0003D00206800F0DEFB012084F8480084F82C
:1015D0003E0084F83F0084F8400084F8410084F81D
:1015E000420084F8430084F8440084F8450084F8FD
:1015F000460084F8470084F83D00002010BD01201B
:101600007047704710B5044659B1081F4FEAB00043
:1016100003280BD8DFE800F0020D101304F13F009F
:101620000FE094F83E2004F1440017E004F1430079
:1016300007E004F1400004E004F1410001E004F19E
:1016400042000278082904D0042905D104F145009C
:1016500004E004F1460001E004F1470003780120B2
:10166000012A08BF012B67D161B1081F4FEAB00002
:1016700003280DD8DFE800F002101418022084F8C7
:101680003F0014E0022084F83E0084F844001BE090
:10169000022084F843000AE0022084F8400006E0BB
:1016A000022084F8410002E0022084F84200022077
:1016B000082904D0042905D184F8450004E084F801
:1016C000460001E084F847004FEAB100032834D80F
:1016D000DFE800F002070C112068C26842F0020245
:1016E0000DE02068C26842F0040208E02068C26889
:1016F00042F0080203E02068C26842F01002C260B3
:10170000012200F09DFB2168B1F1804F0BD01348FE
:1017100081421CBF1248814205D0124881421CBF41
:10172000114881420BD18868134A02400020062AE2
:1017300018BFB2F5803F0BD110BD2068E0E70B4821
:101740008142F0D00A488142EDD00A488142EAD075
:10175000086840F001000860002010BD000400404F
:1017600000080040000C004000180040000001404C
:1017700000400140000401400700010010B504468C
:1017800000680169890744BFC1685FEA817140D47C
:101790000169490744BFC1685FEA417145D40169E5
:1017A000090744BFC1685FEA01714BD40169C906EA
:1017B00044BFC1685FEAC16150D40169C9071CBF59
:1017C000C1685FEAC17156D10169090644BFC168A9
:1017D0005FEA016157D40169C90544BFC1685FEA86
:1017E000016158D40169490644BFC1685FEA41619B
:1017F00059D40169890644BFC1685FEA816100D498
:1018000010BD6FF0200101612046BDE81040FFF7D8
:1018100083BC6FF00201016101212177806980079B
:1018200049D02046FFF70AFE4BE06FF0040101614A
:1018300002212177806910F4407F46D02046FFF7CF
:10184000FDFD48E06FF00801016104212177C069C6
:10185000800744D02046FFF7F1FD46E06FF010010D
:10186000016108212177C06910F4407F41D02046F2
:10187000FFF7E4FD43E06FF001010161204600F055
:1018800044F82068A0E76FF0800101612046FFF76F
:1018900042FC20689FE76FF4807101612046FFF7EA
:1018A00039FC20689EE76FF040010161204600F09E
:1018B00044F820689DE7204600F025F8204600F017
:1018C00023F800202077206862E7204600F01BF80C
:1018D000204600F019F80020207720685FE72046B6
:1018E00000F011F8204600F00FF800202077206863
:1018F0005CE7204600F007F8204600F005F80020DD
:101900002077206859E77047704770474FEAB10168
:10191000032906D8DFE801F002070A0D0068343019
:1019200009E0002070470068383004E000683C306F
:1019300001E00068403000687047704710B5A0B102
:101940000446806F28B9002084F87400204600F017
:1019500025F82420A0672068016821F001010160BA
:10196000204600F07BFB012801D1012010BD606AF8
:1019700010B1204600F0ECFA2068416821F4904153
:101980004160816821F02A018160016841F0010114
:1019900001602046BDE8104000F02FBB10B586B0B6
:1019A000044601A81421FEF77BFC2168B44881425B
:1019B00022D1674900F570404A6942F010024A613D
:1019C0004A6902F010020092009A0A6842F001028D
:1019D0000A60096801F001010091072105910321C6
:1019E000049100210391022102914FF4C061019101
:1019F000009901A9FEF7CEFC06B010BD2DE9FC4709
:101A00000446806F20280AD10D460120002957D0B6
:101A10001646002A54D094F87400012802D10220FE
:101A2000BDE8FC874FF0000A0120C4F880A0994669
:101A300084F874002120A067FEF786FDA4F85260A8
:101A40008046A4F85060A068B0F5805F06D1276991
:101A50000026002F0CBF2E462F4601E02F46002601
:101A600084F874A0B4F85200D8B120468021002236
:101A70004346CDF8009000F0B9FBD8B927B117F86C
:101A8000010B2168886206E036F8021B20680027F7
:101A90006FF35F218162B4F852000138A4F852005C
:101AA000E0E72046402100224346CDF8009000F0B8
:101AB0009DFB10B10320BDE8FC872020A06700201B
:101AC000BDE8FC87FEE70000F0B587B0002620489F
:101AD0000696204C0168002241F080010325016038
:101AE000016801F0800101910199016841F0010153
:101AF0000160016801F0010101910199016841F063
:101B0000020101600321006800F0020001900198C9
:101B10002046FEF713FD0127059604972046CDE9E0
:101B2000025702AD2946FEF735FC082004F5C054E3
:101B300005962946CDE9037702902046FEF72AFC58
:101B4000204608210022FEF7F9FC07B0F0BD00BFD7
:101B50003038024000040240B0B58CB0254CE24958
:101B600020464FF0FF3240F8041F002163230B9101
:101B7000CDE909118161C0E90131C0E90321CDE955
:101B80000711CDE90511CDE90311CDE90111FFF7E9
:101B900007FB08B1FEF7ECFB4FF4805004340890CB
:101BA00008A92046FFF7CEFB08B1FEF7E1FB20466F
:101BB000FFF7F7FC08B1FEF7DBFB002505A920467F
:101BC00007950595FFF7AAFA08B1FEF7D1FB0120AA
:101BD00001A9CDE90355CDE9015020460022FFF7C8
:101BE00077FC08B1FEF7C4FB20460021FFF70AFD91
:101BF0000CB0B0BD100000201FB5614800244FF6A6
:101C0000FF7163220C4B8461C0E90032C0E90241DC
:101C10000394CDE90144FFF7C3FA08B1FEF7A8FB2E
:101C2000102003940190564801A9FFF777FA08B1F4
:101C3000FEF79EFB1FBD00BF0010004010B50F480F
:101C40004FF400514FF480524FF4E133C0E90E21BC
:101C500030210022C0E908210C21094CC0E90043D1
:101C6000C0E90222C0E90421C0E90622FFF766FEAE
:101C700018B1BDE81040FEF77BBB10BDAC000020E2
:101C800000100140FEE7704770477047B0B5084D3F
:101C90000446284608210122FEF750FC2046FEF7A4
:101CA00053FB284608210022BDE8B040FEF746BCA1
:101CB000001C0240FEF74CBC70B5B6B029AD2C211B
:101CC00005F10800FEF7ECFA6C468C21201DFEF7AA
:101CD000E7FA20480226016841F08051016000685F
:101CE00000F08050249024981B48016841F4404142
:101CF0000160006800F440402490C020CDE93366C4
:101D000032900C2031904FF48000CDE92F604FF4D9
:101D100080302A900120299024982846FFF73CF82B
:101D2000FEF79CFC4FF48050002528904FF4A05003
:101D300027900F20CDE92565249024A80621FEF7E1
:101D400045FF4020119500902046FEF7BBFC36B0C1
:101D500070BD00BF4038024000700040024801687A
:101D600041F470010160704788ED00E00148FFF721
:101D700005BD00BF140000200148FFF7FFBC00BFF5
:101D800060000020B0B50268B0F1804F05D0544B20
:101D900098421CBF534B984235D122F070024B68D9
:101DA0001A43B0F1804F17D04D4B98421CBF4D4B9A
:101DB000984211D04C4B98421CBF4C4B98420BD0D0
:101DC0001B4B98421CBF1B4B984205D0484B984276
:101DD0001CBF494B984220D122F44072CB681A4371
:101DE0004D6922F080020B688C682A43026040F43F
:101DF0008062C4628362404B9A4204BF09690163F6
:101E000001214161B0BD384B9842C6D03A4B98424F
:101E1000C3D0374B9842C0D0C3E7364B9842DBD093
:101E2000054B9842D8D0054B9842D5D0D8E700BF93
:101E3000001C0040002000400048014000440140D8
:101E400010B501F01F0101238B40046A24EA03034B
:101E500002FA01F10362026A1143016210BD10B57A
:101E6000036A046A24F001040462846924F0F00423
:101E700044EA0212826123F00A021143016210BD9A
:101E800070B5046AB0F1804F24F0010404628569E2
:101E9000046A0BD0124EB0421CBF124EB04205D0A5
:101EA000114EB0421CBF114EB0420CD125F00305BB
:101EB0002A4363F3071201F00A01826124F00A0247
:101EC0001144016270BD0A4EB042EFD0094EB042DB
:101ED000ECD0094EB042E9D045F00102E9E700BF7D
:101EE0000004004000080040000C004000180040C2
:101EF000000001400040014000040140036A23F05B
:101F000010030362836923F4704343EA0232036AD5
:101F1000826123F0A00242EA01110162704710B50C
:101F2000046A120224F0100401F00A0104624FF264
:101F3000FF04A24363F30F32836923F473431A430C
:101F4000036A826123F0A00242EA0111016210BD1E
:101F500010B5416ACA0706D00268836A546824F43F
:101F60000034234353608A0706D50268C36A546865
:101F700024F48034234353604A0706D50268036B78
:101F8000546824F48024234353600A0706D502686A
:101F9000436B546824F4004423435360CA0606D5B7
:101FA0000268836B946824F48054234393608A0608
:101FB00006D50268C36B946824F4005423439360ED
:101FC0004A0610D50268036C5468B3F5801F24F4E8
:101FD000801444EA0304546005D1436C546824F42B
:101FE000C00423435360090606D50168806C4A6823
:101FF00022F400221043486010BDBCB50446002006
:10200000C4F88000FEF7A0FA0546206801680907B9
:102010000BD56FF07E404FF4001100902046002257
:102020002B4600F0E3F870B92068006840070CD533
:102030006FF07E404FF480010090204600222B4636
:1020400000F0D4F808B10320BCBD2020A067E067F1
:10205000002084F874002066BCBD000070B5044602
:10206000006804F10803544E0ECB056835406669DC
:10207000194341EA0603E1690B432B4303604368BC
:1020800023F440531A434260A269236A1A438368C7
:1020900023F430631A438260484A904218D0484A79
:1020A000904219D0474A90421AD0474A90421BD0DA
:1020B000464A90421CD0464A90421DD0454A904222
:1020C00040D0454A904242D14448464A006817E011
:1020D00042480068800812E04048006800090EE0AD
:1020E0003E48006880090AE03C480068000A06E0B3
:1020F0003A480068000B02E038480068800B384A14
:1021000000F0030052F820203748B1F5004F0CD101
:102110000121082A4AD8DFE802F0051C25491F4999
:1021200049492300FEF7EEFD18E00121082A3DD8B9
:10213000DFE802F005262F3C293C3C3C2D00FEF751
:10214000E1FD22E02548274A0068800AD8E71022EE
:10215000DAE7FEF7E1FD01E0FEF7EEFD10B922E05F
:102160004FF4004061684A0802EB4000B0FBF1F018
:102170004FF6F071014018D0C0F34200084310E060
:10218000FEF7CAFD01E0FEF7D7FD10B90BE04FF4F2
:102190000040616800EB5100B0FBF1F080B2102804
:1021A00003D32168C860002100E001210020C4E9B8
:1021B0001900084670BD00BFF369FFEF00440040FE
:1021C00000480040004C00400050004000780040B3
:1021D000007C004000140140001001409038024093
:1021E00024250008142500080024F4002DE9F843F4
:1021F000DDF82090984616460F460446016809F11E
:102200000105C8693840C01BB0FA80F04009B042EF
:1022100023D1002DF5D0FEF797F92168B9F1000F11
:102220000A681DD0A0EB0800484519D8500744BFE4
:10223000C8695FEA0050E4D54FF40060086208689E
:1022400020F4D0700860886820F0010088602020A9
:10225000A067E06704F180000DE00020BDE8F8838E
:1022600022F4D0700860886820F001008860202087
:10227000A06704F17C00002184F874102021016023
:102280000320BDE8F883FEE710B500F00F03064C0D
:102290002344044AB0F1FF3FC8BF831808011870F7
:1022A00010BD00BF00E400E014ED00E0BCB5094D36
:1022B00004468DF807000DF10701284601224FF46E
:1022C0007A73FFF79BFB2868C1690906FCD5204695
:1022D000BCBD00BFAC000020FEF744F9FFF7ECFCEA
:1022E000FFF7F2FBFFF738FCFFF786FCFFF7A6FCD1
:1022F000134C144EB3EE018B9FED0F9B12A520469D
:102300000121FEF713F91420FFF7C0FC308870B1EB
:1023100000EE100A2846B8EE400B20EE080B80EEC7
:10232000090BBDEEC00B10EE101A00F01DF8C8200E
:10233000FEF720F8E3E700BF0000000000408F40F8
:102340000004024012000020556C747261736F6EBD
:1023500069632064697374616E63653A2025642043
:10236000636D200D0A0000000FB4054B10B503A9E2
:10237000044A029800F018F810BC5DF814FB000045
:10238000AD2200080000002002E008C8121F08C1AA
:10239000002AFAD170477047002001E001C1121FE6
:1023A000002AFBD1704700002DE9FF4F89B09B4602
:1023B0000446002506E025280BD05A460B99904785
:1023C000641C6D1C20780028F5D10DB02846BDE8AE
:1023D000F08F0027B8460122474900E0074314F870
:1023E000013F203B02FA03F00842F7D120782E2863
:1023F00019D114F8010F47F004072A280ED06FF006
:102400002F022078A0F1300109290CD808EB8801AF
:1024100002EB410100EB0108641CF2E70A98641C1E
:1024200050F8048B0A9020780028CED0642808D079
:10243000692806D075281ED05A460B9990476D1C06
:1024400058E00A994FF00A0901C90A91002802DAF6
:1024500040422D2102E0390504D52B218DF82010B2
:10246000012103E0F90704D02021F7E78A4608AEEE
:102470000DE00021FAE70A994FF00A0901C90A9113
:10248000F7E74946FDF717FF303106F8011D002830
:10249000F7D1ADEB060000F12009780701D44FF029
:1024A0000108C84502DDA8EB090000E000208046D5
:1024B000002706E008A85A46C05D0B9990476D1C9E
:1024C0007F1C5745F6DB04E030205A460B999047B5
:1024D0006D1CB8F10001A8F10108F5DC05E016F863
:1024E000010B5A460B9990476D1CB9F10001A9F1F7
:1024F0000109F4DC641C65E7092801000000000004
:1025000000000000010203040607080900000000A3
:1025100001020304010000000400000002000000AA
:10252000080000000000000004000000020000009D
:1025300008000000582500080000002010000000DE
:1025400088230008682500081000002028050000E6
:1025500098230008000000000000000001000000B7
:08256000100000000024F4004B
:04000005080001F9F5
:00000001FF
