:020000040800F2
:10000000E80400200D020008B7140008E9130008F6
:10001000B514000819030008C71B00080000000001
:10002000000000000000000000000000E7140008CD
:100030001B03000800000000E5140008E914000894
:1000400027020008270200082702000827020008EC
:1000500027020008270200082702000827020008DC
:1000600027020008270200082702000827020008CC
:1000700027020008270200082702000827020008BC
:1000800027020008270200082702000827020008AC
:10009000270200082702000827020008270200089C
:1000A000270200082702000827020008270200088C
:1000B000270200082702000827020008270200087C
:1000C000270200082702000827020008270200086C
:1000D000270200082702000827020008270200085C
:1000E000270200082702000827020008270200084C
:1000F000270200082702000827020008270200083C
:10010000270200082702000827020008270200082B
:10011000270200082702000827020008270200081B
:10012000270200082702000827020008270200080B
:1001300027020008270200082702000827020008FB
:1001400027020008270200082702000827020008EB
:1001500027020008270200082702000827020008DB
:1001600027020008270200082702000827020008CB
:1001700027020008270200082702000800000000EC
:1001800027020008270200082702000827020008AB
:10019000270200082702000827020008270200089B
:1001A000270200082702000827020008270200088B
:1001B000270200082702000827020008270200087B
:1001C000270200082702000800000000270200089C
:1001D000270200082702000827020008270200085B
:1001E000270200082702000827020008270200084B
:1001F0002702000827020008DFF80CD000F07AF888
:1002000000480047ED1B0008E8040020064880472E
:1002100006480047FEE7FEE7FEE7FEE7FEE7FEE7EB
:10022000FEE7FEE7FEE7FEE791150008F90100088A
:100230002DE9F05F0546002092469B46884606461B
:10024000814640241BE0284641464746224600F0AE
:1002500041F853465A46C01A914110D311461846E8
:10026000224600F028F82D1A67EB01084F46224677
:100270000120002100F01FF817EB00094E41201E5D
:10028000A4F10104DFDC484631462A464346BDE876
:10029000F09FD2B201E000F8012B491EFBD270475B
:1002A0000022F6E710B513460A4604461946FFF742
:1002B000F0FF204610BD202A04DB203A00FA02F1AC
:1002C000002070479140C2F1200320FA03F3194344
:1002D00090407047202A04DB203A21FA02F00021E6
:1002E000704721FA02F3D040C2F120029140084346
:1002F00019467047064C074D06E0E06840F00103E0
:1003000094E8070098471034AC42F6D3FFF778FF23
:100310000C1D00082C1D0008FEE770477047000008
:10032000B0B5044600F0D8F8054686480078611C50
:1003300018BF044400F0D0F8401BA042FAD3B0BD6F
:100340002DE9FC4F5E4A0A2490425E4A024408BFEF
:1003500009244FEAB2234FF0000B092B38BF4FEAB4
:10036000B2244FF0010A4FF0000C00220094BCF1BF
:10037000200F00F0A3800AFA02F60B68334200F067
:1003800097804F68122F1BD80AFA07F313F0061F45
:1003900016D00323846803FA0CF3D1F80CE09C43D5
:1003A0000EFA0CF52C436FEA030E8460C7F30014B9
:1003B00045689440B5434FEA42092C43446005E048
:1003C0000323E14603FA0CF36FEA030EC5688C6859
:1003D00005EA0E0504FA09F42C43C46047F0100442
:1003E000122C12D10BF01C040F2303FA04F56FF04A
:1003F000030303EA52070744D7F820800B6928EA71
:100400000505A3402B433B624F68036807F00304D4
:1004100003EA0E0304FA09F423430360FB0047D503
:100420002B4B22F003051C461B6843F48043264FE8
:100430002360BE4623683D4403F480430F240193A8
:100440000BF00C03019F9C40224FB846EF5927EA5E
:100450000404009F07FA03F3234345F80830DEF84D
:1004600000304D6843EA0604EF0358BF23EA060450
:10047000CEF80040DEF80430AF0343EA060458BF6C
:1004800023EA0604CEF80440DEF80830EF0243EA1F
:10049000060458BF23EA0604CEF808400B4BAD0211
:1004A0001F461B6843EA060458BF23EA06043C6063
:1004B0000BF1040B0CF1020C013258E7BDE8FC8F84
:1004C000002402400000FEBF003C01400C3C014003
:1004D0004438024008FCFFFF05480068704700BF31
:1004E0001848034900780A6810440860704700BF44
:1004F000E000002080B5032000F05AF8002000F052
:1005000005F800F023F8002080BD000070B50D4E06
:10051000044630784FF47A71B1FBF0F00A4909686B
:10052000B1FBF0F000F09CFD01250F2C08D838B984
:100530004FF0FF3021460022002500F01DF87460C6
:10054000284670BD000000200800002082B0394815
:10055000016841F080510160016801F08051019112
:100560000199416841F480414160406800F4804055
:100570000090009802B07047B0B5134B4FF0FF35B4
:100580001B68C3F30223DC1E83F0070338BF00247B
:10059000042B28BF042305FA03F3994305FA04F357
:1005A000A1409A431143BDE8B04001F00DBB00BF2C
:1005B00005494FF6FF030A681A4060F30A22034810
:1005C00010430860704700BF0CED00E00000FA0522
:1005D000BCB51848E04D016841F0805101600068E9
:1005E00000F0805001900198286840F48030286025
:1005F000FFF772FF04466868C00306D4FFF76CFF7C
:10060000001BB0F57A7FF6D90FE0286840F400307F
:100610002860FFF761FF04466868800307D4FFF78E
:100620005BFF001BB0F57A7FF6D90320BCBD00202C
:10063000BCBD00BF403802402DE9FC47D0F800A007
:1006400004465FEACA70C34E02D14FF000090BE0C6
:10065000B06820F40000B060606BB1680143B0FA8C
:1006600080F04FEA5019B1605FEA0A3002D44FF0CF
:10067000000811E0E06BD6F88C1021F44011B0F5C1
:10068000801F41EA0001B0FA80F04FEA5018C6F826
:100690008C1008BF4FF001095FEACA2011D5206C09
:1006A000D6F88C1021F44001002841EA0001C6F878
:1006B0008C1008BF4FF00108B0F5800F08BF4FF055
:1006C00001095FEA8A60574653D5306CA24F40F06B
:1006D00080503064306C00F0805001900198386890
:1006E00040F480703860FFF7F7FE05463868C005B3
:1006F00005D4FFF7F1FE401B6428F7D919E2306FEB
:1007000010F4407022D0216B01F4407188421DD05A
:10071000306F316F41F4803120F440703167316FB8
:1007200021F4803131673067306FC0070ED0FFF79A
:10073000D3FE054641F28837306F800706D4FFF7B5
:10074000CBFE411B0320B942F6D9F3E12768206BA9
:10075000B268824922F4F81200F440730140B3F504
:10076000407F08BF0A43B2606FF31F30316F084308
:100770003067F8060BD5D6F88C0020F08070C6F8EC
:100780008C00A06BD6F88C100843C6F88C00780457
:1007900007D5606ED6F8901021F440310843C6F8B2
:1007A0009000380407D5A06ED6F8901021F44021AF
:1007B0000843C6F89000F80307D5E06ED6F890100D
:1007C00021F440110843C6F89000B80307D5206F04
:1007D000D6F8901021F440010843C6F8900078063E
:1007E00007D5606CD6F8901021F003010843C6F8D5
:1007F0009000380607D5A06CD6F8901021F00C01B7
:100800000843C6F89000F80507D5E06CD6F89010BC
:1008100021F030010843C6F89000B80507D5206DD7
:10082000D6F8901021F0C0010843C6F89000780572
:1008300007D5606DD6F8901021F440710843C6F8D2
:100840009000380507D5A06DD6F8901021F44061CE
:100850000843C6F89000F80407D5E06DD6F890106C
:1008600021F440510843C6F89000B80407D5206E23
:10087000D6F8901021F440410843C6F89000780261
:1008800007D5A06FD6F8901021F080610843C6F814
:100890009000B8020DD5E06FD6F8901021F00061FD
:1008A000B0F1006F41EA0001C6F8901008BF4FF0A8
:1008B0000108780307D5606FD6F8901021F04071D9
:1008C0000843C6F89000380208D5D4F88000D6F85E
:1008D000901021F080510843C6F89000780108D5A7
:1008E000D4F88400D6F8901021F000510843C6F8DF
:1008F0009000380108D5D4F88800D6F88C1021F083
:1009000000710843C6F88C00F80008D5D4F88C00B4
:10091000D6F88C1021F080610843C6F88C00B9F13C
:10092000000F02BF0AF0807007F0007110EB0100A9
:1009300000F08280306820F080603060FFF7CCFDEE
:100940000546306800010BD5FFF7C6FD401B642843
:10095000F7D9EEE00038024000700040FFFCFF0FC6
:100960002068C10712D0616B81B9D6F88410D6F81F
:10097000842001F4403102F070621144D4E9012373
:1009800041EA821141EA0371C6F88410010303D5DC
:10099000E16BB1F5801F05D0C1021DD5216CB1F509
:1009A000800F19D1D6F88410D6F8842001F4403194
:1009B00002F0E04211446268E36841EA821141EAD0
:1009C0000361656AC6F88410691ED6F88C2022F08F
:1009D0001F021143C6F88C10C10110D5D6F884103F
:1009E000D6F8842001F0706102F0E04211446268A0
:1009F000236941EA821141EA0341C6F8841080016B
:100A00000AD5231D0FCB1B0443EA801040EA026085
:100A100040EA0170C6F88400306840F080603060C1
:100A2000FFF75AFD05463068000105D4FFF754FD75
:100A3000401B6428F7D97CE017F0080008BFB8F124
:100A4000000F79D0306820F080503060FFF744FD0F
:100A500005463068800005D5FFF73EFD401B642841
:100A6000F7D966E02068010301D5E16B19B1C10235
:100A70001ED5216CE1B9D6F88810D6F8882001F48B
:100A8000403102F0E0421144A56AD4E9052341EA6D
:100A9000821141EA0361C6F888106FF0FF01D6F8B1
:100AA0008C2001EB052122F4F8521143C6F88C107A
:100AB000810214D5E16FB1F1006F10D1D6F8881022
:100AC000D6F8882001F0706102F0E04211446269BA
:100AD000236A41EA821141EA0341C6F888100007FF
:100AE00018D5D6F88800D6F8881000F0706001F4A8
:100AF000403108446169E26940EA811040EA0270CD
:100B0000E36AC6F88800D6F88C0020F44030184319
:100B1000C6F88C00306840F080503060FFF7DCFC95
:100B200004463068800007D4FFF7D6FC001B652818
:100B3000F7D30320BDE8FC870020BDE8FC87000058
:100B40002DE9F041002800F08D80484F0446D7F889
:100B50000004884600F00F0088420DD2D7F8000448
:100B600020F00F0040EA0800C7F80004D7F800049E
:100B700000F00F00404575D12068810711D541076D
:100B800003D5B96841F4E051B960010703D5B968EC
:100B900041F46041B960A168BA6822F0F0021143E3
:100BA000B960C00727D06068012803D1396889037C
:100BB00008D457E03968022802D1890102D451E0F3
:100BC00089074FD5B96821F003010843B860FFF7E2
:100BD00083FC064641F288356068B96801F00C0173
:100BE000B1EB800F07D0FFF777FC801BA842F3D949
:100BF0000320BDE8F081D7F8000400F00F00404565
:100C00000DD9D7F8000420F00F0040EA0800C7F81B
:100C10000004D7F8000400F00F00404522D12068FE
:100C2000410705D5E168BA6822F4E0521143B96082
:100C3000000706D52069B96821F4604141EAC00087
:100C4000B86000F033F8B968094AC1F30311515C88
:100C5000C8401349086007480068FFF757FC0020A8
:100C6000BDE8F0810120BDE8F08100BF00380240FE
:100C7000D21C00080400002009480A4900680968DD
:100C8000C1F38221084A515CC840704704480549B5
:100C900000680968C1F34231034A515CC84070479B
:100CA0000800002008380240E21C000810B5144C6F
:100CB000606800F00C00082804D0042814BF114814
:100CC000114810BD22682068400202F03F020E4821
:100CD0004FF000035CBF42F20040C0F2F400216814
:100CE000C1F38811A0FB0101FFF7A2FA21680222DB
:100CF000C1F3014102EB4101B0FBF1F010BD00BFB7
:100D0000043802400024F40040787D012DE9FC41C4
:100D1000002800F0DE8004460078CF4EC0074BD09C
:100D2000B06800F00C00042806D13068800343D579
:100D30006068002840D1CCE0B06800F00C000828C2
:100D400002D170684002F0D4606868B1B0F5803FAD
:100D500006D03168B0F5A02F1BD141F4802030605F
:100D6000306840F480301AE0306820F48030306021
:100D7000306820F480203060FFF7AEFB0546306815
:100D8000800319D5FFF7A8FB411B03206429F6D97E
:100D90005FE121F480303060306820F480203060E2
:100DA000FFF79AFB05463068800305D4FFF794FBF4
:100DB000401B6428F7D91BE1207880072DD5B06847
:100DC00010F00C0F07D0B06800F00C00082809D113
:100DD0007068400206D43068800717D5E0680128A3
:100DE00014D076E03068E168002900F0C58040F05A
:100DF00001003060FFF770FB05463068800705D4BE
:100E0000FFF76AFB401B0228F7D9F1E0206931683F
:100E100021F0F80141EAC00030602078000720D5B9
:100E2000706F616971B140F001007067FFF754FBAA
:100E30000546706F800714D4FFF74EFB401B022855
:100E4000F7D9D5E020F001007067FFF745FB0546B4
:100E5000706F800705D5FFF73FFB401B0228F7D9CD
:100E6000C6E02078400737D4A769002F00F0F08053
:100E7000B06800F00C00082861D17068012F28D0FC
:100E8000E16900F480028A4223D1216A00F03F0226
:100E90008A421ED147F6C071626A0140B1EB821FDF
:100EA00017D1A16A4FF6FF72C903914300F4403293
:100EB000A1F580318A420CD1E16A00F07062B2EB98
:100EC000016F06D1216B00F0E040B0EB017F00F034
:100ED000BF800120BDE8FC81306CC0000BD4306CB9
:100EE0004FF0010840F080503064306C00F08050CA
:100EF0000190019801E04FF00008584F3868C00594
:100F00000FD4386840F480703860FFF7E5FA054682
:100F10003868C00505D4FFF7DFFA401B6428F7D90D
:100F200066E0A068C8B3012805D0316F05284BD111
:100F300041F004003067306F40F001004AE0306853
:100F400020F080703060FFF7C7FA0546022F09D104
:100F50003068800158D5FFF7BFFA411B03200229F2
:100F6000F6D976E03068800172D5FFF7B5FA411BFB
:100F700003200229F6D96CE020F001003060FFF771
:100F8000ABFA0546306880077FF547AFFFF7A4FA54
:100F9000411B03200229F5D95BE0306F20F00100EE
:100FA0003067306F20F004003067FFF795FA054690
:100FB00041F28837306F80071DD5FFF78DFA411B4E
:100FC0000320B942F6D944E021F001003067306FC8
:100FD00020F004003067FFF77FFA054641F28837BA
:100FE000306F800707D4FFF777FA401BB842F7D974
:100FF0000320BDE8FC81B8F1000F3FF435AF306C41
:1010000020F0805030642FE704F11C05246B2FCDB5
:101010000843D90340EA82104FF6FF72914340EA39
:101020000560A1F58031084340EA047070603068C3
:1010300040F080703060FFF74FFA0446306880015E
:1010400006D4FFF749FA011B03200229F6D900E074
:101050000020BDE8FC8100BF003802400070004065
:10106000411E0020B0EB116F01D001207047044AEF
:10107000F023516003490B700721906011607047A5
:1010800010E000E023ED00E0B0B5044690F83C002D
:10109000012801D10220B0BD012084F83C004FEAB4
:1010A000B200052848D80D46DFE800F0030B131BFB
:1010B00023332068294600F0EFFA206850F8181F03
:1010C0001EE02068294600F011FB206850F8181F28
:1010D00026E02068294600F039FB206850F81C1FE4
:1010E0000EE02068294600F065FB206850F81C1FC0
:1010F00016E02068294600F081FB206850F8541F54
:1011000041F008010160016821F0040101602969D2
:101110000FE02068294600F095FB206850F8541F26
:1011200041F400610160016821F480610160296976
:101130000902026811430160002084F83C00B0BD40
:1011400060B310B5044690F83D0028B9002084F83B
:101150003C00204600F024F80220211D84F83D00C8
:10116000206800F01DFA012084F8480084F83E0051
:1011700084F83F0084F8400084F8410084F842007D
:1011800084F8430084F8440084F8450084F846005D
:1011900084F8470084F83D00002010BD012070470E
:1011A000B0B586B00068CE4DA84230D19F4801ACA2
:1011B000016941F002010161016901F0020101913F
:1011C0000199016841F001010160016801F001012C
:1011D00001910199016841F002010160012100685B
:1011E00000F00200019001980220CDE90400CDE951
:1011F000020103202146019005F50030FFF7A0F819
:10120000C0202146019005F5FE30FFF799F806B0A1
:10121000B0BD00BF70B5044659B1081F4FEAB00019
:10122000032812D8DFE800F002080B0E04F13F009B
:101230000DE004F13E000AE004F1400007E004F193
:10124000410004E004F1420001E004F143000078B1
:1012500001280DD171B1081F4FEAB000032819D839
:10126000DFE800F0020C1014022084F83F0014E0C4
:10127000012070BD022084F83E000EE0022084F8B8
:1012800040000AE0022084F8410006E0022084F8D1
:10129000420002E0022084F843002068012200F0AE
:1012A000EBF92168B1F1804F0BD0E84881421CBFB7
:1012B000E74A914205D0E74B99421CBFE84CA14256
:1012C00009D18868174A02400020062A18BFB2F5E3
:1012D000803F20D170BDE14DA94205D0E34EB1421F
:1012E000EFD0DD4EB14216D14E6CB1F1804F46F4D5
:1012F00000464E6418BF8142E3D0914218BF994224
:10130000DFD0A14218BFA942DBD0D8488142D8D053
:10131000D1488142D5D0086840F001000860002023
:1013200070BD00BF0700010010B5A0B10446806F7A
:1013300028B9002084F87400204600F025F8242005
:10134000A0672068016821F001010160204600F0DB
:1013500025FB012801D1012010BD606A10B1204693
:1013600000F096FA2068416821F49041416081685C
:1013700021F02A018160016841F0010101602046ED
:10138000BDE8104000F0D9BA10B586B0044601A8F7
:101390001421FEF785FF21684548814222D1234967
:1013A00000F574404A6942F010024A614A6902F04D
:1013B00010020092009A0A6842F002020A6009686C
:1013C00001F0020100910421059103210491002103
:1013D0000391022102914FF440410191009901A92A
:1013E000FEF7AEFF06B010BDFEE7000083B00F4869
:1013F000016841F080010160016801F08001029103
:101400000299016841F001010160016801F00101E8
:1014100001910199016841F002010160006800F04A
:1014200002000090009803B0704700BF30380240BF
:1014300010B588B00F4C44F61F606321834A002327
:10144000C4E90021C4E902302046FFF779FE0220FA
:1014500001A903906020019042F210700290204692
:101460000C22FFF711FE20460C21FFF7D3FE08B037
:1014700010BD00BF1000002010B50C4800210C2248
:101480004FF4E1330A4CC0E90043C0E90211C0E95E
:101490000412C0E90611C0E90811FFF745FF18B1B1
:1014A000BDE81040FEF73ABF10BD00BF5C00002051
:1014B00000100140FEE7704784B010B502AC0FC4C5
:1014C0006249884207D1DDE91720DDE915434C6305
:1014D0008B63CA630864BDE8104004B0704700BF66
:1014E0000004004070477047FEF7FABF70B5B6B011
:1014F00029AD2C2105F10800FEF7D2FE6C468C21A7
:10150000201DFEF7CDFE20480226016841F08051E3
:101510000160006800F08050249024981B48016806
:1015200041F440410160006800F440402490C02034
:10153000CDE9336632900C2031904FF48000CDE934
:101540002F604FF480302A9001202990249828465B
:10155000FFF7DCFBFFF73CF84FF4805000252890A4
:101560004FF4A05027900F20CDE92565249024A8A2
:101570000621FFF7E5FA4020119500902046FFF77D
:101580005BF836B070BD00BF4038024000700040CC
:101590000248016841F470010160704788ED00E085
:1015A000B0B50268B0F1804F05D0284B98421CBFFF
:1015B000274B984235D122F070024B681A43B0F1A4
:1015C000804F17D0214B98421CBF214B984211D01D
:1015D000204B98421CBF224B98420BD0214B984283
:1015E0001CBF214B984205D01C4B98421CBFA74BF7
:1015F000984220D122F44072CB681A434D6922F000
:1016000080020B688C682A43026040F48062C462E6
:1016100083629E4B9A4204BF0969016301214161C3
:10162000B0BD0C4B9842C6D0984B9842C3D00B4BE0
:101630009842C0D0C3E70D4B9842DBD00C4B984288
:10164000D8D00C4B9842D5D0D8E700BF000400405A
:1016500000080040000C0040000401400000014070
:1016600000180040001C00400020004000400140E5
:10167000004801400044014010B501F01F01012362
:101680008B40046A24EA030302FA01F10362026A4E
:101690001143016210BD0000F0B5026A444E22F011
:1016A000010202620B688A68046A24F00204224381
:1016B000446885693540754E2B4340F48065B542DA
:1016C00001BF22F00C02CF6827F004073A43B5426D
:1016D00005D1D1E9055624F440742C4334434460C9
:1016E0008361496841630262F0BD00BFF0B5026AE0
:1016F000414E22F0100202620C688A68036A23F0ED
:10170000200343EA02124368856935405F4E45EA8B
:10171000042C40F48065B54207D1CF686FF04004D7
:1017200004EA071422F0C0022243B54207D1D1E9EE
:10173000054523F4406343EA840343EA8503436099
:10174000C0F818C0496881630262F0BDF0B5026A52
:10175000174E22F4807202620C688A68036A23F4CE
:10176000007343EA02224368C5693540474E45EAA3
:10177000040C40F48065B54208D1CF6840F2FF44C4
:101780003F0222F4406227EA04042243B54207D113
:10179000D1E9054523F4405343EA041343EA051312
:1017A0004360C0F81CC04968C1630262F0BD00BF5D
:1017B0008CFFFEFF70B5026A0F4E22F48052026267
:1017C0000C688A68036A23F4005343EA02324368D0
:1017D000C56935402D4E45EA042440F48065B54284
:1017E00002BF4D6923F4804343EA85134360C4611B
:1017F00049680164026270BDFF8CFFFE70B5026A29
:101800000F4E22F4803202620C688A68036A23F465
:10181000003343EA02424368456D35401B4E2C437A
:1018200040F48065B54202BF4D6923F4803343EA3A
:1018300005234360446549688165026270BD00BF4D
:101840008FFFFEFF70B5026A0F4E22F48012026213
:101850000C688A68036A23F4001343EA025243685F
:10186000456D3540094E45EA042440F48065B54293
:1018700002BF4D6923F4802343EA85234360446516
:101880004968C165026270BDFF8FFFFE0004014020
:1018900010B5416ACA0706D00268836A546824F406
:1018A0000034234353608A0706D50268C36A54682C
:1018B00024F48034234353604A0706D50268036B3F
:1018C000546824F48024234353600A0706D5026831
:1018D000436B546824F4004423435360CA0606D57E
:1018E0000268836B946824F48054234393608A06CF
:1018F00006D50268C36B946824F4005423439360B4
:101900004A0610D50268036C5468B3F5801F24F4AE
:10191000801444EA0304546005D1436C546824F4F1
:10192000C00423435360090606D50168806C4A68E9
:1019300022F400221043486010BDBCB504460020CC
:10194000C4F88000FEF7C8FD054620680168090755
:101950000BD56FF07E404FF400110090204600221E
:101960002B4600F0E3F870B92068006840070CD5FA
:101970006FF07E404FF480010090204600222B46FD
:1019800000F0D4F808B10320BCBD2020A067E067B8
:10199000002084F874002066BCBD000070B50446C9
:1019A000006804F10803544E0ECB056835406669A3
:1019B000194341EA0603E1690B432B430360436883
:1019C00023F440531A434260A269236A1A4383688E
:1019D00023F430631A438260484A904218D0484A40
:1019E000904219D0474A90421AD0474A90421BD0A1
:1019F000464A90421CD0464A90421DD0454A9042E9
:101A000040D0454A904242D14448464A006817E0D7
:101A100042480068800812E04048006800090EE073
:101A20003E48006880090AE03C480068000A06E079
:101A30003A480068000B02E038480068800B384ADA
:101A400000F0030052F820203748B1F5004F0CD1C8
:101A50000121082A4AD8DFE802F0051C25491F4960
:101A600049492300FFF708F918E00121082A3DD869
:101A7000DFE802F005262F3C293C3C3C2D00FFF717
:101A8000FBF822E02548274A0068800AD8E71022A0
:101A9000DAE7FFF7FBF801E0FFF708F910B922E0F9
:101AA0004FF4004061684A0802EB4000B0FBF1F0DF
:101AB0004FF6F071014018D0C0F34200084310E027
:101AC000FFF7E4F801E0FFF7F1F810B90BE04FF48D
:101AD0000040616800EB5100B0FBF1F080B21028CB
:101AE00003D32168C860002100E001210020C4E97F
:101AF0001900084670BD00BFF369FFEF00440040C5
:101B000000480040004C0040005000400078004079
:101B1000007C004000140140001001409038024059
:101B2000FC1C0008EC1C00080024F4002DE9F8431C
:101B3000DDF82090984616460F460446016809F1E4
:101B40000105C8693840C01BB0FA80F04009B042B6
:101B500023D1002DF5D0FEF7BFFC2168B9F1000FAD
:101B60000A681DD0A0EB0800484519D8500744BFAB
:101B7000C8695FEA0050E4D54FF400600862086865
:101B800020F4D0700860886820F001008860202070
:101B9000A067E06704F180000DE00020BDE8F88355
:101BA00022F4D0700860886820F00100886020204E
:101BB000A06704F17C00002184F8741020210160EA
:101BC0000320BDE8F883FEE710B500F00F03064CD4
:101BD0002344044AB0F1FF3FC8BF831808011870BE
:101BE00010BD00BF00E400E014ED00E094B0FEF78B
:101BF00081FCFFF77BFCFFF7F9FBFFF719FCFFF710
:101C00003BFC2B4D42F2107405F11006A7B2304692
:101C1000CDE90F77CDE9117750F8042B694641F8EB
:101C2000042B50F8042B41F8042B50F8042B41F8F6
:101C3000042B50F8042B41F8042B50F8042B41F8E6
:101C4000042B50F8042B41F8042B50F8042B41F8D6
:101C5000042B50F8042B41F8042B50F8042B41F8C6
:101C6000042B50F8042B41F8042B50F8042B41F8B6
:101C7000042B50F8042B41F8042B50F8042B41F8A6
:101C8000042B50F8042B41F8042B50F8042B41F896
:101C9000042B95E80F00FFF70FFC0120FEF740FB37
:101CA0000A3CB7F57A7F08BF42F21074AEE700BF76
:101CB0001000002002E008C8121F08C1002AFAD153
:101CC00070477047002001E001C1121F002AFBD1BC
:101CD0007047000000000000000001020304060736
:101CE00008090000000001020304000001000000D8
:101CF00004000000020000000800000000000000D6
:101D0000040000000200000008000000301D000870
:101D10000000002010000000B41C0008401D000856
:101D200010000020D8040000C41C000800000000BF
:101D300001000000100000000024F400000000007A
:04000005080001F9F5
:00000001FF
