:020000040800F2
:10000000980400200D020008AF1300080113000837
:10001000AD130008190300089B170008000000003A
:10002000000000000000000000000000B313000802
:100030001B03000800000000B1130008B5130008FE
:1000400027020008270200082702000827020008EC
:1000500027020008270200081D03000827020008E5
:100060002B030008310300082702000827020008BC
:1000700027020008270200082702000827020008BC
:1000800027020008270200082702000827020008AC
:10009000270200082702000827020008270200089C
:1000A000270200082702000827020008270200088C
:1000B000270200082702000827020008270200087C
:1000C000270200082702000827020008270200086C
:1000D000270200082702000827020008270200085C
:1000E000230300082702000827020008270200084F
:1000F000270200082702000827020008270200083C
:10010000270200082702000827020008270200082B
:10011000270200082702000827020008270200081B
:10012000270200082702000827020008270200080B
:1001300027020008270200082702000827020008FB
:1001400027020008270200082702000827020008EB
:1001500027020008270200082702000827020008DB
:1001600027020008270200082702000827020008CB
:1001700027020008270200082702000800000000EC
:1001800027020008270200082702000827020008AB
:10019000270200082702000827020008270200089B
:1001A000270200082702000827020008270200088B
:1001B000270200082702000827020008270200087B
:1001C000270200082702000800000000270200089C
:1001D000270200082702000827020008270200085B
:1001E000270200082702000827020008270200084B
:1001F0002702000827020008DFF80CD000F07AF888
:1002000000480047C11700089804002006488047AE
:1002100006480047FEE7FEE7FEE7FEE7FEE7FEE7EB
:10022000FEE7FEE7FEE7FEE755140008F9010008C7
:100230002DE9F05F0546002092469B46884606461B
:10024000814640241BE0284641464746224600F0AE
:1002500041F853465A46C01A914110D311461846E8
:10026000224600F028F82D1A67EB01084F46224677
:100270000120002100F01FF817EB00094E41201E5D
:10028000A4F10104DFDC484631462A464346BDE876
:10029000F09FD2B201E000F8012B491EFBD270475B
:1002A0000022F6E710B513460A4604461946FFF742
:1002B000F0FF204610BD202A04DB203A00FA02F1AC
:1002C000002070479140C2F1200320FA03F3194344
:1002D00090407047202A04DB203A21FA02F00021E6
:1002E000704721FA02F3D040C2F120029140084346
:1002F00019467047064C074D06E0E06840F00103E0
:1003000094E8070098471034AC42F6D3FFF778FF23
:100310002C1800084C180008FEE77047012000F078
:10032000C3B84FF4005000F0BFB8042000F0BCB8D0
:10033000082000F0B9B800002DE9F04186B02C4843
:10034000584C016801AD41F001014FF00108016016
:10035000284F0168284E01F00101019101990168BF
:1003600041F080010160016801F080010191019973
:10037000016841F0040101602946006800F00400B2
:1003800001900198022003902046CDF80480029746
:10039000B04707F58010CDF80C8002904FF4005064
:1003A000019004F500602946B0470C2029460190D1
:1003B00004F5E050B047114C062002210022A0476E
:1003C0000F4D0620A847082002210122A04708203F
:1003D000A847092002210222A0470920A847282077
:1003E00002210322A0472820A84706B0BDE8F081DB
:1003F0003038024000001110BD0400083507000825
:100400001907000870470000B0B5044600F034F941
:100410000546B4480078611C18BF044400F02CF96C
:10042000401BA042FAD3B0BDB0B505463220FFF75D
:10043000EBFF1C4CB5F5005F1CD0042D0ED0082D31
:1004400012D0012D18BFB0BD2046012100F002F9E5
:10045000012803D104F5806001211EE004F5E0507D
:10046000042100F0F7F8A8B104F5E050082100F0ED
:10047000F1F838B104F500604FF40051BDE8B04028
:1004800000F0E8B804F580640121204600F0E7F8A8
:10049000204601E004F580600221BDE8B04000F094
:1004A000DEB800BF0000024003490A68024208BFEC
:1004B00070470860FFF7B8BF143C01402DE9FC4FBE
:1004C0005E4A0A2490425E4A024408BF09244FEA69
:1004D000B2234FF0000B092B38BF4FEAB2244FF084
:1004E000010A4FF0000C00220094BCF1200F00F034
:1004F000A3800AFA02F60B68334200F097804F6837
:10050000122F1BD80AFA07F313F0061F16D0032385
:10051000846803FA0CF3D1F80CE09C430EFA0CF556
:100520002C436FEA030E8460C7F3001445689440BF
:10053000B5434FEA42092C43446005E00323E146FA
:1005400003FA0CF36FEA030EC5688C6805EA0E0522
:1005500004FA09F42C43C46047F01004122C12D1A1
:100560000BF01C040F2303FA04F56FF0030303EAF6
:1005700052070744D7F820800B6928EA0505A340F5
:100580002B433B624F68036807F0030403EA0E0342
:1005900004FA09F423430360FB0047D52B4B22F0F8
:1005A00003051C461B6843F48043264F2360BE4668
:1005B00023683D4403F480430F2401930BF00C03A4
:1005C000019F9C40224FB846EF5927EA0404009F40
:1005D00007FA03F3234345F80830DEF800304D688E
:1005E00043EA0604EF0358BF23EA0604CEF80040AE
:1005F000DEF80430AF0343EA060458BF23EA0604DA
:10060000CEF80440DEF80830EF0243EA060458BF93
:1006100023EA0604CEF808400B4BAD021F461B68C8
:1006200043EA060458BF23EA06043C600BF1040BBE
:100630000CF1020C013258E7BDE8FC8F00240240A7
:100640000000FEBF003C01400C3C01404438024029
:1006500008FCFFFF0069084018BF0120704742698D
:1006600002EA0103914341EA034181617047002A94
:1006700008BF09048161704705480068704700BFE2
:100680001848034900780A6810440860704700BFA2
:100690009400002080B5032000F068F8002000F0EE
:1006A00005F800F023F8002080BD000070B50D4E65
:1006B000044630784FF47A71B1FBF0F00A490968CA
:1006C000B1FBF0F000F0A8FD01250F2C08D838B9D7
:1006D0004FF0FF3021460022002500F02BF8746017
:1006E000284670BD000000200800002082B040486D
:1006F000016841F080510160016801F08051019171
:100700000199416841F480414160406800F48040B3
:100710000090009802B07047002808D400F01F0134
:10072000012202FA01F14009014A42F82010704703
:1007300000E100E0B0B5134B4FF0FF351B68C3F389
:100740000223DC1E83F0070338BF0024042B28BFDC
:10075000042305FA03F3994305FA04F3A1409A43ED
:100760001143BDE8B04001F019B800BF05494FF68C
:10077000FF030A681A4060F30A2203481043086026
:10078000704700BF0CED00E00000FA05BCB518484A
:10079000E04D016841F080510160006800F0805038
:1007A00001900198286840F480302860FFF764FFCA
:1007B00004466868C00306D4FFF75EFF001BB0F56F
:1007C0007A7FF6D90FE0286840F400302860FFF700
:1007D00053FF04466868800307D4FFF74DFF001BF2
:1007E000B0F57A7FF6D90320BCBD0020BCBD00BFA8
:1007F000403802402DE9FC47D0F800A004465FEAEB
:10080000CA70C34E02D14FF000090BE0B06820F46B
:100810000000B060606BB1680143B0FA80F04FEA4D
:100820005019B1605FEA0A3002D44FF0000811E0BD
:10083000E06BD6F88C1021F44011B0F5801F41EA2E
:100840000001B0FA80F04FEA5018C6F88C1008BFCB
:100850004FF001095FEACA2011D5206CD6F88C1040
:1008600021F44001002841EA0001C6F88C1008BFBD
:100870004FF00108B0F5800F08BF4FF001095FEAA3
:100880008A60574653D5306CA24F40F08050306498
:10089000306C00F0805001900198386840F480700E
:1008A0003860FFF7E9FE05463868C00505D4FFF754
:1008B000E3FE401B6428F7D919E2306F10F4407052
:1008C00022D0216B01F4407188421DD0306F316F0E
:1008D00041F4803120F440703167316F21F4803170
:1008E00031673067306FC0070ED0FFF7C5FE054691
:1008F00041F28837306F800706D4FFF7BDFE411BF9
:100900000320B942F6D9F3E12768206BB268824927
:1009100022F4F81200F440730140B3F5407F08BFA1
:100920000A43B2606FF31F30316F08433067F80637
:100930000BD5D6F88C0020F08070C6F88C00A06B28
:10094000D6F88C100843C6F88C00780407D5606E82
:10095000D6F8901021F440310843C6F890003804CE
:1009600007D5A06ED6F8901021F440210843C6F8B0
:100970009000F80307D5E06ED6F8901021F44011EE
:100980000843C6F89000B80307D5206FD6F890103A
:1009900021F440010843C6F89000780607D5606C42
:1009A000D6F8901021F003010843C6F890003806ED
:1009B00007D5A06CD6F8901021F00C010843C6F8BA
:1009C0009000F80507D5E06CD6F8901021F03001C2
:1009D0000843C6F89000B80507D5206DD6F89010EA
:1009E00021F0C0010843C6F89000780507D5606D76
:1009F000D6F8901021F440710843C6F890003805ED
:100A000007D5A06DD6F8901021F440610843C6F8D0
:100A10009000F80407D5E06DD6F8901021F440510D
:100A20000843C6F89000B80407D5206ED6F8901099
:100A300021F440410843C6F89000780207D5A06F22
:100A4000D6F8901021F080610843C6F89000B802F3
:100A50000DD5E06FD6F8901021F00061B0F1006F75
:100A600041EA0001C6F8901008BF4FF00108780372
:100A700007D5606FD6F8901021F040710843C6F892
:100A80009000380208D5D4F88000D6F8901021F0F4
:100A900080510843C6F89000780108D5D4F8840046
:100AA000D6F8901021F000510843C6F890003801A4
:100AB00008D5D4F88800D6F88C1021F000710843CE
:100AC000C6F88C00F80008D5D4F88C00D6F88C1045
:100AD00021F080610843C6F88C00B9F1000F02BF15
:100AE0000AF0807007F0007110EB010000F08280C6
:100AF000306820F080603060FFF7BEFD054630684A
:100B000000010BD5FFF7B8FD401B6428F7D9EEE0D4
:100B10000038024000700040FFFCFF0F2068C10752
:100B200012D0616B81B9D6F88410D6F8842001F414
:100B3000403102F070621144D4E9012341EA82118C
:100B400041EA0371C6F88410010303D5E16BB1F5E6
:100B5000801F05D0C1021DD5216CB1F5800F19D1C0
:100B6000D6F88410D6F8842001F4403102F0E04237
:100B700011446268E36841EA821141EA0361656AEF
:100B8000C6F88410691ED6F88C2022F01F0211438B
:100B9000C6F88C10C10110D5D6F88410D6F8842080
:100BA00001F0706102F0E04211446268236941EA99
:100BB000821141EA0341C6F8841080010AD5231D41
:100BC0000FCB1B0443EA801040EA026040EA017048
:100BD000C6F88400306840F080603060FFF74CFD5C
:100BE00005463068000105D4FFF746FD401B642828
:100BF000F7D97CE017F0080008BFB8F1000F79D0F2
:100C0000306820F080503060FFF736FD05463068D0
:100C1000800005D5FFF730FD401B6428F7D966E05A
:100C20002068010301D5E16B19B1C1021ED5216C09
:100C3000E1B9D6F88810D6F8882001F4403102F0E6
:100C4000E0421144A56AD4E9052341EA821141EA50
:100C50000361C6F888106FF0FF01D6F88C2001EB15
:100C6000052122F4F8521143C6F88C10810214D5E4
:100C7000E16FB1F1006F10D1D6F88810D6F8882056
:100C800001F0706102F0E04211446269236A41EAB6
:100C9000821141EA0341C6F88810000718D5D6F83A
:100CA0008800D6F8881000F0706001F440310844E4
:100CB0006169E26940EA811040EA0270E36AC6F8BD
:100CC0008800D6F88C0020F440301843C6F88C0019
:100CD000306840F080503060FFF7CEFC044630684A
:100CE000800007D4FFF7C8FC001B6528F7D303205A
:100CF000BDE8FC870020BDE8FC8700002DE9F0413D
:100D0000002800F08D80484F0446D7F8000488463C
:100D100000F00F0088420DD2D7F8000420F00F0039
:100D200040EA0800C7F80004D7F8000400F00F00FC
:100D3000404575D12068810711D5410703D5B968B1
:100D400041F4E051B960010703D5B96841F460414D
:100D5000B960A168BA6822F0F0021143B960C00717
:100D600027D06068012803D13968890308D457E087
:100D70003968022802D1890102D451E089074FD590
:100D8000B96821F003010843B860FFF775FC064617
:100D900041F288356068B96801F00C01B1EB800F51
:100DA00007D0FFF769FC801BA842F3D90320BDE8F8
:100DB000F081D7F8000400F00F0040450DD9D7F8B6
:100DC000000420F00F0040EA0800C7F80004D7F83C
:100DD000000400F00F00404522D12068410705D5EE
:100DE000E168BA6822F4E0521143B960000706D501
:100DF0002069B96821F4604141EAC000B86000F0A0
:100E000033F8B968094AC1F30311515CC84013496A
:100E1000086007480068FFF749FC0020BDE8F08142
:100E20000120BDE8F08100BF00380240F41700083F
:100E30000400002009480A4900680968C1F38221BA
:100E4000084A515CC8407047044805490068096871
:100E5000C1F34231034A515CC8407047080000208A
:100E6000083802400418000810B5144C606800F0FF
:100E70000C00082804D0042814BF1148114810BDE4
:100E800022682068400202F03F020E484FF0000343
:100E90005CBF42F20040C0F2F4002168C1F3881147
:100EA000A0FB0101FFF7C4F921680222C1F301414F
:100EB00002EB4101B0FBF1F010BD00BF043802406D
:100EC0000024F40040787D012DE9FC41002800F069
:100ED000DE8004460078CF4EC0074BD0B06800F0EB
:100EE0000C00042806D13068800343D560680028D0
:100EF00040D1CCE0B06800F00C00082802D1706846
:100F00004002F0D4606868B1B0F5803F06D0316827
:100F1000B0F5A02F1BD141F480203060306840F440
:100F200080301AE0306820F480303060306820F47F
:100F300080203060FFF7A0FB05463068800319D59C
:100F4000FFF79AFB411B03206429F6D95FE121F4E6
:100F500080303060306820F480203060FFF78CFBF8
:100F600005463068800305D4FFF786FB401B6428E4
:100F7000F7D91BE1207880072DD5B06810F00C0F51
:100F800007D0B06800F00C00082809D17068400252
:100F900006D43068800717D5E068012814D076E0C1
:100FA0003068E168002900F0C58040F00100306041
:100FB000FFF762FB05463068800705D4FFF75CFB4E
:100FC000401B0228F7D9F1E02069316821F0F801CF
:100FD00041EAC00030602078000720D5706F616959
:100FE00071B140F001007067FFF746FB0546706F76
:100FF000800714D4FFF740FB401B0228F7D9D5E047
:1010000020F001007067FFF737FB0546706F80071F
:1010100005D5FFF731FB401B0228F7D9C6E0207841
:10102000400737D4A769002F00F0F080B06800F0C7
:101030000C00082861D17068012F28D0E16900F404
:1010400080028A4223D1216A00F03F028A421ED1E7
:1010500047F6C071626A0140B1EB821F17D1A16AE5
:101060004FF6FF72C903914300F44032A1F580317D
:101070008A420CD1E16A00F07062B2EB016F06D1D6
:10108000216B00F0E040B0EB017F00F0BF80012059
:10109000BDE8FC81306CC0000BD4306C4FF001080F
:1010A00040F080503064306C00F080500190019826
:1010B00001E04FF00008E64F3868C0050FD43868EB
:1010C00040F480703860FFF7D7FA05463868C005ED
:1010D00005D4FFF7D1FA401B6428F7D966E0A06871
:1010E000C8B3012805D0316F05284BD141F0040069
:1010F0003067306F40F001004AE0306820F08070C7
:101100003060FFF7B9FA0546022F09D13068800137
:1011100058D5FFF7B1FA411B03200229F6D976E032
:101120003068800172D5FFF7A7FA411B032002291E
:10113000F6D96CE020F001003060FFF79DFA05461B
:10114000306880077FF547AFFFF796FA411B032011
:101150000229F5D95BE0306F20F001003067306F75
:1011600020F004003067FFF787FA054641F2883720
:10117000306F80071DD5FFF77FFA411B0320B9426E
:10118000F6D944E021F001003067306F20F0040010
:101190003067FFF771FA054641F28837306F8007F4
:1011A00007D4FFF769FA401BB842F7D90320BDE81E
:1011B000FC81B8F1000F3FF435AF306C20F0805067
:1011C00030642FE704F11C05246B2FCD0843D903AD
:1011D00040EA82104FF6FF72914340EA0560A1F5A4
:1011E0008031084340EA04707060306840F08070DD
:1011F0003060FFF741FA04463068800106D4FFF7FB
:101200003BFA011B03200229F6D900E00020BDE8CB
:10121000FC8100BF00380240411E0020B0EB116F7E
:1012200001D001207047044AF023516003490B703C
:10123000072190601160704710E000E023ED00E0AE
:1012400010B5A0B10446806F28B9002084F874005E
:10125000204600F025F82420A0672068016821F0CE
:1012600001010160204600F083F9012801D101202D
:1012700010BD606A10B1204600F0F4F820684168A3
:1012800021F490414160816821F02A018160016868
:1012900041F0010101602046BDE8104000F037B97F
:1012A00010B586B0044601A81421FEF7F9FF2168A5
:1012B0003D48814222D12C4900F570404A6942F0F4
:1012C00010024A614A6902F010020092009A0A680C
:1012D00042F001020A60096801F001010091072152
:1012E00005910321049100210391022102914FF401
:1012F000C0610191009901A9FFF7E0F806B010BDA7
:10130000FEE7000070B586B0002517480595174C1C
:101310000168002241F0800103260160016801F0AC
:10132000800100910099016841F0020101600168AB
:1013300001F0020100910099016841F00101016092
:101340000321006800F00100009000982046FFF79C
:101350008EF9012001A9CDE90355CDE901602046B0
:10136000FFF7ACF806B070BD303802400004024010
:1013700010B50C4800210C224FF4E133DB4CC0E9DE
:101380000043C0E90211C0E90412C0E90611C0E936
:101390000811FFF755FF18B1BDE81040FFF732B84C
:1013A00010BD00BF1000002000100140FEE7704794
:1013B00070477047FFF764B9F0B5B7B02AAD302178
:1013C000281DFEF76DFF01AC8C21201DFEF768FF84
:1013D0001E4802270168002641F080510160006824
:1013E00000F08050259025981948016841F440414B
:1013F0000160006800F440402590D820CDE93477A2
:101400003390082032901020CDE930762E900120C4
:101410002D902A9725982846FFF756FDFFF7B6F935
:101420004FF48050072129904FF4A05028900F20AE
:10143000CDE92676259025A8FFF760FC402012967E
:1014400001902046FFF7D6F937B0F0BD4038024092
:10145000007000400248016841F47001016070476B
:1014600088ED00E010B5416ACA0706D00268836AB9
:10147000546824F40034234353608A0706D5026875
:10148000C36A546824F48034234353604A0706D562
:101490000268036B546824F48024234353600A07D2
:1014A00006D50268436B546824F400442343536018
:1014B000CA0606D50268836B946824F480542343DB
:1014C00093608A0606D50268C36B946824F40054BE
:1014D000234393604A0610D50268036C5468B3F541
:1014E000801F24F4801444EA0304546005D1436C43
:1014F000546824F4C00423435360090606D50168E8
:10150000806C4A6822F400221043486010BDBCB5CC
:1015100004460020C4F88000FFF7AEF805462068B6
:10152000016809070BD56FF07E404FF40011009061
:10153000204600222B4600F0E3F870B920680068CE
:1015400040070CD56FF07E404FF48001009020469C
:1015500000222B4600F0D4F808B10320BCBD2020A7
:10156000A067E067002084F874002066BCBD00001E
:1015700070B50446006804F10803544E0ECB0568AC
:1015800035406669194341EA0603E1690B432B4381
:101590000360436823F440531A434260A269236AFC
:1015A0001A43836823F430631A438260484A9042A6
:1015B00018D0484A904219D0474A90421AD0474A18
:1015C00090421BD0464A90421CD0464A90421DD0C1
:1015D000454A904240D0454A904242D14448464A0A
:1015E000006817E042480068800812E04048006840
:1015F00000090EE03E48006880090AE03C480068A7
:10160000000A06E03A480068000B02E0384800682B
:10161000800B384A00F0030052F820203748B1F51B
:10162000004F0CD10121082A4AD8DFE802F0051C3E
:1016300025491F4949492300FFF7FCFB18E0012118
:10164000082A3DD8DFE802F005262F3C293C3C3C27
:101650002D00FFF7EFFB22E02548274A0068800AAB
:10166000D8E71022DAE7FFF7EFFB01E0FFF7FCFB1A
:1016700010B922E04FF4004061684A0802EB4000D4
:10168000B0FBF1F04FF6F071014018D0C0F342000A
:10169000084310E0FFF7D8FB01E0FFF7E5FB10B9C6
:1016A0000BE04FF40040616800EB5100B0FBF1F03B
:1016B00080B2102803D32168C860002100E0012116
:1016C0000020C4E91900084670BD00BFF369FFEFB0
:1016D0000044004000480040004C004000500040E2
:1016E00000780040007C00400014014000100140E0
:1016F000903802401C1800080C1800080024F40060
:101700002DE9F843DDF82090984616460F4604462A
:10171000016809F10105C8693840C01BB0FA80F0C2
:101720004009B04223D1002DF5D0FEF7A5FF216876
:10173000B9F1000F0A681DD0A0EB0800484519D880
:10174000500744BFC8695FEA0050E4D54FF4006019
:101750000862086820F4D0700860886820F00100F2
:1017600088602020A067E06704F180000DE0002081
:10177000BDE8F88322F4D0700860886820F001008A
:1017800088602020A06704F17C00002184F8741098
:10179000202101600320BDE8F883FEE710B500F0CA
:1017A0000F03064C2344044AB0F1FF3FC8BF83181F
:1017B0000801187010BD00BF00E400E014ED00E067
:1017C000FEF768FFFFF7F8FDFFF79CFDFFF7D0FD80
:1017D000FEF7B2FDFEE702E008C8121F08C1002AAA
:1017E000FAD170477047002001E001C1121F002AA2
:1017F000FBD170470000000000000000010203045C
:1018000006070809000000000102030401000000AF
:1018100004000000020000000800000000000000BA
:10182000040000000200000008000000501800083A
:101830000000002010000000D61700086018000803
:101840001000002088040000E617000800000000D7
:1018500001000000100000000024F400000000005F
:04000005080001F9F5
:00000001FF
