:020000040800F2
:10000000E00400200D0200089B1C0008A11B000852
:10001000991C0008930700088F20000800000000CA
:100020000000000000000000000000009F1C00080D
:1000300095070008000000009D1C0008A11C000896
:1000400027020008270200082702000827020008EC
:1000500027020008270200082702000827020008DC
:1000600027020008270200082702000827020008CC
:1000700027020008270200082702000827020008BC
:1000800027020008270200082702000827020008AC
:10009000270200082702000827020008270200089C
:1000A000270200082702000827020008270200088C
:1000B000270200082702000827020008270200087C
:1000C000270200082702000827020008270200086C
:1000D000270200082702000827020008270200085C
:1000E000270200082702000827020008270200084C
:1000F000270200082702000827020008270200083C
:10010000270200082702000827020008270200082B
:10011000270200082702000827020008270200081B
:10012000270200082702000827020008270200080B
:1001300027020008270200082702000827020008FB
:1001400027020008270200082702000827020008EB
:1001500027020008270200082702000827020008DB
:1001600027020008270200082702000827020008CB
:1001700027020008270200082702000800000000EC
:1001800027020008270200082702000827020008AB
:10019000270200082702000827020008270200089B
:1001A000270200082702000827020008270200088B
:1001B000270200082702000827020008270200087B
:1001C000270200082702000800000000270200089C
:1001D000270200082702000827020008270200085B
:1001E000270200082702000827020008270200084B
:1001F0002702000827020008DFF80CD000F048FAB8
:1002000000480047E1200008E0040020064880473D
:1002100006480047FEE7FEE7FEE7FEE7FEE7FEE7EB
:10022000FEE7FEE7FEE7FEE7491D0008F9010008CA
:100230002DE9F05F0546002092469B46884606461B
:10024000814640241BE0284641464746224600F0AE
:1002500057F853465A46C01A914110D311461846D2
:10026000224600F03EF82D1A67EB01084F46224661
:100270000120002100F035F817EB00094E41201E47
:10028000A4F10104DFDC484631462A464346BDE876
:10029000F09FD2B201E000F8012B491EFBD270475B
:1002A0000022F6E710B513460A4604461946FFF742
:1002B000F0FF204610BD30B50B460146002020223D
:1002C000012409E021FA02F59D4205D303FA02F563
:1002D000491B04FA02F52844151EA2F10102F1DCC3
:1002E00030BD202A04DB203A00FA02F100207047DA
:1002F0009140C2F1200320FA03F319439040704764
:10030000202A04DB203A21FA02F00021704721FA6A
:1003100002F3D040C2F120029140084319467047D1
:100320002DE9FE4F804681EA0300C00F0C46009085
:1003300021F0004123F00045B8EB0200A94105D2AD
:100340004046214690461C460B46024623F000409C
:10035000104347D0270DC7F30A00C3F30A51029098
:10036000401A019040286BDAC3F3130040F4801B5D
:100370000098924620B10023D2EB030A63EB0B0BEB
:1003800001985946C0F140025046FFF7AAFF0646C1
:100390000D4650465946019A00F08CF910EB0800C2
:1003A0006141002487EA115284EAE7731A4340D07E
:1003B000009A62B3019A012A4FEA075215DC001B2A
:1003C00061EB02014FF0004202EA0752CDE9004220
:1003D000001C41F5801132462B4600F08CF903B029
:1003E000BDE8F08F40462146F9E7001B61EB0201B2
:1003F000001C41F5801300185B412018A2F500177E
:1004000047EB030140EAD570B6196D4111E06D0864
:100410004FEA360645EAC0754FEA0752001B61EB0A
:100420000201001C41F5801149084FEA3000001913
:10043000514132462B4603B0BDE8F04F00F04CB9B5
:100440000098012240000023D0EB020263EBE0732E
:10045000009821464FEAE074B8EB000061EB04011C
:10046000E9E783F000435BE781F0004158E72DE9BD
:10047000FE4F81EA030404F0004421F0004100949F
:100480004FF0000B23F0004350EA01045ED052EA23
:1004900003045BD0C3F30A54C1F30A552C44A4F2FD
:1004A000F3340194A0FB0254C1F3130141F4801111
:1004B000C3F3130343F4801301FB024400FB034E18
:1004C000840A970A44EA815447EA8357A4FB0768E1
:1004D00002958D0A05FB07854FEA932C04FB0C540B
:1004E0002705029D4FEA065847EA1637B5EB08057F
:1004F0006EEB070C870E920E47EA811742EA8312D1
:10050000A7FB0201B6EB0B0164EB00042B0D43EAE1
:100510000C335E1844EB1C50DA465146E7FB0201EF
:10052000C5F313044FEA0B3343EA14534FEA043282
:10053000019C43EA0603A4F10C040294009CCDE95B
:1005400000B400F0D8F803B0BDE8F08F00200146F9
:10055000F9E72DE9F04D81EA030404F0004B21F0A6
:10056000004514464FF0000A23F0004150EA05020E
:1005700020D054EA01021DD0C5F30A570246C5F344
:100580001303C1F31300C1F30A5640F4801543F47A
:100590008013A7EB0608101BD64608F2FD3873EB54
:1005A000050002D308F1010801E092185B41B8F19F
:1005B000000F03DA00200146BDE8F08D00204FF463
:1005C0008011064684460EE0171B73EB050705D322
:1005D000121B63EB050306434CEA010C49084FEA82
:1005E000300092185B4150EA0107EDD152EA030056
:1005F00012D082EA040083EA0501084305D0101BEB
:10060000AB4106D20122002306E000224FF0004356
:1006100002E06FF0010253101AEB06004CEB085198
:1006200010EB0A0041EB0B01BDE8F04D00F054B8AF
:10063000C1F30A52C1F3130140F2FF3341F48011B8
:100640009A4202DA00200146704740F233439A4250
:10065000A2F2334202DC5242FFF752BEFFF741BE24
:1006600030B5041E71F1000404DB4FF00044404239
:1006700064EB0101141E73F1000405DB1C464FF00E
:100680000043524263EB0403994208BF904230BDDD
:10069000064C074D06E0E06840F0010394E80700CF
:1006A00098471034AC42F6D3FFF7AAFD4C2A000855
:1006B0006C2A0008202A06DBCB17203A41FA02F008
:1006C00043EAE07306E041FA02F3D040C2F12002AF
:1006D000914008431946704710B5141E73F1000489
:1006E00008DA401C41F1000192185B411A4301D124
:1006F00020F0010010BD2DE9F04D92469B4611B14E
:10070000B1FA81F202E0B0FA80F220329046FFF7AF
:10071000E8FD04460F4640EA0A0041EA0B01534651
:100720005A46084313D0114653EA010019D0C8F1C4
:1007300040025046FFF7E4FD05460E465046594636
:100740004246FFF7CEFD084305D0012004E02046D5
:100750003946BDE8F08D0020054346EAE0762C439B
:1007600037430A986305E40AA0EB08000022FD0A5B
:1007700044EA47540A3002D500200146E9E7010562
:1007800010196941DDE9084500196941BDE8F04DDE
:10079000A2E7FEE77047704710B500F03BF804464B
:1007A0001B48022100F058FBC82000F079FA00EE47
:1007B000104A9FED0F1BB8EE400B20EE010B9FED92
:1007C0000E1B20EE010B9FED0E1BB7EEC00BB7EE1C
:1007D000C00A30EE010B9FED0C1B80EE010BB3EE57
:1007E000091B30EE010BB7EEC00B10BD00BF00BF00
:1007F0006666666666660A40000000000000303FDC
:1008000052B81E85EB51E8BF7B14AE47E17A643FD6
:1008100000040240F8B52DED028B044600279FED41
:10082000138A134DA74215DA284600F0BFF928466F
:100830000A2100F067F9284600F0ACF806460A20C5
:1008400000F02EFA00EE106A0137B8EE400A38EEDA
:10085000008AE7E7BCEEC80A10EE100A90FBF4F03D
:1008600080B2BDEC028B01B0F0BD00BF0000000003
:1008700010000020F8B50022009290F83C20012AD8
:1008800001D102216BE0012280F83C200A681FFAA6
:1008900082FC0A2A4FEA4C0414FA82F612D3B2F10F
:1008A000004F0FD01E3E072404FA06F704682546C1
:1008B00055F80C3FBB432B60354B8F689A420ED1E5
:1008C0003E060EE0046807232546B34055F8107F26
:1008D00027EA03032B608B6803FA06F601E007FAA8
:1008E00006F62B6833432B604D68062D05D805EBC3
:1008F000850304F134015D1F0CE005EB85060C2D2A
:1009000004D804F13001A6F1230503E004F12C0121
:10091000A6F141051F230E68AB4026EA03030B60D6
:100920000CFA05F30D682B430B606949A1F541737F
:100930009C4211D1B2F1004F03D10A6822F4400267
:1009400009E0112A0DD0124B9A420AD0122A03D183
:100950000A6842F480020A60002180F83C100846D0
:10096000F8BD0B6843F400030B6009498A42F3D1D8
:10097000C849C94A0968B1FBF2F101EB810149009C
:10098000009100990029E7D000990139F8E700BFEC
:10099000120000100068C06C70470000002841D0B1
:1009A00070B50446006C30B9204600F099F800207C
:1009B00084F83C006064206CC00635D4206C41F2A1
:1009C00002118843424902302064086820F4403014
:1009D000086094E80D0025690E6832430A6041689A
:1009E00021F480714160416841EA0521416041681C
:1009F00021F04071416041681943364B4160816884
:100A000021F400618160E16882681143816081683E
:100A100021F070618160A26A81689A4206D121F05A
:100A200040510CE00120704701204CE011438160EF
:100A3000816821F040518160E16A826811438160E0
:100A4000816821F002018160A169826842EA410166
:100A50008160416894F820206AB141F400611E4A27
:100A60004160416821F460414160616A02EB4131BB
:100A70004268114301E021F400614160174BC16AF3
:100A800021F47001C162E269616903EB0252C36A39
:100A90001A43C262826822F40072826094F83020A5
:100AA000836843EA42228260826822F48062826024
:100AB000826842EA81210122816000206064216C09
:100AC00062F301012164002184F83C1070BD00BF75
:100AD000042301400100000F00E0FFFF0000F0FFD1
:100AE00081B000686D49884209D1D948016841F454
:100AF00080710160006800F480700090009801B07F
:100B0000704700BFF8B5044600680D468168490586
:100B100044BF80685FEAC0502BD400F0A5F90646B8
:100B20006F1C20680168890714D4002FF9D02DB1FB
:100B300000F09AF9801BA842F3D92068006880076A
:100B4000EFD4002084F83C00206C40F004002064C6
:100B50000320F8BD6FF012010160216C41F40071B7
:100B60002164816811F0405F01D1A16951B1002079
:100B7000F8BD002084F83C00206C40F02000206488
:100B80000120F8BDC16A11F4700F02D080684005E1
:100B9000EDD4206C20F480702064206CC004E6D476
:100BA000206C40F001002064E1E7000018B500214E
:100BB000009190F83C10012901D1022018BD0121BB
:100BC00080F83C1001688A68D20710D18A68324BDD
:100BD00042F001028A60C04A1268B2FBF3F202EBF3
:100BE00042020092009A12B1009A013AF9E78B682A
:100BF000026CDB0707D142F010010164416C41F047
:100C00000101416443E040F201739A4302F58072AE
:100C100002644A68520504D5026C012363F30D3265
:100C20000264026C0023D20444BF436C23F0060329
:100C3000002243646FF022030B6080F83C20174AC7
:100C4000D2F80403C0060CD091420CD002F5007417
:100C5000D2F804330020A14208BF13F010030DD0D6
:100C600018BD88680CE0906810F0405F03D1886878
:100C700040F080408860D2F8040308E0D2F808020F
:100C800010F0405F03D1886840F080408860002009
:100C900018BD00BF0C00002040420F0000200140A2
:100CA000B0B5044600F0E0F805468A480078611CBB
:100CB00018BF044400F0D8F8401BA042FAD3B0BDDE
:100CC0002DE9FC4F5E4A0A2490425E4A024408BF66
:100CD00009244FEAB2234FF0000B092B38BF4FEA2B
:100CE000B2244FF0010A4FF0000C00220094BCF136
:100CF000200F00F0A3800AFA02F60B68334200F0DE
:100D000097804F68122F1BD80AFA07F313F0061FBB
:100D100016D00323846803FA0CF3D1F80CE09C434B
:100D20000EFA0CF52C436FEA030E8460C7F300142F
:100D300045689440B5434FEA42092C43446005E0BE
:100D40000323E14603FA0CF36FEA030EC5688C68CF
:100D500005EA0E0504FA09F42C43C46047F01004B8
:100D6000122C12D10BF01C040F2303FA04F56FF0C0
:100D7000030303EA52070744D7F820800B6928EAE7
:100D80000505A3402B433B624F68036807F003044B
:100D900003EA0E0304FA09F423430360FB0047D57A
:100DA0002B4B22F003051C461B6843F48043264F5F
:100DB0002360BE4623683D4403F480430F2401931F
:100DC0000BF00C03019F9C40224FB846EF5927EAD5
:100DD0000404009F07FA03F3234345F80830DEF8C4
:100DE00000304D6843EA0604EF0358BF23EA0604C7
:100DF000CEF80040DEF80430AF0343EA060458BFE3
:100E000023EA0604CEF80440DEF80830EF0243EA95
:100E1000060458BF23EA0604CEF808400B4BAD0287
:100E20001F461B6843EA060458BF23EA06043C60D9
:100E30000BF1040B0CF1020C013258E7BDE8FC8FFA
:100E4000002402400000FEBF003C01400C3C014079
:100E50004438024008FCFFFF426902EA0103914363
:100E600041EA03418161704705480068704700BF4F
:100E70001848034900780A6810440860704700BFAA
:100E8000DC00002080B5032000F05AF8002000F0BC
:100E900005F800F023F8002080BD000070B50D4E6D
:100EA000044630784FF47A71B1FBF0F00A490968D2
:100EB000B1FBF0F000F09CFD01250F2C08D838B9EB
:100EC0004FF0FF3021460022002500F01DF874602D
:100ED000284670BD040000200C00002082B0394874
:100EE000016841F080510160016801F08051019179
:100EF0000199416841F480414160406800F48040BC
:100F00000090009802B07047B0B5134B4FF0FF351A
:100F10001B68C3F30223DC1E83F0070338BF0024E1
:100F2000042B28BF042305FA03F3994305FA04F3BD
:100F3000A1409A431143BDE8B04001F0A9B800BFF9
:100F400005494FF6FF030A681A4060F30A22034876
:100F500010430860704700BF0CED00E00000FA0588
:100F6000BCB51848E04D016841F08051016000684F
:100F700000F0805001900198286840F4803028608B
:100F8000FFF772FF04466868C00306D4FFF76CFFE2
:100F9000001BB0F57A7FF6D90FE0286840F40030E6
:100FA0002860FFF761FF04466868800307D4FFF7F5
:100FB0005BFF001BB0F57A7FF6D90320BCBD002093
:100FC000BCBD00BF403802402DE9FC47D0F800A06E
:100FD00004465FEACA70C34E02D14FF000090BE02D
:100FE000B06820F40000B060606BB1680143B0FAF3
:100FF00080F04FEA5019B1605FEA0A3002D44FF036
:10100000000811E0E06BD6F88C1021F44011B0F527
:10101000801F41EA0001B0FA80F04FEA5018C6F88C
:101020008C1008BF4FF001095FEACA2011D5206C6F
:10103000D6F88C1021F44001002841EA0001C6F8DE
:101040008C1008BF4FF00108B0F5800F08BF4FF0BB
:1010500001095FEA8A60574653D5306CA24F40F0D1
:1010600080503064306C00F08050019001983868F6
:1010700040F480703860FFF7F7FE05463868C00519
:1010800005D4FFF7F1FE401B6428F7D919E2306F51
:1010900010F4407022D0216B01F4407188421DD0C1
:1010A000306F316F41F4803120F440703167316F1F
:1010B00021F4803131673067306FC0070ED0FFF701
:1010C000D3FE054641F28837306F800706D4FFF71C
:1010D000CBFE411B0320B942F6D9F3E12768206B10
:1010E000B268824922F4F81200F440730140B3F56B
:1010F000407F08BF0A43B2606FF31F30316F08436F
:101100003067F8060BD5D6F88C0020F08070C6F852
:101110008C00A06BD6F88C100843C6F88C007804BD
:1011200007D5606ED6F8901021F440310843C6F818
:101130009000380407D5A06ED6F8901021F4402115
:101140000843C6F89000F80307D5E06ED6F8901073
:1011500021F440110843C6F89000B80307D5206F6A
:10116000D6F8901021F440010843C6F890007806A4
:1011700007D5606CD6F8901021F003010843C6F83B
:101180009000380607D5A06CD6F8901021F00C011D
:101190000843C6F89000F80507D5E06CD6F8901023
:1011A00021F030010843C6F89000B80507D5206D3E
:1011B000D6F8901021F0C0010843C6F890007805D9
:1011C00007D5606DD6F8901021F440710843C6F839
:1011D0009000380507D5A06DD6F8901021F4406135
:1011E0000843C6F89000F80407D5E06DD6F89010D3
:1011F00021F440510843C6F89000B80407D5206E8A
:10120000D6F8901021F440410843C6F890007802C7
:1012100007D5A06FD6F8901021F080610843C6F87A
:101220009000B8020DD5E06FD6F8901021F0006163
:10123000B0F1006F41EA0001C6F8901008BF4FF00E
:101240000108780307D5606FD6F8901021F040713F
:101250000843C6F89000380208D5D4F88000D6F8C4
:10126000901021F080510843C6F89000780108D50D
:10127000D4F88400D6F8901021F000510843C6F845
:101280009000380108D5D4F88800D6F88C1021F0E9
:1012900000710843C6F88C00F80008D5D4F88C001B
:1012A000D6F88C1021F080610843C6F88C00B9F1A3
:1012B000000F02BF0AF0807007F0007110EB010010
:1012C00000F08280306820F080603060FFF7CCFD55
:1012D0000546306800010BD5FFF7C6FD401B6428AA
:1012E000F7D9EEE00038024000700040FFFCFF0F2D
:1012F0002068C10712D0616B81B9D6F88410D6F886
:10130000842001F4403102F070621144D4E90123D9
:1013100041EA821141EA0371C6F88410010303D542
:10132000E16BB1F5801F05D0C1021DD5216CB1F56F
:10133000800F19D1D6F88410D6F8842001F44031FA
:1013400002F0E04211446268E36841EA821141EA36
:101350000361656AC6F88410691ED6F88C2022F0F5
:101360001F021143C6F88C10C10110D5D6F88410A5
:10137000D6F8842001F0706102F0E0421144626806
:10138000236941EA821141EA0341C6F884108001D1
:101390000AD5231D0FCB1B0443EA801040EA0260EC
:1013A00040EA0170C6F88400306840F08060306028
:1013B000FFF75AFD05463068000105D4FFF754FDDC
:1013C000401B6428F7D97CE017F0080008BFB8F18B
:1013D000000F79D0306820F080503060FFF744FD76
:1013E00005463068800005D5FFF73EFD401B6428A8
:1013F000F7D966E02068010301D5E16B19B1C1029C
:101400001ED5216CE1B9D6F88810D6F8882001F4F1
:10141000403102F0E0421144A56AD4E9052341EAD3
:10142000821141EA0361C6F888106FF0FF01D6F817
:101430008C2001EB052122F4F8521143C6F88C10E0
:10144000810214D5E16FB1F1006F10D1D6F8881088
:10145000D6F8882001F0706102F0E0421144626920
:10146000236A41EA821141EA0341C6F88810000765
:1014700018D5D6F88800D6F8881000F0706001F40E
:10148000403108446169E26940EA811040EA027033
:10149000E36AC6F88800D6F88C0020F44030184380
:1014A000C6F88C00306840F080503060FFF7DCFCFC
:1014B00004463068800007D4FFF7D6FC001B65287F
:1014C000F7D30320BDE8FC870020BDE8FC870000BF
:1014D0002DE9F041002800F08D80484F0446D7F8F0
:1014E0000004884600F00F0088420DD2D7F80004AF
:1014F00020F00F0040EA0800C7F80004D7F8000405
:1015000000F00F00404575D12068810711D54107D3
:1015100003D5B96841F4E051B960010703D5B96852
:1015200041F46041B960A168BA6822F0F002114349
:10153000B960C00727D06068012803D139688903E2
:1015400008D457E03968022802D1890102D451E059
:1015500089074FD5B96821F003010843B860FFF748
:1015600083FC064641F288356068B96801F00C01D9
:10157000B1EB800F07D0FFF777FC801BA842F3D9AF
:101580000320BDE8F081D7F8000400F00F004045CB
:101590000DD9D7F8000420F00F0040EA0800C7F882
:1015A0000004D7F8000400F00F00404522D1206865
:1015B000410705D5E168BA6822F4E0521143B960E9
:1015C000000706D52069B96821F4604141EAC000EE
:1015D000B86000F033F8B968094AC1F30311515CEF
:1015E000C8401349086007480068FFF757FC00200F
:1015F000BDE8F0810120BDE8F08100BF0038024065
:10160000122A00080800002009480A4900680968F1
:10161000C1F38221084A515CC8407047044805491B
:1016200000680968C1F34231034A515CC840704701
:101630000C00002008380240222A000810B5144C83
:10164000606800F00C00082804D0042814BF11487A
:10165000114810BD22682068400202F03F020E4887
:101660004FF000035CBF42F20040C0F2F40021687A
:10167000C1F38811A0FB0101FEF7DAFD2168022207
:10168000C1F3014102EB4101B0FBF1F010BD00BF1D
:10169000043802400024F40040787D012DE9FC412B
:1016A000002800F0DE8004460078CF4EC0074BD003
:1016B000B06800F00C00042806D13068800343D5E0
:1016C0006068002840D1CCE0B06800F00C00082829
:1016D00002D170684002F0D4606868B1B0F5803F14
:1016E00006D03168B0F5A02F1BD141F480203060C6
:1016F000306840F480301AE0306820F48030306088
:10170000306820F480203060FFF7AEFB054630687B
:10171000800319D5FFF7A8FB411B03206429F6D9E4
:101720005FE121F480303060306820F48020306048
:10173000FFF79AFB05463068800305D4FFF794FB5A
:10174000401B6428F7D91BE1207880072DD5B068AD
:1017500010F00C0F07D0B06800F00C00082809D179
:101760007068400206D43068800717D5E068012809
:1017700014D076E03068E168002900F0C58040F0C0
:1017800001003060FFF770FB05463068800705D424
:10179000FFF76AFB401B0228F7D9F1E020693168A6
:1017A00021F0F80141EAC00030602078000720D520
:1017B000706F616971B140F001007067FFF754FB11
:1017C0000546706F800714D4FFF74EFB401B0228BC
:1017D000F7D9D5E020F001007067FFF745FB05461B
:1017E000706F800705D5FFF73FFB401B0228F7D934
:1017F000C6E02078400737D4A769002F00F0F080BA
:10180000B06800F00C00082861D17068012F28D062
:10181000E16900F480028A4223D1216A00F03F028C
:101820008A421ED147F6C071626A0140B1EB821F45
:1018300017D1A16A4FF6FF72C903914300F44032F9
:10184000A1F580318A420CD1E16A00F07062B2EBFE
:10185000016F06D1216B00F0E040B0EB017F00F09A
:10186000BF800120BDE8FC81306CC0000BD4306C1F
:101870004FF0010840F080503064306C00F0805030
:101880000190019801E04FF00008584F3868C005FA
:101890000FD4386840F480703860FFF7E5FA0546E9
:1018A0003868C00505D4FFF7DFFA401B6428F7D974
:1018B00066E0A068C8B3012805D0316F05284BD178
:1018C00041F004003067306F40F001004AE03068BA
:1018D00020F080703060FFF7C7FA0546022F09D16B
:1018E0003068800158D5FFF7BFFA411B0320022959
:1018F000F6D976E03068800172D5FFF7B5FA411B62
:1019000003200229F6D96CE020F001003060FFF7D7
:10191000ABFA0546306880077FF547AFFFF7A4FABA
:10192000411B03200229F5D95BE0306F20F0010054
:101930003067306F20F004003067FFF795FA0546F6
:1019400041F28837306F80071DD5FFF78DFA411BB4
:101950000320B942F6D944E021F001003067306F2E
:1019600020F004003067FFF77FFA054641F2883720
:10197000306F800707D4FFF777FA401BB842F7D9DA
:101980000320BDE8FC81B8F1000F3FF435AF306CA7
:1019900020F0805030642FE704F11C05246B2FCD1C
:1019A0000843D90340EA82104FF6FF72914340EAA0
:1019B0000560A1F58031084340EA0470706030682A
:1019C00040F080703060FFF74FFA044630688001C5
:1019D00006D4FFF749FA011B03200229F6D900E0DB
:1019E0000020BDE8FC8100BF0038024000700040CC
:1019F000411E0020B0EB116F01D001207047044A56
:101A0000F023516003490B7007219060116070470B
:101A100010E000E023ED00E010B5A0B10446806FB7
:101A200028B9002084F87400204600F025F824200E
:101A3000A0672068016821F001010160204600F0E4
:101A400011FA012801D1012010BD606A10B12046B1
:101A500000F082F92068416821F49041416081687A
:101A600021F02A018160016841F0010101602046F6
:101A7000BDE8104000F0C5B910B586B0044601A815
:101A80001421FEF70DFC21688248814221D1714961
:101A900000F570404A6942F010024A614A6902F05A
:101AA00010020092009A0A6842F001020A600122C4
:101AB000096801F0010100910721059102210491BB
:101AC000CDE902124FF4C0610191009901A9FFF71D
:101AD000F7F806B010BD00BF2DE9FC470446806F43
:101AE00020280AD10D460120002957D01646002A89
:101AF00054D094F87400012802D10220BDE8FC877C
:101B00004FF0000A0120C4F880A0994684F87400C0
:101B10002120A067FFF7A8F9A4F852608046A4F836
:101B20005060A068B0F5805F06D127690026002FBD
:101B30000CBF2E462F4601E02F46002684F874A0E5
:101B4000B4F85200D8B12046802100224346CDF897
:101B5000009000F04FFAD8B927B117F8010B2168AF
:101B6000886206E036F8021B206800276FF35F21C9
:101B70008162B4F852000138A4F85200E0E7204630
:101B8000402100224346CDF8009000F033FA10B116
:101B90000320BDE8FC872020A0670020BDE8FC876B
:101BA000FEE700007FB5124C00254FF4803011494C
:101BB00084F83050C4E9001004F108001421FEF745
:101BC0006FFB0D480126C4E909502046E56284F800
:101BD0002050E661FEF7E2FE0848039500900720DA
:101BE000CDE9016069462046FEF744FE7FBD00BF97
:101BF00010000020002001400100000F1200001022
:101C0000FEB51448016841F080010160016801F0EF
:101C1000800101910199016841F0020101600168B0
:101C200001F0020101910199016841F00101016097
:101C30000221006800F0010001900198012003904A
:101C400001910321049101A902900348FFF738F89C
:101C500006B080BD303802400004024010B50C4888
:101C600000210C224FF4E133DD4CC0E90043C0E910
:101C70000211C0E90412C0E90611C0E90811FFF71A
:101C8000CBFE18B1BDE81040FEF785BD10BD00BF0A
:101C90005800002000100140FEE770477047704771
:101CA000FFF7E6B870B5B6B029AD2C2105F10800F4
:101CB000FEF7F6FA6C468C21201DFEF7F1FA20485B
:101CC0000226016841F080510160006800F08050F8
:101CD000249024981B48016841F440410160006849
:101CE00000F4404024904FF4D870CDE93366329030
:101CF000192031904FF48000CDE92F604FF48030EF
:101D00002A900120299024982846FFF7C7FCFFF766
:101D100027F94FF48050002528904FF4A0502790C9
:101D20000F20CDE92565249024A80721FFF7D0FBDB
:101D30004020119500902046FFF746F936B070BD5F
:101D400040380240007000400248016841F47001D0
:101D50000160704788ED00E010B5416ACA0706D0FF
:101D60000268836A546824F40034234353608A076A
:101D700006D50268C36A546824F480342343536050
:101D80004A0706D50268036B546824F48024234371
:101D900053600A0706D50268436B546824F4004474
:101DA00023435360CA0606D50268836B946824F403
:101DB0008054234393608A0606D50268C36B9468F7
:101DC00024F40054234393604A0610D50268036C40
:101DD0005468B3F5801F24F4801444EA030454606B
:101DE00005D1436C546824F4C004234353600906AE
:101DF00006D50168806C4A6822F4002210434860CE
:101E000010BDBCB504460020C4F88000FFF72CF8D4
:101E100005462068016809070BD56FF07E404FF436
:101E200000110090204600222B4600F0E3F870B924
:101E30002068006840070CD56FF07E404FF48001A9
:101E40000090204600222B4600F0D4F808B1032071
:101E5000BCBD2020A067E067002084F874002066E5
:101E6000BCBD000070B50446006804F10803544E80
:101E70000ECB056835406669194341EA0603E169FE
:101E80000B432B430360436823F440531A434260DF
:101E9000A269236A1A43836823F430631A43826079
:101EA000484A904218D0484A904219D0474A904236
:101EB0001AD0474A90421BD0464A90421CD0464A0C
:101EC00090421DD0454A904240D0454A904242D16E
:101ED0004448464A006817E042480068800812E01B
:101EE0004048006800090EE03E48006880090AE0AA
:101EF0003C480068000A06E03A480068000B02E02F
:101F000038480068800B384A00F0030052F820205F
:101F10003748B1F5004F0CD10121082A4AD8DFE833
:101F200002F0051C25491F4949492300FFF76CFBB6
:101F300018E00121082A3DD8DFE802F005262F3CF1
:101F4000293C3C3C2D00FFF75FFB22E02548274A57
:101F50000068800AD8E71022DAE7FFF75FFB01E0AC
:101F6000FFF76CFB10B922E04FF4004061684A08AB
:101F700002EB4000B0FBF1F04FF6F071014018D0D9
:101F8000C0F34200084310E0FFF748FB01E0FFF711
:101F900055FB10B90BE04FF40040616800EB5100B5
:101FA000B0FBF1F080B2102803D32168C860002193
:101FB00000E001210020C4E91900084670BD00BFFF
:101FC000F369FFEF0044004000480040004C00402F
:101FD0000050004000780040007C004000140140A8
:101FE00000100140903802403C2A00082C2A0008CA
:101FF0000024F4002DE9F843DDF8209098461646B9
:102000000F460446016809F10105C8693840C01B44
:10201000B0FA80F04009B04223D1002DF5D0FEF790
:1020200023FF2168B9F1000F0A681DD0A0EB08005A
:10203000484519D8500744BFC8695FEA0050E4D545
:102040004FF400600862086820F4D0700860886867
:1020500020F0010088602020A067E06704F1800084
:102060000DE00020BDE8F88322F4D0700860886895
:1020700020F0010088602020A06704F17C0000218E
:1020800084F87410202101600320BDE8F883FEE786
:1020900010B500F00F03064C2344044AB0F1FF3F93
:1020A000C8BF83180801187010BD00BF00E400E02D
:1020B00014ED00E0BCB5094D04468DF807000DF1A4
:1020C0000701284601224FF47A73FFF705FD2868BF
:1020D000C1690906FCD52046BCBD00BF58000020E0
:1020E000FEF7D0FEFFF7DEFDFFF78AFDFFF75AFD92
:1020F000FFF7B4FD05A40A20FEF74EFBB7EEC00AB9
:10210000204653EC102B00F00BF8F4E754454D50EB
:102110002069732061626F7574202566200D0A00A6
:102120000FB4054B10B503A9044A029800F0DAF881
:1021300010BC5DF814FB0000B52000080000002072
:1021400002E008C8121F08C1002AFAD17047704780
:10215000002001E001C1121F002AFBD170470000DE
:102160002DE9FF5F82B00021DDE90430020DDDF8CA
:1021700040B0034318D044F61050A2F2FF3242435D
:102180001514119801281FD0A5EB0B00401C5FEA25
:10219000000A4FF000064E4FDFF83891B046504627
:1021A00015D5CAF1000413E0119801244AA30128AF
:1021B00001D16FEA0B010298119AC0E90031C0E920
:1021C000024206B0BDE8F09FCBF10000DFE7044615
:1021D0000021404A491842EB0450CDE9001012E0BA
:1021E000E00707D032463B4640464946FEF73FF9F6
:1021F0008046894632463B4610461946FEF737F977
:1022000006460F466410002CEAD1DDE90401DDE941
:102210000023BAF1000F06DAFEF729F942464B46D1
:10222000FEF725F905E0FEF794F942464B46FEF726
:1022300090F904460E460022284BFEF711FA03D807
:102240004FF0FF30014607E00022254B2046314683
:10225000FEF766F8FEF7ECF9102409E0002C0ADB23
:102260000A220023FDF7E4FF039B30321A55641E57
:1022700050EA0102F2D1641C039AC4F11103144420
:10228000119A012A03D0012208430DD10AE0084324
:1022900004D000204FF0110B119072E7A3EB0B0557
:1022A0006D1E0DE05B4504DD4FF0000205F10105F8
:1022B00004E003DA4FF00002A5F10105002AECD09A
:1022C00002981199C0E90231C0E9004579E70000A0
:1022D000000014400000F03F300000000000F04318
:1022E0000000E03F2DE9FF4F95B09B46894606462A
:1022F00000250FE2252877D100242746F84A01213E
:10230000059400E0044316F8013F203B01FA03F076
:102310001042F7D130782A2811D06FF02F0330788F
:10232000A0F13002092A16D8059A44F0020402EB03
:10233000820203EB42021044761C0590EFE759F845
:10234000042B0592002A03DA504244F4005405900D
:1023500044F00204761C30782E2816D116F8010FAE
:1023600044F004042A280DD06FF02F023078A0F139
:102370003003092B09D807EB870302EB4303C71887
:10238000761CF3E759F8047B761C30786C280FD064
:1023900006DC4C2817D068280DD06A2814D104E038
:1023A000742810D07A280FD10DE044F400140AE00C
:1023B00044F4801401E044F440147278824202D163
:1023C00004F58014761C761C307866280BD013DC5C
:1023D000582877D009DC002875D04528F6D0462843
:1023E000F4D047281AD19DE118E0632835D064283D
:1023F00079D0652812D195E1702873D008DC672860
:10240000F1D069286FD06E280DD06F2806D1B5E0C5
:1024100073282CD0752875D0782874D05A4617990F
:1024200090476D1C75E1C4F30250022809D00328BF
:102430000DD0D9F8001004280DD00D6009F1040961
:1024400067E1D9F80010EA17C1E90052F6E7D9F8B8
:1024500000100D80F2E70D70F0E719F8041B8DF8FD
:10246000001000208DF80100EA46012003E059F831
:1024700004AB4FF0FF3061074FF0000102D40DE0D4
:1024800008F101018846B9420FDA8045F8DB1AF8F5
:1024900008100029F4D108E008F1010188468142C2
:1024A000FADB1AF808100029F6D105985B46A0EB74
:1024B000080721463846179A00F094FA284400EBA2
:1024C000080507E04DE029E10DE01AF8010B5A4636
:1024D00017999047B8F10108F7D25B462146384674
:1024E000179A13E142E00A220092C4F302524FF01D
:1024F000000A022A08D059F804CB032A4FEAEC71EB
:102500000AD00DE029E02AE009F1070121F00702D5
:10251000F2E802C1914609E00FFA8CFC4FEAEC7137
:10252000042A03D14FFA8CFC4FEAEC71002907DA38
:102530000A460021DCF1000C61EB02012D2202E0D1
:10254000220504D52B228DF80420012203E0E207A6
:1025500001D02022F7E7904659E00A2102E010223C
:102560000DE010214FF0000A00910BE010224FF017
:10257000000A44F004040827009203E008224FF008
:10258000000A0092C4F30252022A05D059F804CB83
:102590000021032A08D009E009F1070121F0070210
:1025A000F2E802C1914605E01FFA8CFC042A01D131
:1025B0000CF0FF0C4FF00008220728D5702806D039
:1025C000009B83F0100353EA0A0305D00EE040227B
:1025D0008DF80420012208E05CEA010206D03022D6
:1025E0008DF804208DF8050002229046009B83F0B0
:1025F000080353EA0A030AD15CEA010201D1620727
:1026000005D530228DF804204FF001087F1E582890
:1026100004D034A003900EA802900DE036A0F9E794
:1026200053466046009AFDF703FE84460398825C99
:102630000298401E029002705CEA0100F0D10298FC
:1026400006A9081A00F1200A600702D524F4803494
:1026500000E00127574502DDA7EB0A0000E000205B
:1026600000EB0A01009005984144401A0590E003F0
:1026700006D45B462146179A059800F0B3F9054445
:10268000002706E001A85A46C05D179990476D1CC7
:102690007F1C4745F6DBE0030CD55B462146179AC5
:1026A000059800F09FF9054404E030205A46179938
:1026B00090476D1C0099481E00900029F5DC08E049
:1026C000029802995A460078491C0291179990473E
:1026D0006D1CBAF10001AAF1010AF1DC65E100000C
:1026E00009280100303132333435363738396162E8
:1026F00063646566000000003031323334353637AC
:1027000038394142434445460000000000F058F982
:102710000544761C307800287FF4ECAD19B02846CB
:10272000BDE8F08F620700D4062709F1070222F006
:10273000070CFCE80223E14603F000485FEA080CBE
:1027400002D00FF2702C0DE05FEA045C02D50FF2AC
:10275000682C07E05FEAC47C02D00FF2602C01E035
:10276000AFF2700C4FF0FF3823F00043CDF850C0AB
:1027700065280CD006DC452809D046281DD04728FE
:102780003DD13DE0662818D067287ED138E0002191
:10279000112F01DB112000E0781CCDE9000106A912
:1027A0000EA8FFF7DDFCDDE90F010E9A0391002171
:1027B000009207F1010A04914DE04FF000400097AC
:1027C000CDE9011006A90EA8FFF7CAFCDDE90F024A
:1027D00003920E9B11990022DDF80CA00093049245
:1027E00011B9791C00EB010AB7EB0A0004D4C0F15F
:1027F000FF3007F1010A0490AAEB0700019044E0C2
:10280000012F00DA01270021112F01DD112000E046
:102810003846CDE9000106A90EA8FFF7A1FCDDE9C5
:102820000F010E9A0391002104910092BA462107EC
:102830000CD40399514500DA8A46BAF1010F05DD3F
:10284000009AAAF10101515C302908D0B84202DA9D
:1028500010F1040F06DA0121CDE9011015E0AAF10B
:102860000101E9E7002805DC049901440491AAEB81
:10287000000102E0411C514500DD8A460499401ADE
:10288000401C01904FF000400290200704D40198B2
:10289000504501DBCDF8048000208DF84F000298F0
:1028A0000DF14F07B0F1004F25D02B200E9002986C
:1028B0004FF0020800280CDA404202902D200E90C2
:1028C00007E00A210298FDF7F6FC3031029007F884
:1028D000011DB8F10001A8F10108F2DC02980028FE
:1028E000EFD1791E0E980870307800F0200040F08B
:1028F000450007F8020D12A8C01B00F10708149844
:10290000007800B1012000EB0A01019801EBE071B1
:1029100005984144401A401E0590E00306D45B46EA
:102920002146179A059800F05DF805441498007840
:1029300018B15A46179990476D1CE00324D55B46A1
:102940002146179A059800F04DF805441CE00498BC
:10295000002807DBDDE90301884203DD0098405CC5
:10296000179901E0179930205A469047049805F1CD
:102970000105401C04900198401E019004D12E20B6
:102980005A46179990476D1CBAF10001AAF1010A45
:10299000DDDC05E017F8010B5A46179990476D1CCE
:1029A000B8F10001A8F10108F4DC5B462146179A52
:1029B0000598ABE62D0000002B0000002000000071
:1029C0002DE9F041044600251E461746880404D42C
:1029D00005E039462020B0476D1C641EF9D5284615
:1029E000BDE8F0812DE9F041044600251E469046E1
:1029F000C80301D5302700E02027880404D505E06E
:102A000041463846B0476D1C641EF9D52846BDE8DE
:102A1000F08100000000000000000102030406072E
:102A2000080900000000010203040000010000008A
:102A30000400000002000000080000000000000088
:102A4000040000000200000008000000702A0008D6
:102A5000000000201000000040210008802A00082B
:102A600010000020D00400005021000800000000E9
:102A70000000000001000000100000000024F4002D
:04000005080001F9F5
:00000001FF
