:020000040800F2
:10000000500500200D020008BF1E0008D51C000886
:10001000BD1E0008930700087724000800000000B8
:10002000000000000000000000000000C31E0008E7
:100030009507000800000000C11E0008C51E00084A
:1000400027020008270200082702000827020008EC
:1000500027020008270200082702000827020008DC
:1000600027020008270200082702000827020008CC
:1000700027020008270200082702000827020008BC
:1000800027020008270200082702000827020008AC
:10009000270200082702000827020008270200089C
:1000A00027020008911F0008270200082702000805
:1000B000270200082702000827020008270200087C
:1000C000270200082702000827020008270200086C
:1000D000270200082702000827020008270200085C
:1000E000270200082702000827020008270200084C
:1000F000270200082702000827020008270200083C
:10010000270200082702000827020008270200082B
:10011000270200082702000827020008270200081B
:10012000270200082702000827020008270200080B
:1001300027020008270200082702000827020008FB
:1001400027020008270200082702000827020008EB
:1001500027020008270200082702000827020008DB
:1001600027020008270200082702000827020008CB
:1001700027020008270200082702000800000000EC
:1001800027020008270200082702000827020008AB
:10019000270200082702000827020008270200089B
:1001A000270200082702000827020008270200088B
:1001B000270200082702000827020008270200087B
:1001C000270200082702000800000000270200089C
:1001D000270200082702000827020008270200085B
:1001E000270200082702000827020008270200084B
:1001F0002702000827020008DFF80CD000F048FAB8
:100200000048004741250008500500200648804767
:1002100006480047FEE7FEE7FEE7FEE7FEE7FEE7EB
:10022000FEE7FEE7FEE7FEE76D1F0008F9010008A4
:100230002DE9F05F0546002092469B46884606461B
:10024000814640241BE0284641464746224600F0AE
:1002500057F853465A46C01A914110D311461846D2
:10026000224600F03EF82D1A67EB01084F46224661
:100270000120002100F035F817EB00094E41201E47
:10028000A4F10104DFDC484631462A464346BDE876
:10029000F09FD2B201E000F8012B491EFBD270475B
:1002A0000022F6E710B513460A4604461946FFF742
:1002B000F0FF204610BD30B50B460146002020223D
:1002C000012409E021FA02F59D4205D303FA02F563
:1002D000491B04FA02F52844151EA2F10102F1DCC3
:1002E00030BD202A04DB203A00FA02F100207047DA
:1002F0009140C2F1200320FA03F319439040704764
:10030000202A04DB203A21FA02F00021704721FA6A
:1003100002F3D040C2F120029140084319467047D1
:100320002DE9FE4F804681EA0300C00F0C46009085
:1003300021F0004123F00045B8EB0200A94105D2AD
:100340004046214690461C460B46024623F000409C
:10035000104347D0270DC7F30A00C3F30A51029098
:10036000401A019040286BDAC3F3130040F4801B5D
:100370000098924620B10023D2EB030A63EB0B0BEB
:1003800001985946C0F140025046FFF7AAFF0646C1
:100390000D4650465946019A00F08CF910EB0800C2
:1003A0006141002487EA115284EAE7731A4340D07E
:1003B000009A62B3019A012A4FEA075215DC001B2A
:1003C00061EB02014FF0004202EA0752CDE9004220
:1003D000001C41F5801132462B4600F08CF903B029
:1003E000BDE8F08F40462146F9E7001B61EB0201B2
:1003F000001C41F5801300185B412018A2F500177E
:1004000047EB030140EAD570B6196D4111E06D0864
:100410004FEA360645EAC0754FEA0752001B61EB0A
:100420000201001C41F5801149084FEA3000001913
:10043000514132462B4603B0BDE8F04F00F04CB9B5
:100440000098012240000023D0EB020263EBE0732E
:10045000009821464FEAE074B8EB000061EB04011C
:10046000E9E783F000435BE781F0004158E72DE9BD
:10047000FE4F81EA030404F0004421F0004100949F
:100480004FF0000B23F0004350EA01045ED052EA23
:1004900003045BD0C3F30A54C1F30A552C44A4F2FD
:1004A000F3340194A0FB0254C1F3130141F4801111
:1004B000C3F3130343F4801301FB024400FB034E18
:1004C000840A970A44EA815447EA8357A4FB0768E1
:1004D00002958D0A05FB07854FEA932C04FB0C540B
:1004E0002705029D4FEA065847EA1637B5EB08057F
:1004F0006EEB070C870E920E47EA811742EA8312D1
:10050000A7FB0201B6EB0B0164EB00042B0D43EAE1
:100510000C335E1844EB1C50DA465146E7FB0201EF
:10052000C5F313044FEA0B3343EA14534FEA043282
:10053000019C43EA0603A4F10C040294009CCDE95B
:1005400000B400F0D8F803B0BDE8F08F00200146F9
:10055000F9E72DE9F04D81EA030404F0004B21F0A6
:10056000004514464FF0000A23F0004150EA05020E
:1005700020D054EA01021DD0C5F30A570246C5F344
:100580001303C1F31300C1F30A5640F4801543F47A
:100590008013A7EB0608101BD64608F2FD3873EB54
:1005A000050002D308F1010801E092185B41B8F19F
:1005B000000F03DA00200146BDE8F08D00204FF463
:1005C0008011064684460EE0171B73EB050705D322
:1005D000121B63EB050306434CEA010C49084FEA82
:1005E000300092185B4150EA0107EDD152EA030056
:1005F00012D082EA040083EA0501084305D0101BEB
:10060000AB4106D20122002306E000224FF0004356
:1006100002E06FF0010253101AEB06004CEB085198
:1006200010EB0A0041EB0B01BDE8F04D00F054B8AF
:10063000C1F30A52C1F3130140F2FF3341F48011B8
:100640009A4202DA00200146704740F233439A4250
:10065000A2F2334202DC5242FFF752BEFFF741BE24
:1006600030B5041E71F1000404DB4FF00044404239
:1006700064EB0101141E73F1000405DB1C464FF00E
:100680000043524263EB0403994208BF904230BDDD
:10069000064C074D06E0E06840F0010394E80700CF
:1006A00098471034AC42F6D3FFF7AAFD2C3000086F
:1006B0004C300008202A06DBCB17203A41FA02F022
:1006C00043EAE07306E041FA02F3D040C2F12002AF
:1006D000914008431946704710B5141E73F1000489
:1006E00008DA401C41F1000192185B411A4301D124
:1006F00020F0010010BD2DE9F04D92469B4611B14E
:10070000B1FA81F202E0B0FA80F220329046FFF7AF
:10071000E8FD04460F4640EA0A0041EA0B01534651
:100720005A46084313D0114653EA010019D0C8F1C4
:1007300040025046FFF7E4FD05460E465046594636
:100740004246FFF7CEFD084305D0012004E02046D5
:100750003946BDE8F08D0020054346EAE0762C439B
:1007600037430A986305E40AA0EB08000022FD0A5B
:1007700044EA47540A3002D500200146E9E7010562
:1007800010196941DDE9084500196941BDE8F04DDE
:10079000A2E7FEE770477047B0B5044600F0E6F800
:1007A00005468D480078611C18BF044400F0DEF84F
:1007B000401BA042FAD3B0BD2DE9FC4F5E4A0A248B
:1007C00090425E4A024408BF09244FEAB2234FF028
:1007D000000B092B38BF4FEAB2244FF0010A4FF04B
:1007E000000C00220094BCF1200F00F0A3800AFA54
:1007F00002F60B68334200F097804F68122F1BD827
:100800000AFA07F313F0061F16D00323846803FACD
:100810000CF3D1F80CE09C430EFA0CF52C436FEA74
:10082000030E8460C7F3001445689440B5434FEA53
:1008300042092C43446005E00323E14603FA0CF32C
:100840006FEA030EC5688C6805EA0E0504FA09F420
:100850002C43C46047F01004122C12D10BF01C047E
:100860000F2303FA04F56FF0030303EA520707446A
:10087000D7F820800B6928EA0505A3402B433B628B
:100880004F68036807F0030403EA0E0304FA09F44F
:1008900023430360FB0047D52B4B22F003051C4686
:1008A0001B6843F48043264F2360BE4623683D44C3
:1008B00003F480430F2401930BF00C03019F9C4031
:1008C000224FB846EF5927EA0404009F07FA03F3C2
:1008D000234345F80830DEF800304D6843EA06044B
:1008E000EF0358BF23EA0604CEF80040DEF80430D8
:1008F000AF0343EA060458BF23EA0604CEF80440D7
:10090000DEF80830EF0243EA060458BF23EA060483
:10091000CEF808400B4BAD021F461B6843EA0604A5
:1009200058BF23EA06043C600BF1040B0CF1020CE7
:10093000013258E7BDE8FC8F002402400000FEBFF2
:10094000003C01400C3C01404438024008FCFFFFE1
:10095000426902EA0103914341EA03418161704720
:10096000002A08BF0904816170470000054800683B
:10097000704700BF1848034900780A6810440860AF
:10098000704700BF4C01002080B5032000F068F8DC
:10099000002000F005F800F023F8002080BD0000E2
:1009A00070B50D4E044630784FF47A71B1FBF0F01B
:1009B0000A490968B1FBF0F000F0AAFD01250F2CEF
:1009C00008D838B94FF0FF3021460022002500F04A
:1009D0002BF87460284670BD040000200C00002035
:1009E00082B04048016841F080510160016801F027
:1009F000805101910199416841F480414160406812
:100A000000F480400090009802B07047002808D49D
:100A100000F01F01012202FA01F14009014A42F8E7
:100A20002010704700E100E0B0B5134B4FF0FF35E8
:100A30001B68C3F30223DC1E83F0070338BF0024C6
:100A4000042B28BF042305FA03F3994305FA04F3A2
:100A5000A1409A431143BDE8B04001F00DBD00BF75
:100A600005494FF6FF030A681A4060F30A2203485B
:100A700010430860704700BF0CED00E00000FA056D
:100A8000BCB51848E04D016841F080510160006834
:100A900000F0805001900198286840F48030286070
:100AA000FFF764FF04466868C00306D4FFF75EFFE3
:100AB000001BB0F57A7FF6D90FE0286840F40030CB
:100AC0002860FFF753FF04466868800307D4FFF7E8
:100AD0004DFF001BB0F57A7FF6D90320BCBD002086
:100AE000BCBD00BF403802402DE9FC47D0F800A053
:100AF00004465FEACA70C34E02D14FF000090BE012
:100B0000B06820F40000B060606BB1680143B0FAD7
:100B100080F04FEA5019B1605FEA0A3002D44FF01A
:100B2000000811E0E06BD6F88C1021F44011B0F50C
:100B3000801F41EA0001B0FA80F04FEA5018C6F871
:100B40008C1008BF4FF001095FEACA2011D5206C54
:100B5000D6F88C1021F44001002841EA0001C6F8C3
:100B60008C1008BF4FF00108B0F5800F08BF4FF0A0
:100B700001095FEA8A60574653D5306CA24F40F0B6
:100B800080503064306C00F08050019001983868DB
:100B900040F480703860FFF7E9FE05463868C0050C
:100BA00005D4FFF7E3FE401B6428F7D919E2306F44
:100BB00010F4407022D0216B01F4407188421DD0A6
:100BC000306F316F41F4803120F440703167316F04
:100BD00021F4803131673067306FC0070ED0FFF7E6
:100BE000C5FE054641F28837306F800706D4FFF70F
:100BF000BDFE411B0320B942F6D9F3E12768206B03
:100C0000B268824922F4F81200F440730140B3F54F
:100C1000407F08BF0A43B2606FF31F30316F084353
:100C20003067F8060BD5D6F88C0020F08070C6F837
:100C30008C00A06BD6F88C100843C6F88C007804A2
:100C400007D5606ED6F8901021F440310843C6F8FD
:100C50009000380407D5A06ED6F8901021F44021FA
:100C60000843C6F89000F80307D5E06ED6F8901058
:100C700021F440110843C6F89000B80307D5206F4F
:100C8000D6F8901021F440010843C6F89000780689
:100C900007D5606CD6F8901021F003010843C6F820
:100CA0009000380607D5A06CD6F8901021F00C0102
:100CB0000843C6F89000F80507D5E06CD6F8901008
:100CC00021F030010843C6F89000B80507D5206D23
:100CD000D6F8901021F0C0010843C6F890007805BE
:100CE00007D5606DD6F8901021F440710843C6F81E
:100CF0009000380507D5A06DD6F8901021F440611A
:100D00000843C6F89000F80407D5E06DD6F89010B7
:100D100021F440510843C6F89000B80407D5206E6E
:100D2000D6F8901021F440410843C6F890007802AC
:100D300007D5A06FD6F8901021F080610843C6F85F
:100D40009000B8020DD5E06FD6F8901021F0006148
:100D5000B0F1006F41EA0001C6F8901008BF4FF0F3
:100D60000108780307D5606FD6F8901021F0407124
:100D70000843C6F89000380208D5D4F88000D6F8A9
:100D8000901021F080510843C6F89000780108D5F2
:100D9000D4F88400D6F8901021F000510843C6F82A
:100DA0009000380108D5D4F88800D6F88C1021F0CE
:100DB00000710843C6F88C00F80008D5D4F88C0000
:100DC000D6F88C1021F080610843C6F88C00B9F188
:100DD000000F02BF0AF0807007F0007110EB0100F5
:100DE00000F08280306820F080603060FFF7BEFD48
:100DF0000546306800010BD5FFF7B8FD401B64289D
:100E0000F7D9EEE00038024000700040FFFCFF0F11
:100E10002068C10712D0616B81B9D6F88410D6F86A
:100E2000842001F4403102F070621144D4E90123BE
:100E300041EA821141EA0371C6F88410010303D527
:100E4000E16BB1F5801F05D0C1021DD5216CB1F554
:100E5000800F19D1D6F88410D6F8842001F44031DF
:100E600002F0E04211446268E36841EA821141EA1B
:100E70000361656AC6F88410691ED6F88C2022F0DA
:100E80001F021143C6F88C10C10110D5D6F884108A
:100E9000D6F8842001F0706102F0E04211446268EB
:100EA000236941EA821141EA0341C6F884108001B6
:100EB0000AD5231D0FCB1B0443EA801040EA0260D1
:100EC00040EA0170C6F88400306840F0806030600D
:100ED000FFF74CFD05463068000105D4FFF746FDDD
:100EE000401B6428F7D97CE017F0080008BFB8F170
:100EF000000F79D0306820F080503060FFF736FD69
:100F000005463068800005D5FFF730FD401B64289A
:100F1000F7D966E02068010301D5E16B19B1C10280
:100F20001ED5216CE1B9D6F88810D6F8882001F4D6
:100F3000403102F0E0421144A56AD4E9052341EAB8
:100F4000821141EA0361C6F888106FF0FF01D6F8FC
:100F50008C2001EB052122F4F8521143C6F88C10C5
:100F6000810214D5E16FB1F1006F10D1D6F888106D
:100F7000D6F8882001F0706102F0E0421144626905
:100F8000236A41EA821141EA0341C6F8881000074A
:100F900018D5D6F88800D6F8881000F0706001F4F3
:100FA000403108446169E26940EA811040EA027018
:100FB000E36AC6F88800D6F88C0020F44030184365
:100FC000C6F88C00306840F080503060FFF7CEFCEF
:100FD00004463068800007D4FFF7C8FC001B652872
:100FE000F7D30320BDE8FC870020BDE8FC870000A4
:100FF0002DE9F041002800F08D80484F0446D7F8D5
:101000000004884600F00F0088420DD2D7F8000493
:1010100020F00F0040EA0800C7F80004D7F80004E9
:1010200000F00F00404575D12068810711D54107B8
:1010300003D5B96841F4E051B960010703D5B96837
:1010400041F46041B960A168BA6822F0F00211432E
:10105000B960C00727D06068012803D139688903C7
:1010600008D457E03968022802D1890102D451E03E
:1010700089074FD5B96821F003010843B860FFF72D
:1010800075FC064641F288356068B96801F00C01CC
:10109000B1EB800F07D0FFF769FC801BA842F3D9A2
:1010A0000320BDE8F081D7F8000400F00F004045B0
:1010B0000DD9D7F8000420F00F0040EA0800C7F867
:1010C0000004D7F8000400F00F00404522D120684A
:1010D000410705D5E168BA6822F4E0521143B960CE
:1010E000000706D52069B96821F4604141EAC000D3
:1010F000B86000F033F8B968094AC1F30311515CD4
:10110000C8401349086007480068FFF749FC002001
:10111000BDE8F0810120BDE8F08100BF0038024049
:10112000F42F00080800002009480A4900680968EF
:10113000C1F38221084A515CC84070470448054900
:1011400000680968C1F34231034A515CC8407047E6
:101150000C000020083802400430000810B5144C80
:10116000606800F00C00082804D0042814BF11485F
:10117000114810BD22682068400202F03F020E486C
:101180004FF000035CBF42F20040C0F2F40021685F
:10119000C1F38811A0FB0101FFF74AF82168022280
:1011A000C1F3014102EB4101B0FBF1F010BD00BF02
:1011B000043802400024F40040787D012DE9FC4110
:1011C000002800F0DE8004460078CF4EC0074BD0E8
:1011D000B06800F00C00042806D13068800343D5C5
:1011E0006068002840D1CCE0B06800F00C0008280E
:1011F00002D170684002F0D4606868B1B0F5803FF9
:1012000006D03168B0F5A02F1BD141F480203060AA
:10121000306840F480301AE0306820F4803030606C
:10122000306820F480203060FFF7A0FB054630686E
:10123000800319D5FFF79AFB411B03206429F6D9D7
:101240005FE121F480303060306820F4802030602D
:10125000FFF78CFB05463068800305D4FFF786FB5B
:10126000401B6428F7D91BE1207880072DD5B06892
:1012700010F00C0F07D0B06800F00C00082809D15E
:101280007068400206D43068800717D5E0680128EE
:1012900014D076E03068E168002900F0C58040F0A5
:1012A00001003060FFF762FB05463068800705D417
:1012B000FFF75CFB401B0228F7D9F1E02069316899
:1012C00021F0F80141EAC00030602078000720D505
:1012D000706F616971B140F001007067FFF746FB04
:1012E0000546706F800714D4FFF740FB401B0228AF
:1012F000F7D9D5E020F001007067FFF737FB05460E
:10130000706F800705D5FFF731FB401B0228F7D926
:10131000C6E02078400737D4A769002F00F0F0809E
:10132000B06800F00C00082861D17068012F28D047
:10133000E16900F480028A4223D1216A00F03F0271
:101340008A421ED147F6C071626A0140B1EB821F2A
:1013500017D1A16A4FF6FF72C903914300F44032DE
:10136000A1F580318A420CD1E16A00F07062B2EBE3
:10137000016F06D1216B00F0E040B0EB017F00F07F
:10138000BF800120BDE8FC81306CC0000BD4306C04
:101390004FF0010840F080503064306C00F0805015
:1013A0000190019801E04FF00008584F3868C005DF
:1013B0000FD4386840F480703860FFF7D7FA0546DC
:1013C0003868C00505D4FFF7D1FA401B6428F7D967
:1013D00066E0A068C8B3012805D0316F05284BD15D
:1013E00041F004003067306F40F001004AE030689F
:1013F00020F080703060FFF7B9FA0546022F09D15E
:101400003068800158D5FFF7B1FA411B032002294B
:10141000F6D976E03068800172D5FFF7A7FA411B54
:1014200003200229F6D96CE020F001003060FFF7BC
:101430009DFA0546306880077FF547AFFFF796FABB
:10144000411B03200229F5D95BE0306F20F0010039
:101450003067306F20F004003067FFF787FA0546E9
:1014600041F28837306F80071DD5FFF77FFA411BA7
:101470000320B942F6D944E021F001003067306F13
:1014800020F004003067FFF771FA054641F2883713
:10149000306F800707D4FFF769FA401BB842F7D9CD
:1014A0000320BDE8FC81B8F1000F3FF435AF306C8C
:1014B00020F0805030642FE704F11C05246B2FCD01
:1014C0000843D90340EA82104FF6FF72914340EA85
:1014D0000560A1F58031084340EA0470706030680F
:1014E00040F080703060FFF741FA044630688001B8
:1014F00006D4FFF73BFA011B03200229F6D900E0CE
:101500000020BDE8FC8100BF0038024000700040B0
:10151000411E0020B0EB116F01D001207047044A3A
:10152000F023516003490B700721906011607047F0
:1015300010E000E023ED00E07047704770470000C6
:1015400070B590F83C300222012B30D080F83D205D
:10155000012280F83C20904C0268556842F4806675
:101560009368A64202BF25F470054E683543B2F178
:10157000804F0E6825F0700545EA060555600BD0D2
:101580007F4DAA421CBF7F4DAA4205D07E4DAA4284
:101590001CBF7E4DAA420CD123F0800389681943F9
:1015A00091600022012180F83C2080F83D10104617
:1015B00070BD774DAA42EFD0764DAA4218BFA24225
:1015C000EAD0EEE760B310B5044690F83D0028B9C4
:1015D000002084F83C00204600F024F80220211D61
:1015E00084F83D00206800F0D9FC012084F8480010
:1015F00084F83E0084F83F0084F8400084F84100FD
:1016000084F8420084F8430084F8440084F84500DC
:1016100084F8460084F8470084F83D00002010BD9F
:101620000120704710B586B0044601A81421FEF7CA
:1016300037FE2068B0F1804F15D05549884231D12E
:1016400019480022416941F00101416100214069CE
:1016500000F00100009000981920FFF7E5F919202B
:10166000FFF7D4F91EE01048016941F00101016162
:10167000016901F0010100910099016841F0010147
:1016800001600021006800F0010000900120059039
:10169000CDE903110221CDE90101009801A9034818
:1016A000FFF78AF806B010BD303802400000024053
:1016B00090F83D1001291CD1022180F83D100168ED
:1016C000B1F1804F0BD02E4881421CBF2D48814282
:1016D00005D02D4881421CBF2C4881420BD188681F
:1016E0002E4A02400020062A18BFB2F5803F0BD1D7
:1016F000704701207047ED488142F0D02548814273
:10170000EDD025488142EAD0086840F00100086029
:101710000020704790F83D10012920D1022180F867
:101720003D100168C868B1F1804F40F00100C86009
:101730000BD0134881421CBF1248814205D0124889
:1017400081421CBF114881420BD18868134A024074
:101750000020062A18BFB2F5803F0BD17047012048
:101760007047D2488142F0D00A488142EDD00A4801
:101770008142EAD0086840F001000860002070470C
:101780000004004000080040000C00400018004029
:10179000000001400040014000040140070001003A
:1017A000B0B590F83C2004460220012A20D084F8ED
:1017B0003D00012084F83C00364D2068024652F876
:1017C000083F2B4013600B682BB1102B03D0202B4C
:1017D00018BF302B0DD1106820F07000184340F076
:1017E000070010600020012184F83C0084F83D10BF
:1017F000B0BD402B17D0502B22D0602B2DD0B3F58D
:10180000005F37D0702BEDD1D1E90103C9681843CF
:1018100040EA0120116821F47F41084310601068FC
:1018200040F07700DDE74B68CA68194600F066FCB7
:10183000226852F8080F40F0470020F03000D0E74F
:101840004B68CA68194600F059FC226852F8080F24
:1018500040F0570020F02000C3E74B68CA681946E3
:1018600000F05DFC226852F8080F40F0670020F09D
:101870001000B6E7D1E90103C968184340EA012026
:10188000116821F47F4108431060106840F48040E3
:10189000A7E700BF8800FEFF704710B50446006848
:1018A0000169890744BFC1685FEA817140D4016959
:1018B000490744BFC1685FEA417145D4016909071E
:1018C00044BFC1685FEA01714BD40169C90644BFD6
:1018D000C1685FEAC16150D40169C9071CBFC16812
:1018E0005FEAC17156D10169090644BFC1685FEA68
:1018F000016157D40169C90544BFC1685FEA01614C
:1019000058D40169490644BFC1685FEA416159D4AE
:101910000169890644BFC1685FEA816100D410BDD6
:101920006FF0200101612046BDE81040FFF706BEC0
:101930006FF002010161012121778069800749D0A0
:101940002046FFF7A9FF4BE06FF00401016102217F
:101950002177806910F4407F46D02046FFF79CFF36
:1019600048E06FF00801016104212177C069800718
:1019700044D02046FFF790FF46E06FF01001016170
:1019800008212177C06910F4407F41D02046FFF73D
:1019900083FF43E06FF001010161204600F044F84D
:1019A0002068A0E76FF0800101612046FFF7C5FDC8
:1019B00020689FE76FF4807101612046FFF7BCFD4E
:1019C00020689EE76FF040010161204600F0BDF8FD
:1019D00020689DE7204600F025F8204600F023F817
:1019E00000202077206862E7204600F01BF82046A0
:1019F00000F019F80020207720685FE7204600F00B
:101A000011F8204600F00FF80020207720685CE7EE
:101A1000204600F007F8204600F005F80020207767
:101A2000206859E77047704770B501681F488142C8
:101A300000D070BD1E4C0026E1681E4D4A6A4E6201
:101A400000F5823001212A60FEF782FF1A48006803
:101A5000032808D8DFE800F00209111A24A001F0D9
:101A6000B7FA00201CE02E6070BD29681DA000F0B0
:101A700035FE28682060012006E0296816A000F0E5
:101A80002DFE28686060002001210AE029680BA073
:101A900000F024FE0CA001F09BFA2868A060012051
:101AA0000021BDE8704000F069BA00BF00000140AD
:101AB000180000201400002010000020424C554562
:101AC000203D2025640D0A002D2D2D544353204523
:101AD0004E44212D2D2D0D00475245454E203D20D1
:101AE00025640900524544203D202564090000007A
:101AF0002D2D2D544353205354415254212D2D2D1F
:101B00000D000000B0B590F83C2004460220012AE8
:101B10001AD084F83D000125204684F83C5000F09E
:101B2000A9FA00284FF0010009D12068C16821F00E
:101B30004001C160C16821F48041C16000200021E2
:101B400084F83C1084F83D50B0BD704710B5A0B18A
:101B50000446806F28B9002084F87400204600F005
:101B600025F82420A0672068016821F001010160A8
:101B7000204600F06BFB012801D1012010BD606AF6
:101B800010B1204600F0DCFA2068416821F4904151
:101B90004160816821F02A018160016841F0010102
:101BA00001602046BDE8104000F01FBB10B586B0B4
:101BB000044601A81421FEF773FB2168BE48814248
:101BC00022D1754900F570404A6942F010024A611D
:101BD0004A6902F010020092009A0A6842F001027B
:101BE0000A60096801F001010091072105910321B4
:101BF000049100210391022102914FF4C0610191EF
:101C0000009901A9FEF7D8FD06B010BD2DE9FC47EB
:101C10000446806F20280AD10D460120002957D0A4
:101C20001646002A54D094F87400012802D10220EC
:101C3000BDE8FC874FF0000A0120C4F880A0994657
:101C400084F874002120A067FEF790FEA4F852608B
:101C50008046A4F85060A068B0F5805F06D127697F
:101C60000026002F0CBF2E462F4601E02F460026EF
:101C700084F874A0B4F85200D8B120468021002224
:101C80004346CDF8009000F0A9FBD8B927B117F86A
:101C9000010B2168886206E036F8021B20680027E5
:101CA0006FF35F218162B4F852000138A4F852004A
:101CB000E0E72046402100224346CDF8009000F0A6
:101CC0008DFB10B10320BDE8FC872020A067002019
:101CD000BDE8FC87FEE700002DE9F04F87B04FF02C
:101CE00000082D48CDF818802C4C016804F5E0560A
:101CF00041F080012A4F0160002201684FF0300955
:101D000001F0800101910199016841F00101016038
:101D1000016801F0010101910199016841F002019E
:101D200001603021006800F0020001900198304607
:101D3000B847204630210022B84704F580640721C7
:101D400020460022B84702AF4FF0020A0125DFF813
:101D500054B030463946CDF81480CDF810A0CDE906
:101D60000295D8470D483946CDE90488CDE902955A
:101D7000D8470320CDF81480CDE9035502902046C2
:101D80003946D8470420CDF810A0029020463946A5
:101D9000D84707B0BDE8F08F30380240000002405D
:101DA00061090008B907000810B588B07A48002119
:101DB0004CF2503240F2E733A74C0791C0E90043A0
:101DC000C0E90212C0E904118161CDE90511CDE934
:101DD0000311CDE90111FFF7F5FB08B1FEF7DBFCBC
:101DE0004FF4805004A904906B48FFF7D9FC08B168
:101DF000FEF7D1FC002001A90390CDE9010066485F
:101E0000FFF79EFB08B1FEF7C6FC08B010BD00BF8F
:101E1000B0B588B003A81421FEF742FA174C4FF072
:101E200080412046002540F80C1F4FF0FF310295FD
:101E3000CDE900558561C0E90155C0E90315FFF7FB
:101E4000C1FB08B1FEF7A7FC5020079505950C349F
:101E500004900720039003A92046FFF753FE08B122
:101E6000FEF799FC00206946029000902046FFF79B
:101E700067FB08B1FEF78FFC08B0B0BD180000206A
:101E800010B50C4800210C224FF4E1330A4CC0E994
:101E90000043C0E90211C0E90412C0E90611C0E91B
:101EA0000811FFF753FE18B1BDE81040FEF773BCF0
:101EB00010BD00BFC800002000100140FEE77047C1
:101EC00070477047FEF756BD70B5B6B029AD2C21EE
:101ED00005F10800FEF7E4F96C468C21201DFEF7A1
:101EE000DFF920480226016841F080510160006856
:101EF00000F08050249024981B48016841F4404130
:101F00000160006800F440402490C020CDE93366B1
:101F100032900C2031904FF48000CDE92F604FF4C7
:101F200080302A900120299024982846FFF746F90E
:101F3000FEF7A6FD4FF48050002528904FF4A050E6
:101F400027900F20CDE92565249024A80621FFF7CE
:101F50004FF84020119500902046FEF7C5FD36B0A1
:101F600070BD00BF40380240007000400248016868
:101F700041F470010160704788ED00E0034A0023DE
:101F8000536013680133136000F088BA100000201A
:101F90000148FFF782BC00BF7C000020B0B502689A
:101FA000B0F1804F05D0284B98421CBF274B984278
:101FB00035D122F070024B681A43B0F1804F17D030
:101FC000214B98421CBF214B984211D0204B984284
:101FD0001CBF224B98420BD0214B98421CBF214B77
:101FE000984205D01C4B98421CBF1A4B984220D1F6
:101FF00022F44072CB681A434D6922F080020B68CC
:102000008C682A43026040F48062C4628362114B90
:102010009A4204BF0969016301214161B0BD0C4BC3
:102020009842C6D00B4B9842C3D00B4B9842C0D0BD
:10203000C3E70D4B9842DBD00C4B9842D8D00C4BE9
:102040009842D5D0D8E700BF000400400008004007
:10205000000C004000040140000001400018004056
:10206000001C0040002000400040014000480140AA
:102070000044014070B5204B0068D1E9002503F110
:10208000700486682C4033402343134383606FF011
:10209000030303EB3513032B2CD8DFE803F00218FE
:1020A000060C052A19D1012070BD8B680A691946F2
:1020B00000F035F81EE0D1E9022309691A4342EA2B
:1020C0000121826822F47F421143816012E08B6813
:1020D0000A69194600F012F80CE0026A036A23F05C
:1020E000010303620969836923F0F00343EA0111E4
:1020F00081610262002070BD88FFFEFF10B5036A97
:10210000046A24F001040462846924F0F00444EABF
:102110000212826123F00A021143016210BD036AB8
:1021200023F010030362836923F4704343EA02320D
:10213000036A826123F0A00242EA01110162704742
:1021400010B5416ACA0706D00268836A546824F44D
:102150000034234353608A0706D50268C36A546873
:1021600024F48034234353604A0706D50268036B86
:10217000546824F48024234353600A0706D5026878
:10218000436B546824F4004423435360CA0606D5C5
:102190000268836B946824F48054234393608A0616
:1021A00006D50268C36B946824F4005423439360FB
:1021B0004A0610D50268036C5468B3F5801F24F4F6
:1021C000801444EA0304546005D1436C546824F439
:1021D000C00423435360090606D50168806C4A6831
:1021E00022F400221043486010BDBCB50446002014
:1021F000C4F88000FEF7BAFB0546206801680907AD
:102200000BD56FF07E404FF4001100902046002265
:102210002B4600F0E3F870B92068006840070CD541
:102220006FF07E404FF480010090204600222B4644
:1022300000F0D4F808B10320BCBD2020A067E067FF
:10224000002084F874002066BCBD000070B5044610
:10225000006804F10803544E0ECB056835406669EA
:10226000194341EA0603E1690B432B4303604368CA
:1022700023F440531A434260A269236A1A438368D5
:1022800023F430631A438260484A904218D0484A87
:10229000904219D0474A90421AD0474A90421BD0E8
:1022A000464A90421CD0464A90421DD0454A904230
:1022B00040D0454A904242D14448464A006817E01F
:1022C00042480068800812E04048006800090EE0BB
:1022D0003E48006880090AE03C480068000A06E0C1
:1022E0003A480068000B02E038480068800B384A22
:1022F00000F0030052F820203748B1F5004F0CD110
:102300000121082A4AD8DFE802F0051C25491F49A7
:1023100049492300FEF708FF18E00121082A3DD8AB
:10232000DFE802F005262F3C293C3C3C2D00FEF75F
:10233000FBFE22E02548274A0068800AD8E71022E1
:10234000DAE7FEF7FBFE01E0FEF708FF10B922E036
:102350004FF4004061684A0802EB4000B0FBF1F026
:102360004FF6F071014018D0C0F34200084310E06E
:10237000FEF7E4FE01E0FEF7F1FE10B90BE04FF4CA
:102380000040616800EB5100B0FBF1F080B2102812
:1023900003D32168C860002100E001210020C4E9C6
:1023A0001900084670BD00BFF369FFEF004400400C
:1023B00000480040004C00400050004000780040C1
:1023C000007C0040001401400010014090380240A1
:1023D0001C3000080C3000080024F4002DE9F843FC
:1023E000DDF82090984616460F460446016809F12C
:1023F0000105C8693840C01BB0FA80F04009B042FE
:1024000023D1002DF5D0FEF7B1FA2168B9F1000F04
:102410000A681DD0A0EB0800484519D8500744BFF2
:10242000C8695FEA0050E4D54FF4006008620868AC
:1024300020F4D0700860886820F0010088602020B7
:10244000A067E06704F180000DE00020BDE8F8839C
:1024500022F4D0700860886820F001008860202095
:10246000A06704F17C00002184F874102021016031
:102470000320BDE8F883FEE710B500F00F03064C1B
:102480002344044AB0F1FF3FC8BF83180801187005
:1024900010BD00BF00E400E014ED00E070B50D4693
:1024A00006460843194C09D1204610210022FEF7A8
:1024B00057FA204620210022FEF752FA1EB9012DBC
:1024C00001D1002216E0701EB0FA80F008BF002D86
:1024D0004FEA50160AD12046102101220126FEF7AC
:1024E0003FFA204620210022FEF73AFA012D0CD1B6
:1024F0005EB1012220461021FEF732FA204620214B
:102500000122BDE87040FEF72BBA70BD001C0240EE
:10251000BCB5094D04468DF807000DF107012846AA
:1025200001224FF47A73FFF771FB2868C16909062D
:10253000FCD52046BCBD00BFC80000200000000044
:10254000FEF722FAFFF7C0FCFFF7C6FBFFF72CFCF3
:10255000FFF75EFCFFF794FC4748FFF7DBF84748BE
:10256000FFF7A6F8464C474D2046102100220026D2
:10257000A847204620210122A84704F5806B0421AA
:1025800058460122A84740F6B830FEF705F93F4FFC
:102590003FA59FED378B0C2E15D0B9193A4891ED18
:1025A000000AB8EEC00B304488EE000BB7EEC00B4B
:1025B00080ED000AB7EEC00A284653EC102B00F05D
:1025C0008DF80436E7E7002434A50C2C13D02E48F0
:1025D000204490ED000A381990ED001AB8EEC11AA7
:1025E000284620EE010ABDEEC00A10EE101A00F0D7
:1025F00075F80434E9E72BA000F0EAFCDFF8C0A08E
:1026000030A532A633A44FF000082C48C0F8008053
:1026100040F6B830CAF80080FEF7BEF858460221EE
:10262000FEF796F9DFF86090B8F1000F03D0B8F12B
:10263000030F03D1E7E7284600F050F8204607EBE8
:102640008801B8F1020F08BF304691ED000AB8EEDC
:10265000C00A99ED001A21EE000ABDEEC00A10EE84
:10266000101A00F03BF809F1040908F10108DBE752
:102670000000000000E06F407C00002024000020EB
:1026800000000240610900087000002018000020CE
:1026900025356C6620200D0A000000002564200D01
:1026A0000A00000057686974652042616C616E63BE
:1026B0006520446F6E65210D0000000014000020AD
:1026C00010000020524742203D2028002564290D9B
:1026D0000A00000025642C20000000000FB4054B08
:1026E00010B503A9044A029800F0DAF810BC5DF8AE
:1026F00014FB0000112500080000002002E008C8BB
:10270000121F08C1002AFAD170477047002001E06B
:1027100001C1121F002AFBD1704700002DE9FF5FA5
:1027200082B00021DDE90430020DDDF840B0034342
:1027300018D044F61050A2F2FF32424315141198FB
:1027400001281FD0A5EB0B00401C5FEA000A4FF0E8
:1027500000064E4FDFF83891B046504615D5CAF105
:10276000000413E0119801244AA3012801D16FEA63
:102770000B010298119AC0E90031C0E9024206B08B
:10278000BDE8F09FCBF10000DFE704460021404A9E
:10279000491842EB0450CDE9001012E0E00707D0E1
:1027A00032463B4640464946FDF761FE8046894633
:1027B00032463B4610461946FDF759FE06460F467F
:1027C0006410002CEAD1DDE90401DDE90023BAF14F
:1027D000000F06DAFDF74BFE42464B46FDF747FE7B
:1027E00005E0FDF7B6FE42464B46FDF7B2FE044655
:1027F0000E460022284BFDF733FF03D84FF0FF3081
:10280000014607E00022254B20463146FDF788FDB2
:10281000FDF70EFF102409E0002C0ADB0A2200233A
:10282000FDF706FD039B30321A55641E50EA010283
:10283000F2D1641C039AC4F111031444119A012AC1
:1028400003D0012208430DD10AE0084304D0002040
:102850004FF0110B119072E7A3EB0B056D1E0DE00D
:102860005B4504DD4FF0000205F1010504E003DAE9
:102870004FF00002A5F10105002AECD00298119951
:10288000C0E90231C0E9004579E7000000001440CA
:102890000000F03F300000000000F0430000E03F87
:1028A0002DE9FF4F95B09B468946064600250FE26D
:1028B000252877D100242746F84A0121059400E015
:1028C000044316F8013F203B01FA03F01042F7D110
:1028D00030782A2811D06FF02F033078A0F1300221
:1028E000092A16D8059A44F0020402EB820203EB8F
:1028F00042021044761C0590EFE759F8042B05922C
:10290000002A03DA504244F40054059044F00204D3
:10291000761C30782E2816D116F8010F44F00404E6
:102920002A280DD06FF02F023078A0F13003092B48
:1029300009D807EB870302EB4303C718761CF3E7BC
:1029400059F8047B761C30786C280FD006DC4C28B4
:1029500017D068280DD06A2814D104E0742810D04C
:102960007A280FD10DE044F400140AE044F48014F6
:1029700001E044F440147278824202D104F58014DC
:10298000761C761C307866280BD013DC582877D05C
:1029900009DC002875D04528F6D04628F4D0472811
:1029A0001AD19DE118E0632835D0642879D06528D4
:1029B00012D195E1702873D008DC6728F1D069281E
:1029C0006FD06E280DD06F2806D1B5E073282CD0BB
:1029D000752875D0782874D05A46179990476D1C81
:1029E00075E1C4F30250022809D003280DD0D9F8AC
:1029F000001004280DD00D6009F1040967E1D9F831
:102A00000010EA17C1E90052F6E7D9F800100D806E
:102A1000F2E70D70F0E719F8041B8DF800100020A4
:102A20008DF80100EA46012003E059F804AB4FF0AD
:102A3000FF3061074FF0000102D40DE008F1010101
:102A40008846B9420FDA8045F8DB1AF808100029E9
:102A5000F4D108E008F1010188468142FADB1AF856
:102A600008100029F6D105985B46A0EB080721461F
:102A70003846179A00F094FA284400EB080507E05E
:102A80004DE029E10DE01AF8010B5A4617999047DD
:102A9000B8F10108F7D25B4621463846179A13E190
:102AA00042E00A220092C4F302524FF0000A022AC6
:102AB00008D059F804CB032A4FEAEC710AD00DE094
:102AC00029E02AE009F1070121F00702F2E802C13A
:102AD000914609E00FFA8CFC4FEAEC71042A03D10D
:102AE0004FFA8CFC4FEAEC71002907DA0A46002104
:102AF000DCF1000C61EB02012D2202E0220504D57D
:102B00002B228DF80420012203E0E20701D02022CD
:102B1000F7E7904659E00A2102E010220DE010216B
:102B20004FF0000A00910BE010224FF0000A44F031
:102B300004040827009203E008224FF0000A0092E4
:102B4000C4F30252022A05D059F804CB0021032A0B
:102B500008D009E009F1070121F00702F2E802C1FB
:102B6000914605E01FFA8CFC042A01D10CF0FF0C01
:102B70004FF00008220728D5702806D0009B83F06C
:102B8000100353EA0A0305D00EE040228DF804201A
:102B9000012208E05CEA010206D030228DF8042010
:102BA0008DF8050002229046009B83F0080353EA4B
:102BB0000A030AD15CEA010201D1620705D530227D
:102BC0008DF804204FF001087F1E582804D034A04F
:102BD00003900EA802900DE036A0F9E75346604638
:102BE000009AFDF725FB84460398825C0298401EFC
:102BF000029002705CEA0100F0D1029806A9081A5E
:102C000000F1200A600702D524F4803400E0012797
:102C1000574502DDA7EB0A0000E0002000EB0A01A7
:102C2000009005984144401A0590E00306D45B46A5
:102C30002146179A059800F0B3F90544002706E0ED
:102C400001A85A46C05D179990476D1C7F1C4745E7
:102C5000F6DBE0030CD55B462146179A059800F099
:102C60009FF9054404E030205A46179990476D1C9F
:102C70000099481E00900029F5DC08E002980299AE
:102C80005A460078491C0291179990476D1CBAF179
:102C90000001AAF1010AF1DC65E100000928010048
:102CA00030313233343536373839616263646566C2
:102CB0000000000030313233343536373839414284
:102CC000434445460000000000F058F90544761CD6
:102CD000307800287FF4ECAD19B02846BDE8F08FBD
:102CE000620700D4062709F1070222F0070CFCE86E
:102CF0000223E14603F000485FEA080C02D00FF21D
:102D0000702C0DE05FEA045C02D50FF2682C07E03E
:102D10005FEAC47C02D00FF2602C01E0AFF2700CCD
:102D20004FF0FF3823F00043CDF850C065280CD099
:102D300006DC452809D046281DD047283DD13DE076
:102D4000662818D067287ED138E00021112F01DBDA
:102D5000112000E0781CCDE9000106A90EA8FFF7BC
:102D6000DDFCDDE90F010E9A03910021009207F1CD
:102D7000010A04914DE04FF000400097CDE90110A9
:102D800006A90EA8FFF7CAFCDDE90F0203920E9B0D
:102D900011990022DDF80CA00093049211B9791C5E
:102DA00000EB010AB7EB0A0004D4C0F1FF3007F1D1
:102DB000010A0490AAEB0700019044E0012F00DA19
:102DC00001270021112F01DD112000E03846CDE957
:102DD000000106A90EA8FFF7A1FCDDE90F010E9A7C
:102DE0000391002104910092BA4621070CD4039963
:102DF000514500DA8A46BAF1010F05DD009AAAF1C1
:102E00000101515C302908D0B84202DA10F1040FF8
:102E100006DA0121CDE9011015E0AAF10101E9E787
:102E2000002805DC049901440491AAEB000102E0AA
:102E3000411C514500DD8A460499401A401C01900E
:102E40004FF000400290200704D40198504501DB68
:102E5000CDF8048000208DF84F0002980DF14F0747
:102E6000B0F1004F25D02B200E9002984FF00208B1
:102E700000280CDA404202902D200E9007E00A2133
:102E80000298FDF718FA3031029007F8011DB8F1E9
:102E90000001A8F10108F2DC02980028EFD1791EA8
:102EA0000E980870307800F0200040F0450007F8D8
:102EB000020D12A8C01B00F107081498007800B199
:102EC000012000EB0A01019801EBE07105984144F3
:102ED000401A401E0590E00306D45B462146179A2F
:102EE000059800F05DF805441498007818B15A462A
:102EF000179990476D1CE00324D55B462146179A2D
:102F0000059800F04DF805441CE00498002807DB04
:102F1000DDE90301884203DD0098405C179901E078
:102F2000179930205A469047049805F10105401C36
:102F300004900198401E019004D12E205A46179902
:102F400090476D1CBAF10001AAF1010ADDDC05E031
:102F500017F8010B5A46179990476D1CB8F10001FC
:102F6000A8F10108F4DC5B462146179A0598ABE608
:102F70002D0000002B000000200000002DE9F04192
:102F8000044600251E461746880404D405E0394649
:102F90002020B0476D1C641EF9D52846BDE8F0819D
:102FA0002DE9F041044600251E469046C80301D590
:102FB000302700E02027880404D505E04146384644
:102FC000B0476D1C641EF9D52846BDE8F0810000AD
:102FD00010B5044601E0FFF79BFA14F8010B044911
:102FE0000028F8D1BDE810400A20FFF791BA000090
:102FF00000000020000000000000000001020304A7
:103000000607080900000000010203040100000097
:1030100004000000020000000800000000000000A2
:10302000040000000200000008000000503000080A
:103030000000002010000000FC260008603000089E
:1030400010000020400500000C27000800000000D0
:103050000000000001000000100000000024F40047
:04000005080001F9F5
:00000001FF
